{"contracts/PricingLibrary.sol":{"PricingLibrary":{"abi":[{"inputs":[{"internalType":"uint256","name":"_price","type":"uint256"},{"internalType":"uint256","name":"_amt","type":"uint256"}],"name":"calculateCost","outputs":[{"internalType":"uint256","name":"","type":"uint256"}],"stateMutability":"pure","type":"function"},{"inputs":[{"internalType":"uint256","name":"generation","type":"uint256"},{"internalType":"uint256","name":"demand","type":"uint256"},{"internalType":"uint256","name":"batteryLevel","type":"uint256"},{"internalType":"uint256","name":"maxCapacity","type":"uint256"},{"internalType":"uint256","name":"reservedEnergy","type":"uint256"}],"name":"calculatePrice","outputs":[{"internalType":"uint256","name":"","type":"uint256"}],"stateMutability":"pure","type":"function"}],"evm":{"bytecode":{"linkReferences":{},"object":"610668610052600b82828239805160001a6073146045577f4e487b7100000000000000000000000000000000000000000000000000000000600052600060045260246000fd5b30600052607381538281f3fe73000000000000000000000000000000000000000030146080604052600436106100405760003560e01c8063207ad9ce14610045578063ce39469614610075575b600080fd5b61005f600480360381019061005a9190610299565b6100a5565b60405161006c9190610323565b60405180910390f35b61008f600480360381019061008a919061033e565b610206565b60405161009c9190610323565b60405180910390f35b600080600a905060008387896100bb91906103b7565b6100c591906103b7565b90506000856064836100d791906103fa565b6100e191906104a1565b9050604681126100ff576002836100f8919061050b565b9250610166565b6028811261011b57600183610114919061050b565b9250610165565b6014811261013757600083610130919061053f565b9250610164565b600081126101535760028361014c919061053f565b9250610163565b600483610160919061053f565b92505b5b5b5b605087106101825760028361017b919061050b565b92506101e9565b603c871061019e57600183610197919061050b565b92506101e8565b602887106101ba576000836101b3919061053f565b92506101e7565b601487106101d6576002836101cf919061053f565b92506101e6565b6004836101e3919061053f565b92505b5b5b5b60018310156101f757600192505b82935050505095945050505050565b600080821161024a576040517f08c379a0000000000000000000000000000000000000000000000000000000008152600401610241906105d0565b60405180910390fd5b828261025691906105f0565b905092915050565b600080fd5b6000819050919050565b61027681610263565b811461028157600080fd5b50565b6000813590506102938161026d565b92915050565b600080600080600060a086880312156102b5576102b461025e565b5b60006102c388828901610284565b95505060206102d488828901610284565b94505060406102e588828901610284565b93505060606102f688828901610284565b925050608061030788828901610284565b9150509295509295909350565b61031d81610263565b82525050565b60006020820190506103386000830184610314565b92915050565b600080604083850312156103555761035461025e565b5b600061036385828601610284565b925050602061037485828601610284565b9150509250929050565b6000819050919050565b7f4e487b7100000000000000000000000000000000000000000000000000000000600052601160045260246000fd5b60006103c28261037e565b91506103cd8361037e565b92508282039050818112600084121682821360008512151617156103f4576103f3610388565b5b92915050565b60006104058261037e565b91506104108361037e565b925082820261041e8161037e565b91507f8000000000000000000000000000000000000000000000000000000000000000841460008412161561045657610455610388565b5b828205841483151761046b5761046a610388565b5b5092915050565b7f4e487b7100000000000000000000000000000000000000000000000000000000600052601260045260246000fd5b60006104ac8261037e565b91506104b78361037e565b9250826104c7576104c6610472565b5b600160000383147f800000000000000000000000000000000000000000000000000000000000000083141615610500576104ff610388565b5b828205905092915050565b600061051682610263565b915061052183610263565b925082820390508181111561053957610538610388565b5b92915050565b600061054a82610263565b915061055583610263565b925082820190508082111561056d5761056c610388565b5b92915050565b600082825260208201905092915050565b7f416d6f756e74206d7573742062652067726561746572207468616e2030000000600082015250565b60006105ba601d83610573565b91506105c582610584565b602082019050919050565b600060208201905081810360008301526105e9816105ad565b9050919050565b60006105fb82610263565b915061060683610263565b925082820261061481610263565b9150828204841483151761062b5761062a610388565b5b509291505056fea2646970667358221220f74ed6f8d981dda520efaa885abf64f6808c9e349eba8e92746c76fee26e10b364736f6c634300081c0033","opcodes":"PUSH2 0x668 PUSH2 0x52 PUSH1 0xB DUP3 DUP3 DUP3 CODECOPY DUP1 MLOAD PUSH1 0x0 BYTE PUSH1 0x73 EQ PUSH1 0x45 JUMPI PUSH32 0x4E487B7100000000000000000000000000000000000000000000000000000000 PUSH1 0x0 MSTORE PUSH1 0x0 PUSH1 0x4 MSTORE PUSH1 0x24 PUSH1 0x0 REVERT JUMPDEST ADDRESS PUSH1 0x0 MSTORE PUSH1 0x73 DUP2 MSTORE8 DUP3 DUP2 RETURN INVALID PUSH20 0x0 ADDRESS EQ PUSH1 0x80 PUSH1 0x40 MSTORE PUSH1 0x4 CALLDATASIZE LT PUSH2 0x40 JUMPI PUSH1 0x0 CALLDATALOAD PUSH1 0xE0 SHR DUP1 PUSH4 0x207AD9CE EQ PUSH2 0x45 JUMPI DUP1 PUSH4 0xCE394696 EQ PUSH2 0x75 JUMPI JUMPDEST PUSH1 0x0 DUP1 REVERT JUMPDEST PUSH2 0x5F PUSH1 0x4 DUP1 CALLDATASIZE SUB DUP2 ADD SWAP1 PUSH2 0x5A SWAP2 SWAP1 PUSH2 0x299 JUMP JUMPDEST PUSH2 0xA5 JUMP JUMPDEST PUSH1 0x40 MLOAD PUSH2 0x6C SWAP2 SWAP1 PUSH2 0x323 JUMP JUMPDEST PUSH1 0x40 MLOAD DUP1 SWAP2 SUB SWAP1 RETURN JUMPDEST PUSH2 0x8F PUSH1 0x4 DUP1 CALLDATASIZE SUB DUP2 ADD SWAP1 PUSH2 0x8A SWAP2 SWAP1 PUSH2 0x33E JUMP JUMPDEST PUSH2 0x206 JUMP JUMPDEST PUSH1 0x40 MLOAD PUSH2 0x9C SWAP2 SWAP1 PUSH2 0x323 JUMP JUMPDEST PUSH1 0x40 MLOAD DUP1 SWAP2 SUB SWAP1 RETURN JUMPDEST PUSH1 0x0 DUP1 PUSH1 0xA SWAP1 POP PUSH1 0x0 DUP4 DUP8 DUP10 PUSH2 0xBB SWAP2 SWAP1 PUSH2 0x3B7 JUMP JUMPDEST PUSH2 0xC5 SWAP2 SWAP1 PUSH2 0x3B7 JUMP JUMPDEST SWAP1 POP PUSH1 0x0 DUP6 PUSH1 0x64 DUP4 PUSH2 0xD7 SWAP2 SWAP1 PUSH2 0x3FA JUMP JUMPDEST PUSH2 0xE1 SWAP2 SWAP1 PUSH2 0x4A1 JUMP JUMPDEST SWAP1 POP PUSH1 0x46 DUP2 SLT PUSH2 0xFF JUMPI PUSH1 0x2 DUP4 PUSH2 0xF8 SWAP2 SWAP1 PUSH2 0x50B JUMP JUMPDEST SWAP3 POP PUSH2 0x166 JUMP JUMPDEST PUSH1 0x28 DUP2 SLT PUSH2 0x11B JUMPI PUSH1 0x1 DUP4 PUSH2 0x114 SWAP2 SWAP1 PUSH2 0x50B JUMP JUMPDEST SWAP3 POP PUSH2 0x165 JUMP JUMPDEST PUSH1 0x14 DUP2 SLT PUSH2 0x137 JUMPI PUSH1 0x0 DUP4 PUSH2 0x130 SWAP2 SWAP1 PUSH2 0x53F JUMP JUMPDEST SWAP3 POP PUSH2 0x164 JUMP JUMPDEST PUSH1 0x0 DUP2 SLT PUSH2 0x153 JUMPI PUSH1 0x2 DUP4 PUSH2 0x14C SWAP2 SWAP1 PUSH2 0x53F JUMP JUMPDEST SWAP3 POP PUSH2 0x163 JUMP JUMPDEST PUSH1 0x4 DUP4 PUSH2 0x160 SWAP2 SWAP1 PUSH2 0x53F JUMP JUMPDEST SWAP3 POP JUMPDEST JUMPDEST JUMPDEST JUMPDEST PUSH1 0x50 DUP8 LT PUSH2 0x182 JUMPI PUSH1 0x2 DUP4 PUSH2 0x17B SWAP2 SWAP1 PUSH2 0x50B JUMP JUMPDEST SWAP3 POP PUSH2 0x1E9 JUMP JUMPDEST PUSH1 0x3C DUP8 LT PUSH2 0x19E JUMPI PUSH1 0x1 DUP4 PUSH2 0x197 SWAP2 SWAP1 PUSH2 0x50B JUMP JUMPDEST SWAP3 POP PUSH2 0x1E8 JUMP JUMPDEST PUSH1 0x28 DUP8 LT PUSH2 0x1BA JUMPI PUSH1 0x0 DUP4 PUSH2 0x1B3 SWAP2 SWAP1 PUSH2 0x53F JUMP JUMPDEST SWAP3 POP PUSH2 0x1E7 JUMP JUMPDEST PUSH1 0x14 DUP8 LT PUSH2 0x1D6 JUMPI PUSH1 0x2 DUP4 PUSH2 0x1CF SWAP2 SWAP1 PUSH2 0x53F JUMP JUMPDEST SWAP3 POP PUSH2 0x1E6 JUMP JUMPDEST PUSH1 0x4 DUP4 PUSH2 0x1E3 SWAP2 SWAP1 PUSH2 0x53F JUMP JUMPDEST SWAP3 POP JUMPDEST JUMPDEST JUMPDEST JUMPDEST PUSH1 0x1 DUP4 LT ISZERO PUSH2 0x1F7 JUMPI PUSH1 0x1 SWAP3 POP JUMPDEST DUP3 SWAP4 POP POP POP POP SWAP6 SWAP5 POP POP POP POP POP JUMP JUMPDEST PUSH1 0x0 DUP1 DUP3 GT PUSH2 0x24A JUMPI PUSH1 0x40 MLOAD PUSH32 0x8C379A000000000000000000000000000000000000000000000000000000000 DUP2 MSTORE PUSH1 0x4 ADD PUSH2 0x241 SWAP1 PUSH2 0x5D0 JUMP JUMPDEST PUSH1 0x40 MLOAD DUP1 SWAP2 SUB SWAP1 REVERT JUMPDEST DUP3 DUP3 PUSH2 0x256 SWAP2 SWAP1 PUSH2 0x5F0 JUMP JUMPDEST SWAP1 POP SWAP3 SWAP2 POP POP JUMP JUMPDEST PUSH1 0x0 DUP1 REVERT JUMPDEST PUSH1 0x0 DUP2 SWAP1 POP SWAP2 SWAP1 POP JUMP JUMPDEST PUSH2 0x276 DUP2 PUSH2 0x263 JUMP JUMPDEST DUP2 EQ PUSH2 0x281 JUMPI PUSH1 0x0 DUP1 REVERT JUMPDEST POP JUMP JUMPDEST PUSH1 0x0 DUP2 CALLDATALOAD SWAP1 POP PUSH2 0x293 DUP2 PUSH2 0x26D JUMP JUMPDEST SWAP3 SWAP2 POP POP JUMP JUMPDEST PUSH1 0x0 DUP1 PUSH1 0x0 DUP1 PUSH1 0x0 PUSH1 0xA0 DUP7 DUP9 SUB SLT ISZERO PUSH2 0x2B5 JUMPI PUSH2 0x2B4 PUSH2 0x25E JUMP JUMPDEST JUMPDEST PUSH1 0x0 PUSH2 0x2C3 DUP9 DUP3 DUP10 ADD PUSH2 0x284 JUMP JUMPDEST SWAP6 POP POP PUSH1 0x20 PUSH2 0x2D4 DUP9 DUP3 DUP10 ADD PUSH2 0x284 JUMP JUMPDEST SWAP5 POP POP PUSH1 0x40 PUSH2 0x2E5 DUP9 DUP3 DUP10 ADD PUSH2 0x284 JUMP JUMPDEST SWAP4 POP POP PUSH1 0x60 PUSH2 0x2F6 DUP9 DUP3 DUP10 ADD PUSH2 0x284 JUMP JUMPDEST SWAP3 POP POP PUSH1 0x80 PUSH2 0x307 DUP9 DUP3 DUP10 ADD PUSH2 0x284 JUMP JUMPDEST SWAP2 POP POP SWAP3 SWAP6 POP SWAP3 SWAP6 SWAP1 SWAP4 POP JUMP JUMPDEST PUSH2 0x31D DUP2 PUSH2 0x263 JUMP JUMPDEST DUP3 MSTORE POP POP JUMP JUMPDEST PUSH1 0x0 PUSH1 0x20 DUP3 ADD SWAP1 POP PUSH2 0x338 PUSH1 0x0 DUP4 ADD DUP5 PUSH2 0x314 JUMP JUMPDEST SWAP3 SWAP2 POP POP JUMP JUMPDEST PUSH1 0x0 DUP1 PUSH1 0x40 DUP4 DUP6 SUB SLT ISZERO PUSH2 0x355 JUMPI PUSH2 0x354 PUSH2 0x25E JUMP JUMPDEST JUMPDEST PUSH1 0x0 PUSH2 0x363 DUP6 DUP3 DUP7 ADD PUSH2 0x284 JUMP JUMPDEST SWAP3 POP POP PUSH1 0x20 PUSH2 0x374 DUP6 DUP3 DUP7 ADD PUSH2 0x284 JUMP JUMPDEST SWAP2 POP POP SWAP3 POP SWAP3 SWAP1 POP JUMP JUMPDEST PUSH1 0x0 DUP2 SWAP1 POP SWAP2 SWAP1 POP JUMP JUMPDEST PUSH32 0x4E487B7100000000000000000000000000000000000000000000000000000000 PUSH1 0x0 MSTORE PUSH1 0x11 PUSH1 0x4 MSTORE PUSH1 0x24 PUSH1 0x0 REVERT JUMPDEST PUSH1 0x0 PUSH2 0x3C2 DUP3 PUSH2 0x37E JUMP JUMPDEST SWAP2 POP PUSH2 0x3CD DUP4 PUSH2 0x37E JUMP JUMPDEST SWAP3 POP DUP3 DUP3 SUB SWAP1 POP DUP2 DUP2 SLT PUSH1 0x0 DUP5 SLT AND DUP3 DUP3 SGT PUSH1 0x0 DUP6 SLT ISZERO AND OR ISZERO PUSH2 0x3F4 JUMPI PUSH2 0x3F3 PUSH2 0x388 JUMP JUMPDEST JUMPDEST SWAP3 SWAP2 POP POP JUMP JUMPDEST PUSH1 0x0 PUSH2 0x405 DUP3 PUSH2 0x37E JUMP JUMPDEST SWAP2 POP PUSH2 0x410 DUP4 PUSH2 0x37E JUMP JUMPDEST SWAP3 POP DUP3 DUP3 MUL PUSH2 0x41E DUP2 PUSH2 0x37E JUMP JUMPDEST SWAP2 POP PUSH32 0x8000000000000000000000000000000000000000000000000000000000000000 DUP5 EQ PUSH1 0x0 DUP5 SLT AND ISZERO PUSH2 0x456 JUMPI PUSH2 0x455 PUSH2 0x388 JUMP JUMPDEST JUMPDEST DUP3 DUP3 SDIV DUP5 EQ DUP4 ISZERO OR PUSH2 0x46B JUMPI PUSH2 0x46A PUSH2 0x388 JUMP JUMPDEST JUMPDEST POP SWAP3 SWAP2 POP POP JUMP JUMPDEST PUSH32 0x4E487B7100000000000000000000000000000000000000000000000000000000 PUSH1 0x0 MSTORE PUSH1 0x12 PUSH1 0x4 MSTORE PUSH1 0x24 PUSH1 0x0 REVERT JUMPDEST PUSH1 0x0 PUSH2 0x4AC DUP3 PUSH2 0x37E JUMP JUMPDEST SWAP2 POP PUSH2 0x4B7 DUP4 PUSH2 0x37E JUMP JUMPDEST SWAP3 POP DUP3 PUSH2 0x4C7 JUMPI PUSH2 0x4C6 PUSH2 0x472 JUMP JUMPDEST JUMPDEST PUSH1 0x1 PUSH1 0x0 SUB DUP4 EQ PUSH32 0x8000000000000000000000000000000000000000000000000000000000000000 DUP4 EQ AND ISZERO PUSH2 0x500 JUMPI PUSH2 0x4FF PUSH2 0x388 JUMP JUMPDEST JUMPDEST DUP3 DUP3 SDIV SWAP1 POP SWAP3 SWAP2 POP POP JUMP JUMPDEST PUSH1 0x0 PUSH2 0x516 DUP3 PUSH2 0x263 JUMP JUMPDEST SWAP2 POP PUSH2 0x521 DUP4 PUSH2 0x263 JUMP JUMPDEST SWAP3 POP DUP3 DUP3 SUB SWAP1 POP DUP2 DUP2 GT ISZERO PUSH2 0x539 JUMPI PUSH2 0x538 PUSH2 0x388 JUMP JUMPDEST JUMPDEST SWAP3 SWAP2 POP POP JUMP JUMPDEST PUSH1 0x0 PUSH2 0x54A DUP3 PUSH2 0x263 JUMP JUMPDEST SWAP2 POP PUSH2 0x555 DUP4 PUSH2 0x263 JUMP JUMPDEST SWAP3 POP DUP3 DUP3 ADD SWAP1 POP DUP1 DUP3 GT ISZERO PUSH2 0x56D JUMPI PUSH2 0x56C PUSH2 0x388 JUMP JUMPDEST JUMPDEST SWAP3 SWAP2 POP POP JUMP JUMPDEST PUSH1 0x0 DUP3 DUP3 MSTORE PUSH1 0x20 DUP3 ADD SWAP1 POP SWAP3 SWAP2 POP POP JUMP JUMPDEST PUSH32 0x416D6F756E74206D7573742062652067726561746572207468616E2030000000 PUSH1 0x0 DUP3 ADD MSTORE POP JUMP JUMPDEST PUSH1 0x0 PUSH2 0x5BA PUSH1 0x1D DUP4 PUSH2 0x573 JUMP JUMPDEST SWAP2 POP PUSH2 0x5C5 DUP3 PUSH2 0x584 JUMP JUMPDEST PUSH1 0x20 DUP3 ADD SWAP1 POP SWAP2 SWAP1 POP JUMP JUMPDEST PUSH1 0x0 PUSH1 0x20 DUP3 ADD SWAP1 POP DUP2 DUP2 SUB PUSH1 0x0 DUP4 ADD MSTORE PUSH2 0x5E9 DUP2 PUSH2 0x5AD JUMP JUMPDEST SWAP1 POP SWAP2 SWAP1 POP JUMP JUMPDEST PUSH1 0x0 PUSH2 0x5FB DUP3 PUSH2 0x263 JUMP JUMPDEST SWAP2 POP PUSH2 0x606 DUP4 PUSH2 0x263 JUMP JUMPDEST SWAP3 POP DUP3 DUP3 MUL PUSH2 0x614 DUP2 PUSH2 0x263 JUMP JUMPDEST SWAP2 POP DUP3 DUP3 DIV DUP5 EQ DUP4 ISZERO OR PUSH2 0x62B JUMPI PUSH2 0x62A PUSH2 0x388 JUMP JUMPDEST JUMPDEST POP SWAP3 SWAP2 POP POP JUMP INVALID LOG2 PUSH5 0x6970667358 0x22 SLT KECCAK256 0xF7 0x4E 0xD6 0xF8 0xD9 DUP2 0xDD 0xA5 KECCAK256 0xEF 0xAA DUP9 GAS 0xBF PUSH5 0xF6808C9E34 SWAP15 0xBA DUP15 SWAP3 PUSH21 0x6C76FEE26E10B364736F6C634300081C0033000000 "},"methodIdentifiers":{"calculateCost(uint256,uint256)":"ce394696","calculatePrice(uint256,uint256,uint256,uint256,uint256)":"207ad9ce"}}}}}