{
  "_format": "hh-sol-artifact-1",
  "contractName": "MicrogridRegistry",
  "sourceName": "contracts/MicrogridRegistry.sol",
  "abi": [
    {
      "inputs": [
        {
          "internalType": "address",
          "name": "_owner",
          "type": "address"
        }
      ],
      "stateMutability": "nonpayable",
      "type": "constructor"
    },
    {
      "inputs": [
        {
          "internalType": "address",
          "name": "owner",
          "type": "address"
        }
      ],
      "name": "OwnableInvalidOwner",
      "type": "error"
    },
    {
      "inputs": [
        {
          "internalType": "address",
          "name": "account",
          "type": "address"
        }
      ],
      "name": "OwnableUnauthorizedAccount",
      "type": "error"
    },
    {
      "anonymous": false,
      "inputs": [
        {
          "indexed": true,
          "internalType": "uint256",
          "name": "id",
          "type": "uint256"
        },
        {
          "indexed": true,
          "internalType": "address",
          "name": "owner",
          "type": "address"
        },
        {
          "indexed": false,
          "internalType": "string",
          "name": "name",
          "type": "string"
        },
        {
          "indexed": false,
          "internalType": "uint256",
          "name": "latitude",
          "type": "uint256"
        },
        {
          "indexed": false,
          "internalType": "uint256",
          "name": "longitude",
          "type": "uint256"
        }
      ],
      "name": "MicrogridRegistered",
      "type": "event"
    },
    {
      "anonymous": false,
      "inputs": [
        {
          "indexed": true,
          "internalType": "address",
          "name": "previousOwner",
          "type": "address"
        },
        {
          "indexed": true,
          "internalType": "address",
          "name": "newOwner",
          "type": "address"
        }
      ],
      "name": "OwnershipTransferred",
      "type": "event"
    },
    {
      "anonymous": false,
      "inputs": [
        {
          "indexed": true,
          "internalType": "uint256",
          "name": "id",
          "type": "uint256"
        },
        {
          "indexed": false,
          "internalType": "uint256",
          "name": "reservedEnergy",
          "type": "uint256"
        }
      ],
      "name": "ReservedEnergyUpdated",
      "type": "event"
    },
    {
      "anonymous": false,
      "inputs": [
        {
          "indexed": true,
          "internalType": "uint256",
          "name": "id",
          "type": "uint256"
        },
        {
          "indexed": false,
          "internalType": "uint256",
          "name": "energyGenerated",
          "type": "uint256"
        },
        {
          "indexed": false,
          "internalType": "uint256",
          "name": "energyDemand",
          "type": "uint256"
        },
        {
          "indexed": false,
          "internalType": "uint256",
          "name": "batteryLevel",
          "type": "uint256"
        },
        {
          "indexed": false,
          "internalType": "uint256",
          "name": "lastUpdated",
          "type": "uint256"
        }
      ],
      "name": "StatusUpdated",
      "type": "event"
    },
    {
      "inputs": [
        {
          "internalType": "uint256",
          "name": "_id",
          "type": "uint256"
        },
        {
          "internalType": "uint256",
          "name": "_amount",
          "type": "uint256"
        }
      ],
      "name": "decreaseReservedEnergy",
      "outputs": [],
      "stateMutability": "nonpayable",
      "type": "function"
    },
    {
      "inputs": [
        {
          "internalType": "uint256",
          "name": "_id",
          "type": "uint256"
        }
      ],
      "name": "getAvailableEnergy",
      "outputs": [
        {
          "internalType": "uint256",
          "name": "",
          "type": "uint256"
        }
      ],
      "stateMutability": "view",
      "type": "function"
    },
    {
      "inputs": [
        {
          "internalType": "uint256",
          "name": "_id",
          "type": "uint256"
        }
      ],
      "name": "getMicrogrid",
      "outputs": [
        {
          "components": [
            {
              "internalType": "uint256",
              "name": "id",
              "type": "uint256"
            },
            {
              "internalType": "string",
              "name": "name",
              "type": "string"
            },
            {
              "internalType": "address",
              "name": "owner",
              "type": "address"
            },
            {
              "internalType": "uint256",
              "name": "latitude",
              "type": "uint256"
            },
            {
              "internalType": "uint256",
              "name": "longitude",
              "type": "uint256"
            },
            {
              "internalType": "uint256",
              "name": "energyGenerated",
              "type": "uint256"
            },
            {
              "internalType": "uint256",
              "name": "energyDemand",
              "type": "uint256"
            },
            {
              "internalType": "uint256",
              "name": "batteryLevel",
              "type": "uint256"
            },
            {
              "internalType": "uint256",
              "name": "maxCapacity",
              "type": "uint256"
            },
            {
              "internalType": "uint256",
              "name": "reservedEnergy",
              "type": "uint256"
            },
            {
              "internalType": "bool",
              "name": "isActive",
              "type": "bool"
            },
            {
              "internalType": "uint256",
              "name": "lastUpdated",
              "type": "uint256"
            }
          ],
          "internalType": "struct MicrogridRegistry.Microgrid",
          "name": "",
          "type": "tuple"
        }
      ],
      "stateMutability": "view",
      "type": "function"
    },
    {
      "inputs": [
        {
          "internalType": "uint256",
          "name": "_id",
          "type": "uint256"
        }
      ],
      "name": "getOwner",
      "outputs": [
        {
          "internalType": "address",
          "name": "",
          "type": "address"
        }
      ],
      "stateMutability": "view",
      "type": "function"
    },
    {
      "inputs": [
        {
          "internalType": "uint256",
          "name": "_id",
          "type": "uint256"
        }
      ],
      "name": "getPricingData",
      "outputs": [
        {
          "internalType": "uint256",
          "name": "generation",
          "type": "uint256"
        },
        {
          "internalType": "uint256",
          "name": "demand",
          "type": "uint256"
        },
        {
          "internalType": "uint256",
          "name": "batteryLevel",
          "type": "uint256"
        },
        {
          "internalType": "uint256",
          "name": "maxCapacity",
          "type": "uint256"
        },
        {
          "internalType": "uint256",
          "name": "reservedEnergy",
          "type": "uint256"
        }
      ],
      "stateMutability": "view",
      "type": "function"
    },
    {
      "inputs": [
        {
          "internalType": "uint256",
          "name": "_id",
          "type": "uint256"
        }
      ],
      "name": "getSurplus",
      "outputs": [
        {
          "internalType": "int256",
          "name": "",
          "type": "int256"
        }
      ],
      "stateMutability": "view",
      "type": "function"
    },
    {
      "inputs": [
        {
          "internalType": "uint256",
          "name": "_id",
          "type": "uint256"
        }
      ],
      "name": "hasSurplus",
      "outputs": [
        {
          "internalType": "bool",
          "name": "",
          "type": "bool"
        }
      ],
      "stateMutability": "view",
      "type": "function"
    },
    {
      "inputs": [
        {
          "internalType": "uint256",
          "name": "_id",
          "type": "uint256"
        },
        {
          "internalType": "uint256",
          "name": "_amount",
          "type": "uint256"
        }
      ],
      "name": "increaseReservedEnergy",
      "outputs": [],
      "stateMutability": "nonpayable",
      "type": "function"
    },
    {
      "inputs": [
        {
          "internalType": "uint256",
          "name": "_id",
          "type": "uint256"
        }
      ],
      "name": "isMicrogridActive",
      "outputs": [
        {
          "internalType": "bool",
          "name": "",
          "type": "bool"
        }
      ],
      "stateMutability": "view",
      "type": "function"
    },
    {
      "inputs": [
        {
          "internalType": "address",
          "name": "",
          "type": "address"
        }
      ],
      "name": "isRegistered",
      "outputs": [
        {
          "internalType": "bool",
          "name": "",
          "type": "bool"
        }
      ],
      "stateMutability": "view",
      "type": "function"
    },
    {
      "inputs": [],
      "name": "marketplaceAddress",
      "outputs": [
        {
          "internalType": "address",
          "name": "",
          "type": "address"
        }
      ],
      "stateMutability": "view",
      "type": "function"
    },
    {
      "inputs": [
        {
          "internalType": "uint256",
          "name": "",
          "type": "uint256"
        }
      ],
      "name": "microgrids",
      "outputs": [
        {
          "internalType": "uint256",
          "name": "id",
          "type": "uint256"
        },
        {
          "internalType": "string",
          "name": "name",
          "type": "string"
        },
        {
          "internalType": "address",
          "name": "owner",
          "type": "address"
        },
        {
          "internalType": "uint256",
          "name": "latitude",
          "type": "uint256"
        },
        {
          "internalType": "uint256",
          "name": "longitude",
          "type": "uint256"
        },
        {
          "internalType": "uint256",
          "name": "energyGenerated",
          "type": "uint256"
        },
        {
          "internalType": "uint256",
          "name": "energyDemand",
          "type": "uint256"
        },
        {
          "internalType": "uint256",
          "name": "batteryLevel",
          "type": "uint256"
        },
        {
          "internalType": "uint256",
          "name": "maxCapacity",
          "type": "uint256"
        },
        {
          "internalType": "uint256",
          "name": "reservedEnergy",
          "type": "uint256"
        },
        {
          "internalType": "bool",
          "name": "isActive",
          "type": "bool"
        },
        {
          "internalType": "uint256",
          "name": "lastUpdated",
          "type": "uint256"
        }
      ],
      "stateMutability": "view",
      "type": "function"
    },
    {
      "inputs": [],
      "name": "nextId",
      "outputs": [
        {
          "internalType": "uint256",
          "name": "",
          "type": "uint256"
        }
      ],
      "stateMutability": "view",
      "type": "function"
    },
    {
      "inputs": [],
      "name": "owner",
      "outputs": [
        {
          "internalType": "address",
          "name": "",
          "type": "address"
        }
      ],
      "stateMutability": "view",
      "type": "function"
    },
    {
      "inputs": [
        {
          "internalType": "string",
          "name": "_name",
          "type": "string"
        },
        {
          "internalType": "uint256",
          "name": "_latitude",
          "type": "uint256"
        },
        {
          "internalType": "uint256",
          "name": "_longitude",
          "type": "uint256"
        },
        {
          "internalType": "uint256",
          "name": "_maxCapacity",
          "type": "uint256"
        }
      ],
      "name": "registerMicrogrid",
      "outputs": [],
      "stateMutability": "nonpayable",
      "type": "function"
    },
    {
      "inputs": [],
      "name": "renounceOwnership",
      "outputs": [],
      "stateMutability": "nonpayable",
      "type": "function"
    },
    {
      "inputs": [
        {
          "internalType": "address",
          "name": "_marketplaceAddress",
          "type": "address"
        }
      ],
      "name": "setMarketplaceAddress",
      "outputs": [],
      "stateMutability": "nonpayable",
      "type": "function"
    },
    {
      "inputs": [
        {
          "internalType": "uint256",
          "name": "_id",
          "type": "uint256"
        },
        {
          "internalType": "bool",
          "name": "_status",
          "type": "bool"
        }
      ],
      "name": "setMicrogridStatus",
      "outputs": [],
      "stateMutability": "nonpayable",
      "type": "function"
    },
    {
      "inputs": [
        {
          "internalType": "address",
          "name": "newOwner",
          "type": "address"
        }
      ],
      "name": "transferOwnership",
      "outputs": [],
      "stateMutability": "nonpayable",
      "type": "function"
    },
    {
      "inputs": [
        {
          "internalType": "uint256",
          "name": "_id",
          "type": "uint256"
        },
        {
          "internalType": "uint256",
          "name": "_energyGenerated",
          "type": "uint256"
        },
        {
          "internalType": "uint256",
          "name": "_energyDemand",
          "type": "uint256"
        },
        {
          "internalType": "uint256",
          "name": "_batteryLevel",
          "type": "uint256"
        }
      ],
      "name": "updateStatus",
      "outputs": [],
      "stateMutability": "nonpayable",
      "type": "function"
    }
  ],
  "bytecode": "0x608060405234801561001057600080fd5b50604051612e39380380612e39833981810160405281019061003291906101e2565b80600073ffffffffffffffffffffffffffffffffffffffff168173ffffffffffffffffffffffffffffffffffffffff16036100a55760006040517f1e4fbdf700000000000000000000000000000000000000000000000000000000815260040161009c919061021e565b60405180910390fd5b6100b4816100bb60201b60201c565b5050610239565b60008060009054906101000a900473ffffffffffffffffffffffffffffffffffffffff169050816000806101000a81548173ffffffffffffffffffffffffffffffffffffffff021916908373ffffffffffffffffffffffffffffffffffffffff1602179055508173ffffffffffffffffffffffffffffffffffffffff168173ffffffffffffffffffffffffffffffffffffffff167f8be0079c531659141344cd1fd0a4f28419497f9722a3daafe3b4186f6b6457e060405160405180910390a35050565b600080fd5b600073ffffffffffffffffffffffffffffffffffffffff82169050919050565b60006101af82610184565b9050919050565b6101bf816101a4565b81146101ca57600080fd5b50565b6000815190506101dc816101b6565b92915050565b6000602082840312156101f8576101f761017f565b5b6000610206848285016101cd565b91505092915050565b610218816101a4565b82525050565b6000602082019050610233600083018461020f565b92915050565b612bf1806102486000396000f3fe608060405234801561001057600080fd5b506004361061012c5760003560e01c80638da5cb5b116100ad578063c41a360a11610071578063c41a360a14610362578063d053189714610392578063d3e0bada146103c2578063daa17f49146103de578063f2fde38b146103fc5761012c565b80638da5cb5b146102a157806393e64b48146102bf578063955464ef146102fa578063b47cc55614610316578063c3c5a547146103325761012c565b80634fa4c02d116100f45780634fa4c02d1461020d57806361b8ce8c1461024157806361f2d09f1461025f578063715018a61461027b57806387d53231146102855761012c565b806312c6e696146101315780631b4ffccb146101615780631c334a7e1461017d5780634504b83a146101ad57806347846fd9146101dd575b600080fd5b61014b600480360381019061014691906119c2565b610418565b6040516101589190611a0a565b60405180910390f35b61017b60048036038101906101769190611a51565b610524565b005b610197600480360381019061019291906119c2565b610640565b6040516101a49190611a0a565b60405180910390f35b6101c760048036038101906101c291906119c2565b6106b1565b6040516101d49190611c84565b60405180910390f35b6101f760048036038101906101f291906119c2565b610880565b6040516102049190611cb5565b60405180910390f35b610227600480360381019061022291906119c2565b61099f565b604051610238959493929190611cd0565b60405180910390f35b610249610a2f565b6040516102569190611cb5565b60405180910390f35b61027960048036038101906102749190611d23565b610a35565b005b610283610be1565b005b61029f600480360381019061029a9190611d63565b610bf5565b005b6102a9610ee8565b6040516102b69190611dd9565b60405180910390f35b6102d960048036038101906102d491906119c2565b610f11565b6040516102f19c9b9a99989796959493929190611e3e565b60405180910390f35b610314600480360381019061030f9190612034565b611026565b005b610330600480360381019061032b91906120e3565b611323565b005b61034c600480360381019061034791906120e3565b611400565b6040516103599190611a0a565b60405180910390f35b61037c600480360381019061037791906119c2565b611420565b6040516103899190611dd9565b60405180910390f35b6103ac60048036038101906103a791906119c2565b6114a4565b6040516103b99190612129565b60405180910390f35b6103dc60048036038101906103d79190611d23565b6115ad565b005b6103e6611700565b6040516103f39190611dd9565b60405180910390f35b610416600480360381019061041191906120e3565b611726565b005b6000600154821061045e576040517f08c379a000000000000000000000000000000000000000000000000000000000815260040161045590612190565b60405180910390fd5b60026000838152602001908152602001600020600a0160009054906101000a900460ff166104c1576040517f08c379a00000000000000000000000000000000000000000000000000000000081526004016104b8906121fc565b60405180910390fd5b6000600260008481526020019081526020016000206009015460026000858152602001908152602001600020600601546002600086815260200190815260200160002060050154610512919061224b565b61051c919061224b565b139050919050565b813373ffffffffffffffffffffffffffffffffffffffff166002600083815260200190815260200160002060020160009054906101000a900473ffffffffffffffffffffffffffffffffffffffff1673ffffffffffffffffffffffffffffffffffffffff16146105c9576040517f08c379a00000000000000000000000000000000000000000000000000000000081526004016105c0906122da565b60405180910390fd5b600154831061060d576040517f08c379a000000000000000000000000000000000000000000000000000000000815260040161060490612190565b60405180910390fd5b8160026000858152602001908152602001600020600a0160006101000a81548160ff021916908315150217905550505050565b60006001548210610686576040517f08c379a000000000000000000000000000000000000000000000000000000000815260040161067d90612190565b60405180910390fd5b60026000838152602001908152602001600020600a0160009054906101000a900460ff169050919050565b6106b96118ff565b60015482106106fd576040517f08c379a00000000000000000000000000000000000000000000000000000000081526004016106f490612190565b60405180910390fd5b60026000838152602001908152602001600020604051806101800160405290816000820154815260200160018201805461073690612329565b80601f016020809104026020016040519081016040528092919081815260200182805461076290612329565b80156107af5780601f10610784576101008083540402835291602001916107af565b820191906000526020600020905b81548152906001019060200180831161079257829003601f168201915b505050505081526020016002820160009054906101000a900473ffffffffffffffffffffffffffffffffffffffff1673ffffffffffffffffffffffffffffffffffffffff1673ffffffffffffffffffffffffffffffffffffffff16815260200160038201548152602001600482015481526020016005820154815260200160068201548152602001600782015481526020016008820154815260200160098201548152602001600a820160009054906101000a900460ff16151515158152602001600b820154815250509050919050565b600060015482106108c6576040517f08c379a00000000000000000000000000000000000000000000000000000000081526004016108bd90612190565b60405180910390fd5b60026000838152602001908152602001600020600a0160009054906101000a900460ff16610929576040517f08c379a0000000000000000000000000000000000000000000000000000000008152600401610920906121fc565b60405180910390fd5b600060026000848152602001908152602001600020600901546002600085815260200190815260200160002060060154600260008681526020019081526020016000206005015461097a919061224b565b610984919061224b565b905060008113610995576000610997565b805b915050919050565b600080600080600060015486106109eb576040517f08c379a00000000000000000000000000000000000000000000000000000000081526004016109e2906123a6565b60405180910390fd5b600060026000888152602001908152602001600020905080600501548160060154826007015483600801548460090154955095509550955095505091939590929450565b60015481565b600460009054906101000a900473ffffffffffffffffffffffffffffffffffffffff1673ffffffffffffffffffffffffffffffffffffffff163373ffffffffffffffffffffffffffffffffffffffff1614610ac5576040517f08c379a0000000000000000000000000000000000000000000000000000000008152600401610abc90612438565b60405180910390fd5b6001548210610b09576040517f08c379a0000000000000000000000000000000000000000000000000000000008152600401610b0090612190565b60405180910390fd5b8060026000848152602001908152602001600020600901541015610b62576040517f08c379a0000000000000000000000000000000000000000000000000000000008152600401610b59906124a4565b60405180910390fd5b80600260008481526020019081526020016000206009016000828254610b8891906124c4565b92505081905550817fb289bc0a077dda72409091ecfd7217e89eec2e6c01bbb815eecf3599ccf31fcc6002600085815260200190815260200160002060090154604051610bd59190611cb5565b60405180910390a25050565b610be96117ac565b610bf36000611833565b565b833373ffffffffffffffffffffffffffffffffffffffff166002600083815260200190815260200160002060020160009054906101000a900473ffffffffffffffffffffffffffffffffffffffff1673ffffffffffffffffffffffffffffffffffffffff1614610c9a576040517f08c379a0000000000000000000000000000000000000000000000000000000008152600401610c91906122da565b60405180910390fd5b6001548510610cde576040517f08c379a0000000000000000000000000000000000000000000000000000000008152600401610cd590612190565b60405180910390fd5b60026000868152602001908152602001600020600a0160009054906101000a900460ff16610d41576040517f08c379a0000000000000000000000000000000000000000000000000000000008152600401610d38906121fc565b60405180910390fd5b6064821115610d85576040517f08c379a0000000000000000000000000000000000000000000000000000000008152600401610d7c9061256a565b60405180910390fd5b6002600086815260200190815260200160002060080154841115610dde576040517f08c379a0000000000000000000000000000000000000000000000000000000008152600401610dd5906125fc565b60405180910390fd5b6002600086815260200190815260200160002060080154831115610e37576040517f08c379a0000000000000000000000000000000000000000000000000000000008152600401610e2e9061268e565b60405180910390fd5b8360026000878152602001908152602001600020600501819055508260026000878152602001908152602001600020600601819055508160026000878152602001908152602001600020600701819055504260026000878152602001908152602001600020600b0181905550847f51dffc56f3ebef9bab005c12273259d1c794ecdac4bdb23f96c2d9553ab9410185858542604051610ed994939291906126ae565b60405180910390a25050505050565b60008060009054906101000a900473ffffffffffffffffffffffffffffffffffffffff16905090565b6002602052806000526040600020600091509050806000015490806001018054610f3a90612329565b80601f0160208091040260200160405190810160405280929190818152602001828054610f6690612329565b8015610fb35780601f10610f8857610100808354040283529160200191610fb3565b820191906000526020600020905b815481529060010190602001808311610f9657829003601f168201915b5050505050908060020160009054906101000a900473ffffffffffffffffffffffffffffffffffffffff169080600301549080600401549080600501549080600601549080600701549080600801549080600901549080600a0160009054906101000a900460ff169080600b015490508c565b60008111611069576040517f08c379a000000000000000000000000000000000000000000000000000000000815260040161106090612765565b60405180910390fd5b600360003373ffffffffffffffffffffffffffffffffffffffff1673ffffffffffffffffffffffffffffffffffffffff16815260200190815260200160002060009054906101000a900460ff16156110f6576040517f08c379a00000000000000000000000000000000000000000000000000000000081526004016110ed906127f7565b60405180910390fd5b60006001600081548092919061110b90612817565b9190505590506040518061018001604052808281526020018681526020013373ffffffffffffffffffffffffffffffffffffffff1681526020018581526020018481526020016000815260200160008152602001606481526020018381526020016000815260200160011515815260200142815250600260008381526020019081526020016000206000820151816000015560208201518160010190816111b29190612a0b565b5060408201518160020160006101000a81548173ffffffffffffffffffffffffffffffffffffffff021916908373ffffffffffffffffffffffffffffffffffffffff160217905550606082015181600301556080820151816004015560a0820151816005015560c0820151816006015560e082015181600701556101008201518160080155610120820151816009015561014082015181600a0160006101000a81548160ff02191690831515021790555061016082015181600b01559050506001600360003373ffffffffffffffffffffffffffffffffffffffff1673ffffffffffffffffffffffffffffffffffffffff16815260200190815260200160002060006101000a81548160ff0219169083151502179055503373ffffffffffffffffffffffffffffffffffffffff16817f7b2068605e8ed71972e65749aa4b5d44adfa00427b5bde64876aeba6a4411a8687878760405161131493929190612add565b60405180910390a35050505050565b61132b6117ac565b600073ffffffffffffffffffffffffffffffffffffffff16600460009054906101000a900473ffffffffffffffffffffffffffffffffffffffff1673ffffffffffffffffffffffffffffffffffffffff16146113bc576040517f08c379a00000000000000000000000000000000000000000000000000000000081526004016113b390612b67565b60405180910390fd5b80600460006101000a81548173ffffffffffffffffffffffffffffffffffffffff021916908373ffffffffffffffffffffffffffffffffffffffff16021790555050565b60036020528060005260406000206000915054906101000a900460ff1681565b60006001548210611466576040517f08c379a000000000000000000000000000000000000000000000000000000000815260040161145d90612190565b60405180910390fd5b6002600083815260200190815260200160002060020160009054906101000a900473ffffffffffffffffffffffffffffffffffffffff169050919050565b600060015482106114ea576040517f08c379a00000000000000000000000000000000000000000000000000000000081526004016114e190612190565b60405180910390fd5b60026000838152602001908152602001600020600a0160009054906101000a900460ff1661154d576040517f08c379a0000000000000000000000000000000000000000000000000000000008152600401611544906121fc565b60405180910390fd5b60026000838152602001908152602001600020600901546002600084815260200190815260200160002060060154600260008581526020019081526020016000206005015461159c919061224b565b6115a6919061224b565b9050919050565b600460009054906101000a900473ffffffffffffffffffffffffffffffffffffffff1673ffffffffffffffffffffffffffffffffffffffff163373ffffffffffffffffffffffffffffffffffffffff161461163d576040517f08c379a000000000000000000000000000000000000000000000000000000000815260040161163490612438565b60405180910390fd5b6001548210611681576040517f08c379a000000000000000000000000000000000000000000000000000000000815260040161167890612190565b60405180910390fd5b806002600084815260200190815260200160002060090160008282546116a79190612b87565b92505081905550817fb289bc0a077dda72409091ecfd7217e89eec2e6c01bbb815eecf3599ccf31fcc60026000858152602001908152602001600020600901546040516116f49190611cb5565b60405180910390a25050565b600460009054906101000a900473ffffffffffffffffffffffffffffffffffffffff1681565b61172e6117ac565b600073ffffffffffffffffffffffffffffffffffffffff168173ffffffffffffffffffffffffffffffffffffffff16036117a05760006040517f1e4fbdf70000000000000000000000000000000000000000000000000000000081526004016117979190611dd9565b60405180910390fd5b6117a981611833565b50565b6117b46118f7565b73ffffffffffffffffffffffffffffffffffffffff166117d2610ee8565b73ffffffffffffffffffffffffffffffffffffffff1614611831576117f56118f7565b6040517f118cdaa70000000000000000000000000000000000000000000000000000000081526004016118289190611dd9565b60405180910390fd5b565b60008060009054906101000a900473ffffffffffffffffffffffffffffffffffffffff169050816000806101000a81548173ffffffffffffffffffffffffffffffffffffffff021916908373ffffffffffffffffffffffffffffffffffffffff1602179055508173ffffffffffffffffffffffffffffffffffffffff168173ffffffffffffffffffffffffffffffffffffffff167f8be0079c531659141344cd1fd0a4f28419497f9722a3daafe3b4186f6b6457e060405160405180910390a35050565b600033905090565b6040518061018001604052806000815260200160608152602001600073ffffffffffffffffffffffffffffffffffffffff16815260200160008152602001600081526020016000815260200160008152602001600081526020016000815260200160008152602001600015158152602001600081525090565b6000604051905090565b600080fd5b600080fd5b6000819050919050565b61199f8161198c565b81146119aa57600080fd5b50565b6000813590506119bc81611996565b92915050565b6000602082840312156119d8576119d7611982565b5b60006119e6848285016119ad565b91505092915050565b60008115159050919050565b611a04816119ef565b82525050565b6000602082019050611a1f60008301846119fb565b92915050565b611a2e816119ef565b8114611a3957600080fd5b50565b600081359050611a4b81611a25565b92915050565b60008060408385031215611a6857611a67611982565b5b6000611a76858286016119ad565b9250506020611a8785828601611a3c565b9150509250929050565b611a9a8161198c565b82525050565b600081519050919050565b600082825260208201905092915050565b60005b83811015611ada578082015181840152602081019050611abf565b60008484015250505050565b6000601f19601f8301169050919050565b6000611b0282611aa0565b611b0c8185611aab565b9350611b1c818560208601611abc565b611b2581611ae6565b840191505092915050565b600073ffffffffffffffffffffffffffffffffffffffff82169050919050565b6000611b5b82611b30565b9050919050565b611b6b81611b50565b82525050565b611b7a816119ef565b82525050565b600061018083016000830151611b996000860182611a91565b5060208301518482036020860152611bb18282611af7565b9150506040830151611bc66040860182611b62565b506060830151611bd96060860182611a91565b506080830151611bec6080860182611a91565b5060a0830151611bff60a0860182611a91565b5060c0830151611c1260c0860182611a91565b5060e0830151611c2560e0860182611a91565b50610100830151611c3a610100860182611a91565b50610120830151611c4f610120860182611a91565b50610140830151611c64610140860182611b71565b50610160830151611c79610160860182611a91565b508091505092915050565b60006020820190508181036000830152611c9e8184611b80565b905092915050565b611caf8161198c565b82525050565b6000602082019050611cca6000830184611ca6565b92915050565b600060a082019050611ce56000830188611ca6565b611cf26020830187611ca6565b611cff6040830186611ca6565b611d0c6060830185611ca6565b611d196080830184611ca6565b9695505050505050565b60008060408385031215611d3a57611d39611982565b5b6000611d48858286016119ad565b9250506020611d59858286016119ad565b9150509250929050565b60008060008060808587031215611d7d57611d7c611982565b5b6000611d8b878288016119ad565b9450506020611d9c878288016119ad565b9350506040611dad878288016119ad565b9250506060611dbe878288016119ad565b91505092959194509250565b611dd381611b50565b82525050565b6000602082019050611dee6000830184611dca565b92915050565b600082825260208201905092915050565b6000611e1082611aa0565b611e1a8185611df4565b9350611e2a818560208601611abc565b611e3381611ae6565b840191505092915050565b600061018082019050611e54600083018f611ca6565b8181036020830152611e66818e611e05565b9050611e75604083018d611dca565b611e82606083018c611ca6565b611e8f608083018b611ca6565b611e9c60a083018a611ca6565b611ea960c0830189611ca6565b611eb660e0830188611ca6565b611ec4610100830187611ca6565b611ed2610120830186611ca6565b611ee06101408301856119fb565b611eee610160830184611ca6565b9d9c50505050505050505050505050565b600080fd5b600080fd5b7f4e487b7100000000000000000000000000000000000000000000000000000000600052604160045260246000fd5b611f4182611ae6565b810181811067ffffffffffffffff82111715611f6057611f5f611f09565b5b80604052505050565b6000611f73611978565b9050611f7f8282611f38565b919050565b600067ffffffffffffffff821115611f9f57611f9e611f09565b5b611fa882611ae6565b9050602081019050919050565b82818337600083830152505050565b6000611fd7611fd284611f84565b611f69565b905082815260208101848484011115611ff357611ff2611f04565b5b611ffe848285611fb5565b509392505050565b600082601f83011261201b5761201a611eff565b5b813561202b848260208601611fc4565b91505092915050565b6000806000806080858703121561204e5761204d611982565b5b600085013567ffffffffffffffff81111561206c5761206b611987565b5b61207887828801612006565b9450506020612089878288016119ad565b935050604061209a878288016119ad565b92505060606120ab878288016119ad565b91505092959194509250565b6120c081611b50565b81146120cb57600080fd5b50565b6000813590506120dd816120b7565b92915050565b6000602082840312156120f9576120f8611982565b5b6000612107848285016120ce565b91505092915050565b6000819050919050565b61212381612110565b82525050565b600060208201905061213e600083018461211a565b92915050565b7f4d6963726f6772696420646f6573206e6f742065786973740000000000000000600082015250565b600061217a601883611df4565b915061218582612144565b602082019050919050565b600060208201905081810360008301526121a98161216d565b9050919050565b7f4d6963726f67726964206973206e6f7420616374697665000000000000000000600082015250565b60006121e6601783611df4565b91506121f1826121b0565b602082019050919050565b60006020820190508181036000830152612215816121d9565b9050919050565b7f4e487b7100000000000000000000000000000000000000000000000000000000600052601160045260246000fd5b600061225682612110565b915061226183612110565b92508282039050818112600084121682821360008512151617156122885761228761221c565b5b92915050565b7f4e6f7420746865206f776e6572206f662074686973206d6963726f6772696400600082015250565b60006122c4601f83611df4565b91506122cf8261228e565b602082019050919050565b600060208201905081810360008301526122f3816122b7565b9050919050565b7f4e487b7100000000000000000000000000000000000000000000000000000000600052602260045260246000fd5b6000600282049050600182168061234157607f821691505b602082108103612354576123536122fa565b5b50919050565b7f4d6963726f6772696420646f65736e2774206578697374000000000000000000600082015250565b6000612390601783611df4565b915061239b8261235a565b602082019050919050565b600060208201905081810360008301526123bf81612383565b9050919050565b7f4f6e6c7920746865206d61726b6574706c6163652063616e2063616c6c20746860008201527f69732066756e6374696f6e000000000000000000000000000000000000000000602082015250565b6000612422602b83611df4565b915061242d826123c6565b604082019050919050565b6000602082019050818103600083015261245181612415565b9050919050565b7f496e73756666696369656e7420726573657276656420656e6572677900000000600082015250565b600061248e601c83611df4565b915061249982612458565b602082019050919050565b600060208201905081810360008301526124bd81612481565b9050919050565b60006124cf8261198c565b91506124da8361198c565b92508282039050818111156124f2576124f161221c565b5b92915050565b7f42617474657279206c6576656c206d757374206265206265747765656e20302060008201527f616e642031303000000000000000000000000000000000000000000000000000602082015250565b6000612554602783611df4565b915061255f826124f8565b604082019050919050565b6000602082019050818103600083015261258381612547565b9050919050565b7f456e657267792067656e6572617465642065786365656473206d61782063617060008201527f6163697479000000000000000000000000000000000000000000000000000000602082015250565b60006125e6602583611df4565b91506125f18261258a565b604082019050919050565b60006020820190508181036000830152612615816125d9565b9050919050565b7f456e657267792064656d616e642065786365656473206d61782063617061636960008201527f7479000000000000000000000000000000000000000000000000000000000000602082015250565b6000612678602283611df4565b91506126838261261c565b604082019050919050565b600060208201905081810360008301526126a78161266b565b9050919050565b60006080820190506126c36000830187611ca6565b6126d06020830186611ca6565b6126dd6040830185611ca6565b6126ea6060830184611ca6565b95945050505050565b7f4d6178206361706163697479206d75737420626520677265617465722074686160008201527f6e207a65726f0000000000000000000000000000000000000000000000000000602082015250565b600061274f602683611df4565b915061275a826126f3565b604082019050919050565b6000602082019050818103600083015261277e81612742565b9050919050565b7f4d6963726f6772696420616c7265616479207265676973746572656420666f7260008201527f2074686973206f776e6572000000000000000000000000000000000000000000602082015250565b60006127e1602b83611df4565b91506127ec82612785565b604082019050919050565b60006020820190508181036000830152612810816127d4565b9050919050565b60006128228261198c565b91507fffffffffffffffffffffffffffffffffffffffffffffffffffffffffffffffff82036128545761285361221c565b5b600182019050919050565b60008190508160005260206000209050919050565b60006020601f8301049050919050565b600082821b905092915050565b6000600883026128c17fffffffffffffffffffffffffffffffffffffffffffffffffffffffffffffffff82612884565b6128cb8683612884565b95508019841693508086168417925050509392505050565b6000819050919050565b60006129086129036128fe8461198c565b6128e3565b61198c565b9050919050565b6000819050919050565b612922836128ed565b61293661292e8261290f565b848454612891565b825550505050565b600090565b61294b61293e565b612956818484612919565b505050565b5b8181101561297a5761296f600082612943565b60018101905061295c565b5050565b601f8211156129bf576129908161285f565b61299984612874565b810160208510156129a8578190505b6129bc6129b485612874565b83018261295b565b50505b505050565b600082821c905092915050565b60006129e2600019846008026129c4565b1980831691505092915050565b60006129fb83836129d1565b9150826002028217905092915050565b612a1482611aa0565b67ffffffffffffffff811115612a2d57612a2c611f09565b5b612a378254612329565b612a4282828561297e565b600060209050601f831160018114612a755760008415612a63578287015190505b612a6d85826129ef565b865550612ad5565b601f198416612a838661285f565b60005b82811015612aab57848901518255600182019150602085019450602081019050612a86565b86831015612ac85784890151612ac4601f8916826129d1565b8355505b6001600288020188555050505b505050505050565b60006060820190508181036000830152612af78186611e05565b9050612b066020830185611ca6565b612b136040830184611ca6565b949350505050565b7f4d61726b6574706c616365206164647265737320616c72656164792073657400600082015250565b6000612b51601f83611df4565b9150612b5c82612b1b565b602082019050919050565b60006020820190508181036000830152612b8081612b44565b9050919050565b6000612b928261198c565b9150612b9d8361198c565b9250828201905080821115612bb557612bb461221c565b5b9291505056fea2646970667358221220faf3478fbad31a36067b1fd23bf6141a2399ce434172d197bf36407fbf169a6d64736f6c634300081c0033",
  "linkReferences": {},
  "deployedLinkReferences": {}
}