{
  "_format": "hh-sol-artifact-1",
  "contractName": "PricingLibrary",
  "sourceName": "contracts/PricingLibrary.sol",
  "abi": [
    {
      "inputs": [
        {
          "internalType": "uint256",
          "name": "_price",
          "type": "uint256"
        },
        {
          "internalType": "uint256",
          "name": "_amt",
          "type": "uint256"
        }
      ],
      "name": "calculateCost",
      "outputs": [
        {
          "internalType": "uint256",
          "name": "",
          "type": "uint256"
        }
      ],
      "stateMutability": "pure",
      "type": "function"
    },
    {
      "inputs": [
        {
          "internalType": "uint256",
          "name": "generation",
          "type": "uint256"
        },
        {
          "internalType": "uint256",
          "name": "demand",
          "type": "uint256"
        },
        {
          "internalType": "uint256",
          "name": "batteryLevel",
          "type": "uint256"
        },
        {
          "internalType": "uint256",
          "name": "maxCapacity",
          "type": "uint256"
        },
        {
          "internalType": "uint256",
          "name": "reservedEnergy",
          "type": "uint256"
        }
      ],
      "name": "calculatePrice",
      "outputs": [
        {
          "internalType": "uint256",
          "name": "",
          "type": "uint256"
        }
      ],
      "stateMutability": "pure",
      "type": "function"
    }
  ],
  "bytecode": "0x610668610052600b82828239805160001a6073146045577f4e487b7100000000000000000000000000000000000000000000000000000000600052600060045260246000fd5b30600052607381538281f3fe73000000000000000000000000000000000000000030146080604052600436106100405760003560e01c8063207ad9ce14610045578063ce39469614610075575b600080fd5b61005f600480360381019061005a9190610299565b6100a5565b60405161006c9190610323565b60405180910390f35b61008f600480360381019061008a919061033e565b610206565b60405161009c9190610323565b60405180910390f35b600080600a905060008387896100bb91906103b7565b6100c591906103b7565b90506000856064836100d791906103fa565b6100e191906104a1565b9050604681126100ff576002836100f8919061050b565b9250610166565b6028811261011b57600183610114919061050b565b9250610165565b6014811261013757600083610130919061053f565b9250610164565b600081126101535760028361014c919061053f565b9250610163565b600483610160919061053f565b92505b5b5b5b605087106101825760028361017b919061050b565b92506101e9565b603c871061019e57600183610197919061050b565b92506101e8565b602887106101ba576000836101b3919061053f565b92506101e7565b601487106101d6576002836101cf919061053f565b92506101e6565b6004836101e3919061053f565b92505b5b5b5b60018310156101f757600192505b82935050505095945050505050565b600080821161024a576040517f08c379a0000000000000000000000000000000000000000000000000000000008152600401610241906105d0565b60405180910390fd5b828261025691906105f0565b905092915050565b600080fd5b6000819050919050565b61027681610263565b811461028157600080fd5b50565b6000813590506102938161026d565b92915050565b600080600080600060a086880312156102b5576102b461025e565b5b60006102c388828901610284565b95505060206102d488828901610284565b94505060406102e588828901610284565b93505060606102f688828901610284565b925050608061030788828901610284565b9150509295509295909350565b61031d81610263565b82525050565b60006020820190506103386000830184610314565b92915050565b600080604083850312156103555761035461025e565b5b600061036385828601610284565b925050602061037485828601610284565b9150509250929050565b6000819050919050565b7f4e487b7100000000000000000000000000000000000000000000000000000000600052601160045260246000fd5b60006103c28261037e565b91506103cd8361037e565b92508282039050818112600084121682821360008512151617156103f4576103f3610388565b5b92915050565b60006104058261037e565b91506104108361037e565b925082820261041e8161037e565b91507f8000000000000000000000000000000000000000000000000000000000000000841460008412161561045657610455610388565b5b828205841483151761046b5761046a610388565b5b5092915050565b7f4e487b7100000000000000000000000000000000000000000000000000000000600052601260045260246000fd5b60006104ac8261037e565b91506104b78361037e565b9250826104c7576104c6610472565b5b600160000383147f800000000000000000000000000000000000000000000000000000000000000083141615610500576104ff610388565b5b828205905092915050565b600061051682610263565b915061052183610263565b925082820390508181111561053957610538610388565b5b92915050565b600061054a82610263565b915061055583610263565b925082820190508082111561056d5761056c610388565b5b92915050565b600082825260208201905092915050565b7f416d6f756e74206d7573742062652067726561746572207468616e2030000000600082015250565b60006105ba601d83610573565b91506105c582610584565b602082019050919050565b600060208201905081810360008301526105e9816105ad565b9050919050565b60006105fb82610263565b915061060683610263565b925082820261061481610263565b9150828204841483151761062b5761062a610388565b5b509291505056fea2646970667358221220eaa04555a3c5786953304147ecebc1abb1a36b6b7d9a9bdc5713dfec37fca92564736f6c634300081c0033",
  "linkReferences": {},
  "deployedLinkReferences": {}
}