{
  "_format": "hh-sol-artifact-1",
  "contractName": "Marketplace",
  "sourceName": "contracts/Marketplace.sol",
  "abi": [
    {
      "inputs": [
        {
          "internalType": "address",
          "name": "_energyTokenAddress",
          "type": "address"
        },
        {
          "internalType": "address",
          "name": "_registryAddress",
          "type": "address"
        }
      ],
      "stateMutability": "nonpayable",
      "type": "constructor"
    },
    {
      "anonymous": false,
      "inputs": [
        {
          "indexed": true,
          "internalType": "uint256",
          "name": "offerId",
          "type": "uint256"
        },
        {
          "indexed": false,
          "internalType": "uint256",
          "name": "energyBought",
          "type": "uint256"
        },
        {
          "indexed": true,
          "internalType": "address",
          "name": "buyer",
          "type": "address"
        },
        {
          "indexed": false,
          "internalType": "uint256",
          "name": "totalCost",
          "type": "uint256"
        }
      ],
      "name": "EnergyPurchased",
      "type": "event"
    },
    {
      "anonymous": false,
      "inputs": [
        {
          "indexed": true,
          "internalType": "uint256",
          "name": "offerId",
          "type": "uint256"
        },
        {
          "indexed": true,
          "internalType": "address",
          "name": "seller",
          "type": "address"
        }
      ],
      "name": "OfferCancelled",
      "type": "event"
    },
    {
      "anonymous": false,
      "inputs": [
        {
          "indexed": true,
          "internalType": "uint256",
          "name": "offerId",
          "type": "uint256"
        },
        {
          "indexed": true,
          "internalType": "uint256",
          "name": "microgridId",
          "type": "uint256"
        },
        {
          "indexed": false,
          "internalType": "uint256",
          "name": "totalEnergy",
          "type": "uint256"
        },
        {
          "indexed": false,
          "internalType": "uint256",
          "name": "suggestedPrice",
          "type": "uint256"
        },
        {
          "indexed": false,
          "internalType": "uint256",
          "name": "sellingPrice",
          "type": "uint256"
        },
        {
          "indexed": true,
          "internalType": "address",
          "name": "seller",
          "type": "address"
        }
      ],
      "name": "OfferCreated",
      "type": "event"
    },
    {
      "anonymous": false,
      "inputs": [
        {
          "indexed": true,
          "internalType": "uint256",
          "name": "offerId",
          "type": "uint256"
        },
        {
          "indexed": false,
          "internalType": "enum Marketplace.OfferStatus",
          "name": "newStatus",
          "type": "uint8"
        }
      ],
      "name": "OfferStatusUpdated",
      "type": "event"
    },
    {
      "inputs": [
        {
          "internalType": "uint256",
          "name": "",
          "type": "uint256"
        }
      ],
      "name": "activeOfferCount",
      "outputs": [
        {
          "internalType": "uint256",
          "name": "",
          "type": "uint256"
        }
      ],
      "stateMutability": "view",
      "type": "function"
    },
    {
      "inputs": [
        {
          "internalType": "uint256",
          "name": "_offerId",
          "type": "uint256"
        },
        {
          "internalType": "uint256",
          "name": "_amt",
          "type": "uint256"
        }
      ],
      "name": "buyEnergy",
      "outputs": [],
      "stateMutability": "nonpayable",
      "type": "function"
    },
    {
      "inputs": [
        {
          "internalType": "uint256",
          "name": "_offerId",
          "type": "uint256"
        }
      ],
      "name": "cancelOffer",
      "outputs": [],
      "stateMutability": "nonpayable",
      "type": "function"
    },
    {
      "inputs": [
        {
          "internalType": "uint256",
          "name": "_microgridId",
          "type": "uint256"
        },
        {
          "internalType": "uint256",
          "name": "_energyAmount",
          "type": "uint256"
        },
        {
          "internalType": "uint256",
          "name": "_pricePerUnit",
          "type": "uint256"
        }
      ],
      "name": "createOffer",
      "outputs": [],
      "stateMutability": "nonpayable",
      "type": "function"
    },
    {
      "inputs": [],
      "name": "energyToken",
      "outputs": [
        {
          "internalType": "contract IEnergyToken",
          "name": "",
          "type": "address"
        }
      ],
      "stateMutability": "view",
      "type": "function"
    },
    {
      "inputs": [
        {
          "internalType": "uint256",
          "name": "_offerId",
          "type": "uint256"
        }
      ],
      "name": "expireOffer",
      "outputs": [],
      "stateMutability": "nonpayable",
      "type": "function"
    },
    {
      "inputs": [
        {
          "internalType": "uint256",
          "name": "_microgridId",
          "type": "uint256"
        }
      ],
      "name": "getMicrogridOffers",
      "outputs": [
        {
          "internalType": "uint256[]",
          "name": "",
          "type": "uint256[]"
        }
      ],
      "stateMutability": "view",
      "type": "function"
    },
    {
      "inputs": [
        {
          "internalType": "uint256",
          "name": "_offerId",
          "type": "uint256"
        }
      ],
      "name": "getOffer",
      "outputs": [
        {
          "components": [
            {
              "internalType": "uint256",
              "name": "offerId",
              "type": "uint256"
            },
            {
              "internalType": "uint256",
              "name": "microgridId",
              "type": "uint256"
            },
            {
              "internalType": "uint256",
              "name": "totalEnergy",
              "type": "uint256"
            },
            {
              "internalType": "uint256",
              "name": "remainingEnergy",
              "type": "uint256"
            },
            {
              "internalType": "uint256",
              "name": "soldEnergy",
              "type": "uint256"
            },
            {
              "internalType": "uint256",
              "name": "suggestedPrice",
              "type": "uint256"
            },
            {
              "internalType": "uint256",
              "name": "sellingPrice",
              "type": "uint256"
            },
            {
              "internalType": "address",
              "name": "seller",
              "type": "address"
            },
            {
              "internalType": "uint256",
              "name": "createdAt",
              "type": "uint256"
            },
            {
              "internalType": "uint256",
              "name": "updatedAt",
              "type": "uint256"
            },
            {
              "internalType": "uint256",
              "name": "expiresAt",
              "type": "uint256"
            },
            {
              "internalType": "enum Marketplace.OfferStatus",
              "name": "status",
              "type": "uint8"
            }
          ],
          "internalType": "struct Marketplace.Offer",
          "name": "",
          "type": "tuple"
        }
      ],
      "stateMutability": "view",
      "type": "function"
    },
    {
      "inputs": [],
      "name": "getOfferCount",
      "outputs": [
        {
          "internalType": "uint256",
          "name": "",
          "type": "uint256"
        }
      ],
      "stateMutability": "view",
      "type": "function"
    },
    {
      "inputs": [
        {
          "internalType": "address",
          "name": "_seller",
          "type": "address"
        }
      ],
      "name": "getSellerOffers",
      "outputs": [
        {
          "internalType": "uint256[]",
          "name": "",
          "type": "uint256[]"
        }
      ],
      "stateMutability": "view",
      "type": "function"
    },
    {
      "inputs": [
        {
          "internalType": "uint256",
          "name": "_offerId",
          "type": "uint256"
        }
      ],
      "name": "isOfferOpen",
      "outputs": [
        {
          "internalType": "bool",
          "name": "",
          "type": "bool"
        }
      ],
      "stateMutability": "view",
      "type": "function"
    },
    {
      "inputs": [
        {
          "internalType": "uint256",
          "name": "",
          "type": "uint256"
        },
        {
          "internalType": "uint256",
          "name": "",
          "type": "uint256"
        }
      ],
      "name": "microgridOffers",
      "outputs": [
        {
          "internalType": "uint256",
          "name": "",
          "type": "uint256"
        }
      ],
      "stateMutability": "view",
      "type": "function"
    },
    {
      "inputs": [],
      "name": "nextOfferId",
      "outputs": [
        {
          "internalType": "uint256",
          "name": "",
          "type": "uint256"
        }
      ],
      "stateMutability": "view",
      "type": "function"
    },
    {
      "inputs": [
        {
          "internalType": "uint256",
          "name": "",
          "type": "uint256"
        }
      ],
      "name": "offers",
      "outputs": [
        {
          "internalType": "uint256",
          "name": "offerId",
          "type": "uint256"
        },
        {
          "internalType": "uint256",
          "name": "microgridId",
          "type": "uint256"
        },
        {
          "internalType": "uint256",
          "name": "totalEnergy",
          "type": "uint256"
        },
        {
          "internalType": "uint256",
          "name": "remainingEnergy",
          "type": "uint256"
        },
        {
          "internalType": "uint256",
          "name": "soldEnergy",
          "type": "uint256"
        },
        {
          "internalType": "uint256",
          "name": "suggestedPrice",
          "type": "uint256"
        },
        {
          "internalType": "uint256",
          "name": "sellingPrice",
          "type": "uint256"
        },
        {
          "internalType": "address",
          "name": "seller",
          "type": "address"
        },
        {
          "internalType": "uint256",
          "name": "createdAt",
          "type": "uint256"
        },
        {
          "internalType": "uint256",
          "name": "updatedAt",
          "type": "uint256"
        },
        {
          "internalType": "uint256",
          "name": "expiresAt",
          "type": "uint256"
        },
        {
          "internalType": "enum Marketplace.OfferStatus",
          "name": "status",
          "type": "uint8"
        }
      ],
      "stateMutability": "view",
      "type": "function"
    },
    {
      "inputs": [],
      "name": "registry",
      "outputs": [
        {
          "internalType": "contract IMicrogridRegistry",
          "name": "",
          "type": "address"
        }
      ],
      "stateMutability": "view",
      "type": "function"
    },
    {
      "inputs": [
        {
          "internalType": "address",
          "name": "",
          "type": "address"
        },
        {
          "internalType": "uint256",
          "name": "",
          "type": "uint256"
        }
      ],
      "name": "sellerOffers",
      "outputs": [
        {
          "internalType": "uint256",
          "name": "",
          "type": "uint256"
        }
      ],
      "stateMutability": "view",
      "type": "function"
    }
  ],
  "bytecode": "0x608060405234801561001057600080fd5b506040516132093803806132098339818101604052810190610032919061011d565b816000806101000a81548173ffffffffffffffffffffffffffffffffffffffff021916908373ffffffffffffffffffffffffffffffffffffffff16021790555080600160006101000a81548173ffffffffffffffffffffffffffffffffffffffff021916908373ffffffffffffffffffffffffffffffffffffffff160217905550505061015d565b600080fd5b600073ffffffffffffffffffffffffffffffffffffffff82169050919050565b60006100ea826100bf565b9050919050565b6100fa816100df565b811461010557600080fd5b50565b600081519050610117816100f1565b92915050565b60008060408385031215610134576101336100ba565b5b600061014285828601610108565b925050602061015385828601610108565b9150509250929050565b61309d8061016c6000396000f3fe608060405234801561001057600080fd5b50600436106101005760003560e01c80637e930a5c11610097578063d048db3711610066578063d048db3714610306578063dc35a90014610324578063ef706adf14610340578063f10b16061461035c57610100565b80637e930a5c1461024f5780638a72ea6a1461027f578063bc8859b8146102ba578063cdb6d52d146102ea57610100565b80635f5d0655116100d35780635f5d0655146101b357806371658853146101d157806373868d73146102015780637b1039991461023157610100565b80630f20337d146101055780632bce352a146101355780634579268a146101655780634ec7fb8114610195575b600080fd5b61011f600480360381019061011a9190611cf7565b610378565b60405161012c9190611d46565b60405180910390f35b61014f600480360381019061014a9190611dbf565b6103a9565b60405161015c9190611eaa565b60405180910390f35b61017f600480360381019061017a9190611ecc565b610440565b60405161018c9190612075565b60405180910390f35b61019d6105a7565b6040516101aa91906120f0565b60405180910390f35b6101bb6105cb565b6040516101c89190611d46565b60405180910390f35b6101eb60048036038101906101e69190611ecc565b6105d1565b6040516101f89190611d46565b60405180910390f35b61021b60048036038101906102169190611ecc565b6105e9565b6040516102289190612126565b60405180910390f35b610239610671565b6040516102469190612162565b60405180910390f35b6102696004803603810190610264919061217d565b610697565b6040516102769190611d46565b60405180910390f35b61029960048036038101906102949190611ecc565b6106c8565b6040516102b19c9b9a999897969594939291906121db565b60405180910390f35b6102d460048036038101906102cf9190611ecc565b610755565b6040516102e19190611eaa565b60405180910390f35b61030460048036038101906102ff9190611cf7565b6107c0565b005b61030e610f0b565b60405161031b9190611d46565b60405180910390f35b61033e60048036038101906103399190612295565b610f15565b005b61035a60048036038101906103559190611ecc565b6116f9565b005b61037660048036038101906103719190611ecc565b611837565b005b6004602052816000526040600020818154811061039457600080fd5b90600052602060002001600091509150505481565b6060600560008373ffffffffffffffffffffffffffffffffffffffff1673ffffffffffffffffffffffffffffffffffffffff16815260200190815260200160002080548060200260200160405190810160405280929190818152602001828054801561043457602002820191906000526020600020905b815481526020019060010190808311610420575b50505050509050919050565b610448611c33565b600254821061048c576040517f08c379a000000000000000000000000000000000000000000000000000000000815260040161048390612345565b60405180910390fd5b6003600083815260200190815260200160002060405180610180016040529081600082015481526020016001820154815260200160028201548152602001600382015481526020016004820154815260200160058201548152602001600682015481526020016007820160009054906101000a900473ffffffffffffffffffffffffffffffffffffffff1673ffffffffffffffffffffffffffffffffffffffff1673ffffffffffffffffffffffffffffffffffffffff1681526020016008820154815260200160098201548152602001600a8201548152602001600b820160009054906101000a900460ff16600481111561058a57610589611f08565b5b600481111561059c5761059b611f08565b5b815250509050919050565b60008054906101000a900473ffffffffffffffffffffffffffffffffffffffff1681565b60025481565b60066020528060005260406000206000915090505481565b60008060036000848152602001908152602001600020600b0160009054906101000a900460ff1690506000600481111561062657610625611f08565b5b81600481111561063957610638611f08565b5b148061066957506001600481111561065457610653611f08565b5b81600481111561066757610666611f08565b5b145b915050919050565b600160009054906101000a900473ffffffffffffffffffffffffffffffffffffffff1681565b600560205281600052604060002081815481106106b357600080fd5b90600052602060002001600091509150505481565b60036020528060005260406000206000915090508060000154908060010154908060020154908060030154908060040154908060050154908060060154908060070160009054906101000a900473ffffffffffffffffffffffffffffffffffffffff169080600801549080600901549080600a01549080600b0160009054906101000a900460ff1690508c565b6060600460008381526020019081526020016000208054806020026020016040519081016040528092919081815260200182805480156107b457602002820191906000526020600020905b8154815260200190600101908083116107a0575b50505050509050919050565b816002548110610805576040517f08c379a00000000000000000000000000000000000000000000000000000000081526004016107fc90612345565b60405180910390fd5b600060036000858152602001908152602001600020905080600a015442106108365761083084611837565b50610f06565b61083f846105e9565b61087e576040517f08c379a0000000000000000000000000000000000000000000000000000000008152600401610875906123b1565b60405180910390fd5b8060070160009054906101000a900473ffffffffffffffffffffffffffffffffffffffff1673ffffffffffffffffffffffffffffffffffffffff163373ffffffffffffffffffffffffffffffffffffffff1603610910576040517f08c379a000000000000000000000000000000000000000000000000000000000815260040161090790612443565b60405180910390fd5b60008311610953576040517f08c379a000000000000000000000000000000000000000000000000000000000815260040161094a906124af565b60405180910390fd5b828160030154101561099a576040517f08c379a000000000000000000000000000000000000000000000000000000000815260040161099190612541565b60405180910390fd5b60006109aa8260060154856118f3565b90508060008054906101000a900473ffffffffffffffffffffffffffffffffffffffff1673ffffffffffffffffffffffffffffffffffffffff166370a08231336040518263ffffffff1660e01b8152600401610a069190612561565b602060405180830381865afa158015610a23573d6000803e3d6000fd5b505050506040513d601f19601f82011682018060405250810190610a479190612591565b1015610a88576040517f08c379a0000000000000000000000000000000000000000000000000000000008152600401610a7f9061260a565b60405180910390fd5b8060008054906101000a900473ffffffffffffffffffffffffffffffffffffffff1673ffffffffffffffffffffffffffffffffffffffff1663dd62ed3e33306040518363ffffffff1660e01b8152600401610ae492919061262a565b602060405180830381865afa158015610b01573d6000803e3d6000fd5b505050506040513d601f19601f82011682018060405250810190610b259190612591565b1015610b66576040517f08c379a0000000000000000000000000000000000000000000000000000000008152600401610b5d906126c5565b60405180910390fd5b60008054906101000a900473ffffffffffffffffffffffffffffffffffffffff1673ffffffffffffffffffffffffffffffffffffffff166323b872dd338460070160009054906101000a900473ffffffffffffffffffffffffffffffffffffffff16846040518463ffffffff1660e01b8152600401610be7939291906126e5565b6020604051808303816000875af1158015610c06573d6000803e3d6000fd5b505050506040513d601f19601f82011682018060405250810190610c2a9190612748565b610c69576040517f08c379a0000000000000000000000000000000000000000000000000000000008152600401610c60906127c1565b60405180910390fd5b83826003016000828254610c7d9190612810565b9250508190555083826004016000828254610c989190612844565b92505081905550600160009054906101000a900473ffffffffffffffffffffffffffffffffffffffff1673ffffffffffffffffffffffffffffffffffffffff166361f2d09f8360010154866040518363ffffffff1660e01b8152600401610d00929190612878565b600060405180830381600087803b158015610d1a57600080fd5b505af1158015610d2e573d6000803e3d6000fd5b50505050600160009054906101000a900473ffffffffffffffffffffffffffffffffffffffff1673ffffffffffffffffffffffffffffffffffffffff166392672828836001015433876040518463ffffffff1660e01b8152600401610d95939291906128a1565b600060405180830381600087803b158015610daf57600080fd5b505af1158015610dc3573d6000803e3d6000fd5b505050504282600901819055506000826003015403610e3b5760066000836001015481526020019081526020016000206000815480929190610e04906128d8565b9190505550600282600b0160006101000a81548160ff02191690836004811115610e3157610e30611f08565b5b0217905550610e69565b600182600b0160006101000a81548160ff02191690836004811115610e6357610e62611f08565b5b02179055505b847f2e74881a6c74723c41779bc20d0aa57148f87d6cd03977e71379655e32e2711683600b0160009054906101000a900460ff16604051610eaa9190612901565b60405180910390a23373ffffffffffffffffffffffffffffffffffffffff16857f76e4b739eb0c5c67926a4c7392010f3efe3bcf51d1c06b947264bb78b785630f8684604051610efb929190612878565b60405180910390a350505b505050565b6000600254905090565b60008211610f58576040517f08c379a0000000000000000000000000000000000000000000000000000000008152600401610f4f9061298e565b60405180910390fd5b60008111610f9b576040517f08c379a0000000000000000000000000000000000000000000000000000000008152600401610f9290612a20565b60405180910390fd5b3373ffffffffffffffffffffffffffffffffffffffff16600160009054906101000a900473ffffffffffffffffffffffffffffffffffffffff1673ffffffffffffffffffffffffffffffffffffffff1663c41a360a856040518263ffffffff1660e01b815260040161100d9190611d46565b602060405180830381865afa15801561102a573d6000803e3d6000fd5b505050506040513d601f19601f8201168201806040525081019061104e9190612a55565b73ffffffffffffffffffffffffffffffffffffffff16146110a4576040517f08c379a000000000000000000000000000000000000000000000000000000000815260040161109b90612ace565b60405180910390fd5b600160009054906101000a900473ffffffffffffffffffffffffffffffffffffffff1673ffffffffffffffffffffffffffffffffffffffff16631c334a7e846040518263ffffffff1660e01b81526004016110ff9190611d46565b602060405180830381865afa15801561111c573d6000803e3d6000fd5b505050506040513d601f19601f820116820180604052508101906111409190612748565b61117f576040517f08c379a000000000000000000000000000000000000000000000000000000000815260040161117690612b3a565b60405180910390fd5b81600160009054906101000a900473ffffffffffffffffffffffffffffffffffffffff1673ffffffffffffffffffffffffffffffffffffffff166347846fd9856040518263ffffffff1660e01b81526004016111db9190611d46565b602060405180830381865afa1580156111f8573d6000803e3d6000fd5b505050506040513d601f19601f8201168201806040525081019061121c9190612591565b101561125d576040517f08c379a000000000000000000000000000000000000000000000000000000000815260040161125490612bcc565b60405180910390fd5b60006002600081548092919061127290612bec565b9190505590506000806000806000600160009054906101000a900473ffffffffffffffffffffffffffffffffffffffff1673ffffffffffffffffffffffffffffffffffffffff16634fa4c02d8a6040518263ffffffff1660e01b81526004016112db9190611d46565b60a060405180830381865afa1580156112f8573d6000803e3d6000fd5b505050506040513d601f19601f8201168201806040525081019061131c9190612c34565b945094509450945094506000611335868686868661194b565b9050600060646050836113489190612caf565b6113529190612d20565b9050600060646078846113659190612caf565b61136f9190612d20565b9050818a101580156113815750808a11155b6113c0576040517f08c379a00000000000000000000000000000000000000000000000000000000081526004016113b790612d9d565b60405180910390fd5b600160009054906101000a900473ffffffffffffffffffffffffffffffffffffffff1673ffffffffffffffffffffffffffffffffffffffff1663d3e0bada8d8d6040518363ffffffff1660e01b815260040161141d929190612878565b600060405180830381600087803b15801561143757600080fd5b505af115801561144b573d6000803e3d6000fd5b505050506040518061018001604052808a81526020018d81526020018c81526020018c8152602001600081526020018481526020018b81526020013373ffffffffffffffffffffffffffffffffffffffff16815260200142815260200142815260200162015180426114bd9190612844565b8152602001600060048111156114d6576114d5611f08565b5b815250600360008b8152602001908152602001600020600082015181600001556020820151816001015560408201518160020155606082015181600301556080820151816004015560a0820151816005015560c0820151816006015560e08201518160070160006101000a81548173ffffffffffffffffffffffffffffffffffffffff021916908373ffffffffffffffffffffffffffffffffffffffff1602179055506101008201518160080155610120820151816009015561014082015181600a015561016082015181600b0160006101000a81548160ff021916908360048111156115c6576115c5611f08565b5b0217905550905050600460008d8152602001908152602001600020899080600181540180825580915050600190039060005260206000200160009091909190915055600560003373ffffffffffffffffffffffffffffffffffffffff1673ffffffffffffffffffffffffffffffffffffffff168152602001908152602001600020899080600181540180825580915050600190039060005260206000200160009091909190915055600660008d8152602001908152602001600020600081548092919061169290612bec565b91905055503373ffffffffffffffffffffffffffffffffffffffff168c8a7f55b8d19e468503ecc8f7d6a2611f03f249440d3d2401ff1ff15a474ee7cbee748e878f6040516116e393929190612dbd565b60405180910390a4505050505050505050505050565b80600254811061173e576040517f08c379a000000000000000000000000000000000000000000000000000000000815260040161173590612345565b60405180910390fd5b813373ffffffffffffffffffffffffffffffffffffffff166003600083815260200190815260200160002060070160009054906101000a900473ffffffffffffffffffffffffffffffffffffffff1673ffffffffffffffffffffffffffffffffffffffff16146117e3576040517f08c379a00000000000000000000000000000000000000000000000000000000081526004016117da90612e40565b60405180910390fd5b6117ee836003611a86565b3373ffffffffffffffffffffffffffffffffffffffff16837f1f51377b3e685a0e2419f9bb4ba7c07ec54936353ba3d0fb3c6538dab676622260405160405180910390a3505050565b80600254811061187c576040517f08c379a000000000000000000000000000000000000000000000000000000000815260040161187390612345565b60405180910390fd5b4260036000848152602001908152602001600020600a015411156118d5576040517f08c379a00000000000000000000000000000000000000000000000000000000081526004016118cc90612eac565b60405180910390fd5b6118de826105e9565b156118ef576118ee826004611a86565b5b5050565b6000808211611937576040517f08c379a000000000000000000000000000000000000000000000000000000000815260040161192e906124af565b60405180910390fd5b82826119439190612caf565b905092915050565b600080600a905060008387896119619190612ed6565b61196b9190612ed6565b905060008560648361197d9190612f19565b6119879190612f91565b9050604681126119a55760028361199e9190612810565b92506119f9565b602881126119c1576001836119ba9190612810565b92506119f8565b60148112156119f757600081126119e6576002836119df9190612844565b92506119f6565b6004836119f39190612844565b92505b5b5b5b60508710611a1557600283611a0e9190612810565b9250611a69565b603c8710611a3157600183611a2a9190612810565b9250611a68565b6028871015611a675760148710611a5657600283611a4f9190612844565b9250611a66565b600483611a639190612844565b92505b5b5b5b6001831015611a7757600192505b82935050505095945050505050565b6000600360008481526020019081526020016000209050611aa6836105e9565b611ae5576040517f08c379a0000000000000000000000000000000000000000000000000000000008152600401611adc90613047565b60405180910390fd5b600081600301541115611b8a57600160009054906101000a900473ffffffffffffffffffffffffffffffffffffffff1673ffffffffffffffffffffffffffffffffffffffff166361f2d09f826001015483600301546040518363ffffffff1660e01b8152600401611b57929190612878565b600060405180830381600087803b158015611b7157600080fd5b505af1158015611b85573d6000803e3d6000fd5b505050505b600081600301819055508181600b0160006101000a81548160ff02191690836004811115611bbb57611bba611f08565b5b021790555042816009018190555060066000826001015481526020019081526020016000206000815480929190611bf1906128d8565b9190505550827f2e74881a6c74723c41779bc20d0aa57148f87d6cd03977e71379655e32e2711683604051611c269190612901565b60405180910390a2505050565b60405180610180016040528060008152602001600081526020016000815260200160008152602001600081526020016000815260200160008152602001600073ffffffffffffffffffffffffffffffffffffffff16815260200160008152602001600081526020016000815260200160006004811115611cb657611cb5611f08565b5b81525090565b600080fd5b6000819050919050565b611cd481611cc1565b8114611cdf57600080fd5b50565b600081359050611cf181611ccb565b92915050565b60008060408385031215611d0e57611d0d611cbc565b5b6000611d1c85828601611ce2565b9250506020611d2d85828601611ce2565b9150509250929050565b611d4081611cc1565b82525050565b6000602082019050611d5b6000830184611d37565b92915050565b600073ffffffffffffffffffffffffffffffffffffffff82169050919050565b6000611d8c82611d61565b9050919050565b611d9c81611d81565b8114611da757600080fd5b50565b600081359050611db981611d93565b92915050565b600060208284031215611dd557611dd4611cbc565b5b6000611de384828501611daa565b91505092915050565b600081519050919050565b600082825260208201905092915050565b6000819050602082019050919050565b611e2181611cc1565b82525050565b6000611e338383611e18565b60208301905092915050565b6000602082019050919050565b6000611e5782611dec565b611e618185611df7565b9350611e6c83611e08565b8060005b83811015611e9d578151611e848882611e27565b9750611e8f83611e3f565b925050600181019050611e70565b5085935050505092915050565b60006020820190508181036000830152611ec48184611e4c565b905092915050565b600060208284031215611ee257611ee1611cbc565b5b6000611ef084828501611ce2565b91505092915050565b611f0281611d81565b82525050565b7f4e487b7100000000000000000000000000000000000000000000000000000000600052602160045260246000fd5b60058110611f4857611f47611f08565b5b50565b6000819050611f5982611f37565b919050565b6000611f6982611f4b565b9050919050565b611f7981611f5e565b82525050565b61018082016000820151611f966000850182611e18565b506020820151611fa96020850182611e18565b506040820151611fbc6040850182611e18565b506060820151611fcf6060850182611e18565b506080820151611fe26080850182611e18565b5060a0820151611ff560a0850182611e18565b5060c082015161200860c0850182611e18565b5060e082015161201b60e0850182611ef9565b50610100820151612030610100850182611e18565b50610120820151612045610120850182611e18565b5061014082015161205a610140850182611e18565b5061016082015161206f610160850182611f70565b50505050565b60006101808201905061208b6000830184611f7f565b92915050565b6000819050919050565b60006120b66120b16120ac84611d61565b612091565b611d61565b9050919050565b60006120c88261209b565b9050919050565b60006120da826120bd565b9050919050565b6120ea816120cf565b82525050565b600060208201905061210560008301846120e1565b92915050565b60008115159050919050565b6121208161210b565b82525050565b600060208201905061213b6000830184612117565b92915050565b600061214c826120bd565b9050919050565b61215c81612141565b82525050565b60006020820190506121776000830184612153565b92915050565b6000806040838503121561219457612193611cbc565b5b60006121a285828601611daa565b92505060206121b385828601611ce2565b9150509250929050565b6121c681611d81565b82525050565b6121d581611f5e565b82525050565b6000610180820190506121f1600083018f611d37565b6121fe602083018e611d37565b61220b604083018d611d37565b612218606083018c611d37565b612225608083018b611d37565b61223260a083018a611d37565b61223f60c0830189611d37565b61224c60e08301886121bd565b61225a610100830187611d37565b612268610120830186611d37565b612276610140830185611d37565b6122846101608301846121cc565b9d9c50505050505050505050505050565b6000806000606084860312156122ae576122ad611cbc565b5b60006122bc86828701611ce2565b93505060206122cd86828701611ce2565b92505060406122de86828701611ce2565b9150509250925092565b600082825260208201905092915050565b7f4f6666657220646f6573206e6f74206578697374000000000000000000000000600082015250565b600061232f6014836122e8565b915061233a826122f9565b602082019050919050565b6000602082019050818103600083015261235e81612322565b9050919050565b7f4f666665722069736e2774206f70656e00000000000000000000000000000000600082015250565b600061239b6010836122e8565b91506123a682612365565b602082019050919050565b600060208201905081810360008301526123ca8161238e565b9050919050565b7f53656c6c65722063616e6e6f7420627579207468656972206f776e20656e657260008201527f6779000000000000000000000000000000000000000000000000000000000000602082015250565b600061242d6022836122e8565b9150612438826123d1565b604082019050919050565b6000602082019050818103600083015261245c81612420565b9050919050565b7f416d6f756e74206d7573742062652067726561746572207468616e2030000000600082015250565b6000612499601d836122e8565b91506124a482612463565b602082019050919050565b600060208201905081810360008301526124c88161248c565b9050919050565b7f4e6f7420656e6f75676820656e6572677920617661696c61626c6520696e207460008201527f6865206f66666572000000000000000000000000000000000000000000000000602082015250565b600061252b6028836122e8565b9150612536826124cf565b604082019050919050565b6000602082019050818103600083015261255a8161251e565b9050919050565b600060208201905061257660008301846121bd565b92915050565b60008151905061258b81611ccb565b92915050565b6000602082840312156125a7576125a6611cbc565b5b60006125b58482850161257c565b91505092915050565b7f496e73756666696369656e742045544b2062616c616e63650000000000000000600082015250565b60006125f46018836122e8565b91506125ff826125be565b602082019050919050565b60006020820190508181036000830152612623816125e7565b9050919050565b600060408201905061263f60008301856121bd565b61264c60208301846121bd565b9392505050565b7f417070726f7665204d61726b6574706c61636520746f207370656e6420796f7560008201527f722045544b206669727374000000000000000000000000000000000000000000602082015250565b60006126af602b836122e8565b91506126ba82612653565b604082019050919050565b600060208201905081810360008301526126de816126a2565b9050919050565b60006060820190506126fa60008301866121bd565b61270760208301856121bd565b6127146040830184611d37565b949350505050565b6127258161210b565b811461273057600080fd5b50565b6000815190506127428161271c565b92915050565b60006020828403121561275e5761275d611cbc565b5b600061276c84828501612733565b91505092915050565b7f5472616e73666572206661696c65640000000000000000000000000000000000600082015250565b60006127ab600f836122e8565b91506127b682612775565b602082019050919050565b600060208201905081810360008301526127da8161279e565b9050919050565b7f4e487b7100000000000000000000000000000000000000000000000000000000600052601160045260246000fd5b600061281b82611cc1565b915061282683611cc1565b925082820390508181111561283e5761283d6127e1565b5b92915050565b600061284f82611cc1565b915061285a83611cc1565b9250828201905080821115612872576128716127e1565b5b92915050565b600060408201905061288d6000830185611d37565b61289a6020830184611d37565b9392505050565b60006060820190506128b66000830186611d37565b6128c360208301856121bd565b6128d06040830184611d37565b949350505050565b60006128e382611cc1565b9150600082036128f6576128f56127e1565b5b600182039050919050565b600060208201905061291660008301846121cc565b92915050565b7f456e6572677920616d6f756e74206d757374206265206772656174657220746860008201527f616e203000000000000000000000000000000000000000000000000000000000602082015250565b60006129786024836122e8565b91506129838261291c565b604082019050919050565b600060208201905081810360008301526129a78161296b565b9050919050565b7f50726963652070657220756e6974206d7573742062652067726561746572207460008201527f68616e2030000000000000000000000000000000000000000000000000000000602082015250565b6000612a0a6025836122e8565b9150612a15826129ae565b604082019050919050565b60006020820190508181036000830152612a39816129fd565b9050919050565b600081519050612a4f81611d93565b92915050565b600060208284031215612a6b57612a6a611cbc565b5b6000612a7984828501612a40565b91505092915050565b7f4e6f7420746865206f776e6572206f662074686973206d6963726f6772696400600082015250565b6000612ab8601f836122e8565b9150612ac382612a82565b602082019050919050565b60006020820190508181036000830152612ae781612aab565b9050919050565b7f4d6963726f67726964206973206e6f7420616374697665000000000000000000600082015250565b6000612b246017836122e8565b9150612b2f82612aee565b602082019050919050565b60006020820190508181036000830152612b5381612b17565b9050919050565b7f4e6f7420656e6f75676820617661696c61626c6520656e6572677920696e207460008201527f6865206d6963726f677269640000000000000000000000000000000000000000602082015250565b6000612bb6602c836122e8565b9150612bc182612b5a565b604082019050919050565b60006020820190508181036000830152612be581612ba9565b9050919050565b6000612bf782611cc1565b91507fffffffffffffffffffffffffffffffffffffffffffffffffffffffffffffffff8203612c2957612c286127e1565b5b600182019050919050565b600080600080600060a08688031215612c5057612c4f611cbc565b5b6000612c5e8882890161257c565b9550506020612c6f8882890161257c565b9450506040612c808882890161257c565b9350506060612c918882890161257c565b9250506080612ca28882890161257c565b9150509295509295909350565b6000612cba82611cc1565b9150612cc583611cc1565b9250828202612cd381611cc1565b91508282048414831517612cea57612ce96127e1565b5b5092915050565b7f4e487b7100000000000000000000000000000000000000000000000000000000600052601260045260246000fd5b6000612d2b82611cc1565b9150612d3683611cc1565b925082612d4657612d45612cf1565b5b828204905092915050565b7f5072696365206973206f7574206f66206d61726b65742072616e676500000000600082015250565b6000612d87601c836122e8565b9150612d9282612d51565b602082019050919050565b60006020820190508181036000830152612db681612d7a565b9050919050565b6000606082019050612dd26000830186611d37565b612ddf6020830185611d37565b612dec6040830184611d37565b949350505050565b7f4e6f74207468652073656c6c6572206f662074686973206f6666657200000000600082015250565b6000612e2a601c836122e8565b9150612e3582612df4565b602082019050919050565b60006020820190508181036000830152612e5981612e1d565b9050919050565b7f4f6666657220686173206e6f7420657870697265642079657400000000000000600082015250565b6000612e966019836122e8565b9150612ea182612e60565b602082019050919050565b60006020820190508181036000830152612ec581612e89565b9050919050565b6000819050919050565b6000612ee182612ecc565b9150612eec83612ecc565b9250828203905081811260008412168282136000851215161715612f1357612f126127e1565b5b92915050565b6000612f2482612ecc565b9150612f2f83612ecc565b9250828202612f3d81612ecc565b91507f80000000000000000000000000000000000000000000000000000000000000008414600084121615612f7557612f746127e1565b5b8282058414831517612f8a57612f896127e1565b5b5092915050565b6000612f9c82612ecc565b9150612fa783612ecc565b925082612fb757612fb6612cf1565b5b600160000383147f800000000000000000000000000000000000000000000000000000000000000083141615612ff057612fef6127e1565b5b828205905092915050565b7f4f6666657220616c726561647920636c6f736564000000000000000000000000600082015250565b60006130316014836122e8565b915061303c82612ffb565b602082019050919050565b6000602082019050818103600083015261306081613024565b905091905056fea264697066735822122072abd63f250c7abee44a3ca0a0de74a53910f27f5d4fc906994152d9b9b0bdaa64736f6c634300081c0033",
  "linkReferences": {},
  "deployedLinkReferences": {}
}