{
  "_format": "hh-sol-artifact-1",
  "contractName": "Marketplace",
  "sourceName": "contracts/Marketplace.sol",
  "abi": [
    {
      "inputs": [
        {
          "internalType": "address",
          "name": "_energyTokenAddress",
          "type": "address"
        },
        {
          "internalType": "address",
          "name": "_registryAddress",
          "type": "address"
        }
      ],
      "stateMutability": "nonpayable",
      "type": "constructor"
    },
    {
      "anonymous": false,
      "inputs": [
        {
          "indexed": true,
          "internalType": "uint256",
          "name": "offerId",
          "type": "uint256"
        },
        {
          "indexed": false,
          "internalType": "uint256",
          "name": "energyBought",
          "type": "uint256"
        },
        {
          "indexed": true,
          "internalType": "address",
          "name": "buyer",
          "type": "address"
        },
        {
          "indexed": false,
          "internalType": "uint256",
          "name": "totalCost",
          "type": "uint256"
        }
      ],
      "name": "EnergyPurchased",
      "type": "event"
    },
    {
      "anonymous": false,
      "inputs": [
        {
          "indexed": true,
          "internalType": "uint256",
          "name": "offerId",
          "type": "uint256"
        },
        {
          "indexed": true,
          "internalType": "address",
          "name": "seller",
          "type": "address"
        }
      ],
      "name": "OfferCancelled",
      "type": "event"
    },
    {
      "anonymous": false,
      "inputs": [
        {
          "indexed": true,
          "internalType": "uint256",
          "name": "offerId",
          "type": "uint256"
        },
        {
          "indexed": true,
          "internalType": "uint256",
          "name": "microgridId",
          "type": "uint256"
        },
        {
          "indexed": false,
          "internalType": "uint256",
          "name": "totalEnergy",
          "type": "uint256"
        },
        {
          "indexed": false,
          "internalType": "uint256",
          "name": "suggestedPrice",
          "type": "uint256"
        },
        {
          "indexed": false,
          "internalType": "uint256",
          "name": "sellingPrice",
          "type": "uint256"
        },
        {
          "indexed": true,
          "internalType": "address",
          "name": "seller",
          "type": "address"
        }
      ],
      "name": "OfferCreated",
      "type": "event"
    },
    {
      "anonymous": false,
      "inputs": [
        {
          "indexed": true,
          "internalType": "uint256",
          "name": "offerId",
          "type": "uint256"
        },
        {
          "indexed": false,
          "internalType": "enum Marketplace.OfferStatus",
          "name": "newStatus",
          "type": "uint8"
        }
      ],
      "name": "OfferStatusUpdated",
      "type": "event"
    },
    {
      "inputs": [
        {
          "internalType": "uint256",
          "name": "",
          "type": "uint256"
        }
      ],
      "name": "activeOfferCount",
      "outputs": [
        {
          "internalType": "uint256",
          "name": "",
          "type": "uint256"
        }
      ],
      "stateMutability": "view",
      "type": "function"
    },
    {
      "inputs": [
        {
          "internalType": "uint256",
          "name": "_offerId",
          "type": "uint256"
        },
        {
          "internalType": "uint256",
          "name": "_amt",
          "type": "uint256"
        }
      ],
      "name": "buyEnergy",
      "outputs": [],
      "stateMutability": "nonpayable",
      "type": "function"
    },
    {
      "inputs": [
        {
          "internalType": "uint256",
          "name": "_offerId",
          "type": "uint256"
        }
      ],
      "name": "cancelOffer",
      "outputs": [],
      "stateMutability": "nonpayable",
      "type": "function"
    },
    {
      "inputs": [
        {
          "internalType": "uint256",
          "name": "_microgridId",
          "type": "uint256"
        },
        {
          "internalType": "uint256",
          "name": "_energyAmount",
          "type": "uint256"
        },
        {
          "internalType": "uint256",
          "name": "_pricePerUnit",
          "type": "uint256"
        }
      ],
      "name": "createOffer",
      "outputs": [],
      "stateMutability": "nonpayable",
      "type": "function"
    },
    {
      "inputs": [],
      "name": "energyToken",
      "outputs": [
        {
          "internalType": "contract IEnergyToken",
          "name": "",
          "type": "address"
        }
      ],
      "stateMutability": "view",
      "type": "function"
    },
    {
      "inputs": [
        {
          "internalType": "uint256",
          "name": "_offerId",
          "type": "uint256"
        }
      ],
      "name": "expireOffer",
      "outputs": [],
      "stateMutability": "nonpayable",
      "type": "function"
    },
    {
      "inputs": [
        {
          "internalType": "uint256",
          "name": "_offerId",
          "type": "uint256"
        }
      ],
      "name": "isOfferOpen",
      "outputs": [
        {
          "internalType": "bool",
          "name": "",
          "type": "bool"
        }
      ],
      "stateMutability": "view",
      "type": "function"
    },
    {
      "inputs": [
        {
          "internalType": "uint256",
          "name": "",
          "type": "uint256"
        },
        {
          "internalType": "uint256",
          "name": "",
          "type": "uint256"
        }
      ],
      "name": "microgridOffers",
      "outputs": [
        {
          "internalType": "uint256",
          "name": "",
          "type": "uint256"
        }
      ],
      "stateMutability": "view",
      "type": "function"
    },
    {
      "inputs": [],
      "name": "nextOfferId",
      "outputs": [
        {
          "internalType": "uint256",
          "name": "",
          "type": "uint256"
        }
      ],
      "stateMutability": "view",
      "type": "function"
    },
    {
      "inputs": [
        {
          "internalType": "uint256",
          "name": "",
          "type": "uint256"
        }
      ],
      "name": "offers",
      "outputs": [
        {
          "internalType": "uint256",
          "name": "offerId",
          "type": "uint256"
        },
        {
          "internalType": "uint256",
          "name": "microgridId",
          "type": "uint256"
        },
        {
          "internalType": "uint256",
          "name": "totalEnergy",
          "type": "uint256"
        },
        {
          "internalType": "uint256",
          "name": "remainingEnergy",
          "type": "uint256"
        },
        {
          "internalType": "uint256",
          "name": "soldEnergy",
          "type": "uint256"
        },
        {
          "internalType": "uint256",
          "name": "suggestedPrice",
          "type": "uint256"
        },
        {
          "internalType": "uint256",
          "name": "sellingPrice",
          "type": "uint256"
        },
        {
          "internalType": "address",
          "name": "seller",
          "type": "address"
        },
        {
          "internalType": "uint256",
          "name": "createdAt",
          "type": "uint256"
        },
        {
          "internalType": "uint256",
          "name": "updatedAt",
          "type": "uint256"
        },
        {
          "internalType": "uint256",
          "name": "expiresAt",
          "type": "uint256"
        },
        {
          "internalType": "enum Marketplace.OfferStatus",
          "name": "status",
          "type": "uint8"
        }
      ],
      "stateMutability": "view",
      "type": "function"
    },
    {
      "inputs": [],
      "name": "registry",
      "outputs": [
        {
          "internalType": "contract IMicrogridRegistry",
          "name": "",
          "type": "address"
        }
      ],
      "stateMutability": "view",
      "type": "function"
    },
    {
      "inputs": [
        {
          "internalType": "address",
          "name": "",
          "type": "address"
        },
        {
          "internalType": "uint256",
          "name": "",
          "type": "uint256"
        }
      ],
      "name": "sellerOffers",
      "outputs": [
        {
          "internalType": "uint256",
          "name": "",
          "type": "uint256"
        }
      ],
      "stateMutability": "view",
      "type": "function"
    }
  ],
  "bytecode": "0x608060405234801561001057600080fd5b50604051612bb0380380612bb08339818101604052810190610032919061011d565b816000806101000a81548173ffffffffffffffffffffffffffffffffffffffff021916908373ffffffffffffffffffffffffffffffffffffffff16021790555080600160006101000a81548173ffffffffffffffffffffffffffffffffffffffff021916908373ffffffffffffffffffffffffffffffffffffffff160217905550505061015d565b600080fd5b600073ffffffffffffffffffffffffffffffffffffffff82169050919050565b60006100ea826100bf565b9050919050565b6100fa816100df565b811461010557600080fd5b50565b600081519050610117816100f1565b92915050565b60008060408385031215610134576101336100ba565b5b600061014285828601610108565b925050602061015385828601610108565b9150509250929050565b612a448061016c6000396000f3fe608060405234801561001057600080fd5b50600436106100b45760003560e01c80637e930a5c116100715780637e930a5c146101a35780638a72ea6a146101d3578063cdb6d52d1461020e578063dc35a9001461022a578063ef706adf14610246578063f10b160614610262576100b4565b80630f20337d146100b95780634ec7fb81146100e95780635f5d065514610107578063716588531461012557806373868d73146101555780637b10399914610185575b600080fd5b6100d360048036038101906100ce919061194a565b61027e565b6040516100e09190611999565b60405180910390f35b6100f16102af565b6040516100fe9190611a33565b60405180910390f35b61010f6102d3565b60405161011c9190611999565b60405180910390f35b61013f600480360381019061013a9190611a4e565b6102d9565b60405161014c9190611999565b60405180910390f35b61016f600480360381019061016a9190611a4e565b6102f1565b60405161017c9190611a96565b60405180910390f35b61018d610396565b60405161019a9190611ad2565b60405180910390f35b6101bd60048036038101906101b89190611b2b565b6103bc565b6040516101ca9190611999565b60405180910390f35b6101ed60048036038101906101e89190611a4e565b6103ed565b6040516102059c9b9a99989796959493929190611bf1565b60405180910390f35b6102286004803603810190610223919061194a565b61047a565b005b610244600480360381019061023f9190611cab565b610cba565b005b610260600480360381019061025b9190611a4e565b611511565b005b61027c60048036038101906102779190611a4e565b61164f565b005b6004602052816000526040600020818154811061029a57600080fd5b90600052602060002001600091509150505481565b60008054906101000a900473ffffffffffffffffffffffffffffffffffffffff1681565b60025481565b60066020528060005260406000206000915090505481565b600080600481111561030657610305611b7a565b5b60036000848152602001908152602001600020600b0160009054906101000a900460ff16600481111561033c5761033b611b7a565b5b148061038f57506001600481111561035757610356611b7a565b5b60036000848152602001908152602001600020600b0160009054906101000a900460ff16600481111561038d5761038c611b7a565b5b145b9050919050565b600160009054906101000a900473ffffffffffffffffffffffffffffffffffffffff1681565b600560205281600052604060002081815481106103d857600080fd5b90600052602060002001600091509150505481565b60036020528060005260406000206000915090508060000154908060010154908060020154908060030154908060040154908060050154908060060154908060070160009054906101000a900473ffffffffffffffffffffffffffffffffffffffff169080600801549080600901549080600a01549080600b0160009054906101000a900460ff1690508c565b8160025481106104bf576040517f08c379a00000000000000000000000000000000000000000000000000000000081526004016104b690611d5b565b60405180910390fd5b6104c8836102f1565b610507576040517f08c379a00000000000000000000000000000000000000000000000000000000081526004016104fe90611dc7565b60405180910390fd5b60036000848152602001908152602001600020600a0154421061056a5761052f8360046116fc565b6040517f08c379a000000000000000000000000000000000000000000000000000000000815260040161056190611e33565b60405180910390fd5b6003600084815260200190815260200160002060070160009054906101000a900473ffffffffffffffffffffffffffffffffffffffff1673ffffffffffffffffffffffffffffffffffffffff163373ffffffffffffffffffffffffffffffffffffffff160361060e576040517f08c379a000000000000000000000000000000000000000000000000000000000815260040161060590611ec5565b60405180910390fd5b60008211610651576040517f08c379a000000000000000000000000000000000000000000000000000000000815260040161064890611f31565b60405180910390fd5b81600360008581526020019081526020016000206003015410156106aa576040517f08c379a00000000000000000000000000000000000000000000000000000000081526004016106a190611fc3565b60405180910390fd5b600073__$3ab39eb88c37807a01729d18f1252bcdd4$__63ce3946966003600087815260200190815260200160002060060154856040518363ffffffff1660e01b81526004016106fb929190611ff2565b602060405180830381865af4158015610718573d6000803e3d6000fd5b505050506040513d601f19601f8201168201806040525081019061073c9190612030565b90508060008054906101000a900473ffffffffffffffffffffffffffffffffffffffff1673ffffffffffffffffffffffffffffffffffffffff166370a08231336040518263ffffffff1660e01b8152600401610798919061205d565b602060405180830381865afa1580156107b5573d6000803e3d6000fd5b505050506040513d601f19601f820116820180604052508101906107d99190612030565b101561081a576040517f08c379a0000000000000000000000000000000000000000000000000000000008152600401610811906120c4565b60405180910390fd5b8060008054906101000a900473ffffffffffffffffffffffffffffffffffffffff1673ffffffffffffffffffffffffffffffffffffffff1663dd62ed3e33306040518363ffffffff1660e01b81526004016108769291906120e4565b602060405180830381865afa158015610893573d6000803e3d6000fd5b505050506040513d601f19601f820116820180604052508101906108b79190612030565b10156108f8576040517f08c379a00000000000000000000000000000000000000000000000000000000081526004016108ef9061217f565b60405180910390fd5b60008054906101000a900473ffffffffffffffffffffffffffffffffffffffff1673ffffffffffffffffffffffffffffffffffffffff166323b872dd336003600088815260200190815260200160002060070160009054906101000a900473ffffffffffffffffffffffffffffffffffffffff16846040518463ffffffff1660e01b815260040161098b9392919061219f565b6020604051808303816000875af11580156109aa573d6000803e3d6000fd5b505050506040513d601f19601f820116820180604052508101906109ce9190612202565b610a0d576040517f08c379a0000000000000000000000000000000000000000000000000000000008152600401610a049061227b565b60405180910390fd5b82600360008681526020019081526020016000206003016000828254610a3391906122ca565b9250508190555082600360008681526020019081526020016000206004016000828254610a6091906122fe565b92505081905550600160009054906101000a900473ffffffffffffffffffffffffffffffffffffffff1673ffffffffffffffffffffffffffffffffffffffff166361f2d09f6003600087815260200190815260200160002060010154856040518363ffffffff1660e01b8152600401610ada929190612332565b600060405180830381600087803b158015610af457600080fd5b505af1158015610b08573d6000803e3d6000fd5b505050504260036000868152602001908152602001600020600901819055506000600360008681526020019081526020016000206003015403610bc85760066000600360008781526020019081526020016000206001015481526020019081526020016000206000815480929190610b7f9061235b565b9190505550600260036000868152602001908152602001600020600b0160006101000a81548160ff02191690836004811115610bbe57610bbd611b7a565b5b0217905550610c08565b600160036000868152602001908152602001600020600b0160006101000a81548160ff02191690836004811115610c0257610c01611b7a565b5b02179055505b837f2e74881a6c74723c41779bc20d0aa57148f87d6cd03977e71379655e32e2711660036000878152602001908152602001600020600b0160009054906101000a900460ff16604051610c5b9190612384565b60405180910390a23373ffffffffffffffffffffffffffffffffffffffff16847f76e4b739eb0c5c67926a4c7392010f3efe3bcf51d1c06b947264bb78b785630f8584604051610cac929190612332565b60405180910390a350505050565b60008211610cfd576040517f08c379a0000000000000000000000000000000000000000000000000000000008152600401610cf490612411565b60405180910390fd5b60008111610d40576040517f08c379a0000000000000000000000000000000000000000000000000000000008152600401610d37906124a3565b60405180910390fd5b3373ffffffffffffffffffffffffffffffffffffffff16600160009054906101000a900473ffffffffffffffffffffffffffffffffffffffff1673ffffffffffffffffffffffffffffffffffffffff1663c41a360a856040518263ffffffff1660e01b8152600401610db29190611999565b602060405180830381865afa158015610dcf573d6000803e3d6000fd5b505050506040513d601f19601f82011682018060405250810190610df391906124d8565b73ffffffffffffffffffffffffffffffffffffffff1614610e49576040517f08c379a0000000000000000000000000000000000000000000000000000000008152600401610e4090612551565b60405180910390fd5b600160009054906101000a900473ffffffffffffffffffffffffffffffffffffffff1673ffffffffffffffffffffffffffffffffffffffff16631c334a7e846040518263ffffffff1660e01b8152600401610ea49190611999565b602060405180830381865afa158015610ec1573d6000803e3d6000fd5b505050506040513d601f19601f82011682018060405250810190610ee59190612202565b610f24576040517f08c379a0000000000000000000000000000000000000000000000000000000008152600401610f1b906125bd565b60405180910390fd5b81600160009054906101000a900473ffffffffffffffffffffffffffffffffffffffff1673ffffffffffffffffffffffffffffffffffffffff166347846fd9856040518263ffffffff1660e01b8152600401610f809190611999565b602060405180830381865afa158015610f9d573d6000803e3d6000fd5b505050506040513d601f19601f82011682018060405250810190610fc19190612030565b1015611002576040517f08c379a0000000000000000000000000000000000000000000000000000000008152600401610ff99061264f565b60405180910390fd5b6000600260008154809291906110179061266f565b9190505590506000806000806000600160009054906101000a900473ffffffffffffffffffffffffffffffffffffffff1673ffffffffffffffffffffffffffffffffffffffff16634fa4c02d8a6040518263ffffffff1660e01b81526004016110809190611999565b60a060405180830381865afa15801561109d573d6000803e3d6000fd5b505050506040513d601f19601f820116820180604052508101906110c191906126b7565b94509450945094509450600073__$3ab39eb88c37807a01729d18f1252bcdd4$__63207ad9ce87878787876040518663ffffffff1660e01b815260040161110c959493929190612732565b602060405180830381865af4158015611129573d6000803e3d6000fd5b505050506040513d601f19601f8201168201806040525081019061114d9190612030565b9050600060646050836111609190612785565b61116a91906127f6565b90506000606460788461117d9190612785565b61118791906127f6565b9050818a101580156111995750808a11155b6111d8576040517f08c379a00000000000000000000000000000000000000000000000000000000081526004016111cf90612873565b60405180910390fd5b600160009054906101000a900473ffffffffffffffffffffffffffffffffffffffff1673ffffffffffffffffffffffffffffffffffffffff1663d3e0bada8d8d6040518363ffffffff1660e01b8152600401611235929190612332565b600060405180830381600087803b15801561124f57600080fd5b505af1158015611263573d6000803e3d6000fd5b505050506040518061018001604052808a81526020018d81526020018c81526020018c8152602001600081526020018481526020018b81526020013373ffffffffffffffffffffffffffffffffffffffff16815260200142815260200142815260200162015180426112d591906122fe565b8152602001600060048111156112ee576112ed611b7a565b5b815250600360008b8152602001908152602001600020600082015181600001556020820151816001015560408201518160020155606082015181600301556080820151816004015560a0820151816005015560c0820151816006015560e08201518160070160006101000a81548173ffffffffffffffffffffffffffffffffffffffff021916908373ffffffffffffffffffffffffffffffffffffffff1602179055506101008201518160080155610120820151816009015561014082015181600a015561016082015181600b0160006101000a81548160ff021916908360048111156113de576113dd611b7a565b5b0217905550905050600460008d8152602001908152602001600020899080600181540180825580915050600190039060005260206000200160009091909190915055600560003373ffffffffffffffffffffffffffffffffffffffff1673ffffffffffffffffffffffffffffffffffffffff168152602001908152602001600020899080600181540180825580915050600190039060005260206000200160009091909190915055600660008d815260200190815260200160002060008154809291906114aa9061266f565b91905055503373ffffffffffffffffffffffffffffffffffffffff168c8a7f55b8d19e468503ecc8f7d6a2611f03f249440d3d2401ff1ff15a474ee7cbee748e878f6040516114fb93929190612893565b60405180910390a4505050505050505050505050565b806002548110611556576040517f08c379a000000000000000000000000000000000000000000000000000000000815260040161154d90611d5b565b60405180910390fd5b813373ffffffffffffffffffffffffffffffffffffffff166003600083815260200190815260200160002060070160009054906101000a900473ffffffffffffffffffffffffffffffffffffffff1673ffffffffffffffffffffffffffffffffffffffff16146115fb576040517f08c379a00000000000000000000000000000000000000000000000000000000081526004016115f290612916565b60405180910390fd5b6116068360036116fc565b3373ffffffffffffffffffffffffffffffffffffffff16837f1f51377b3e685a0e2419f9bb4ba7c07ec54936353ba3d0fb3c6538dab676622260405160405180910390a3505050565b806002548110611694576040517f08c379a000000000000000000000000000000000000000000000000000000000815260040161168b90611d5b565b60405180910390fd5b4260036000848152602001908152602001600020600a015411156116ed576040517f08c379a00000000000000000000000000000000000000000000000000000000081526004016116e490612982565b60405180910390fd5b6116f88260046116fc565b5050565b611705826102f1565b611744576040517f08c379a000000000000000000000000000000000000000000000000000000000815260040161173b906129ee565b60405180910390fd5b60006003600084815260200190815260200160002060030154111561181f57600160009054906101000a900473ffffffffffffffffffffffffffffffffffffffff1673ffffffffffffffffffffffffffffffffffffffff166361f2d09f600360008581526020019081526020016000206001015460036000868152602001908152602001600020600301546040518363ffffffff1660e01b81526004016117ec929190612332565b600060405180830381600087803b15801561180657600080fd5b505af115801561181a573d6000803e3d6000fd5b505050505b600060036000848152602001908152602001600020600301819055508060036000848152602001908152602001600020600b0160006101000a81548160ff0219169083600481111561187457611873611b7a565b5b0217905550426003600084815260200190815260200160002060090181905550600660006003600085815260200190815260200160002060010154815260200190815260200160002060008154809291906118ce9061235b565b9190505550817f2e74881a6c74723c41779bc20d0aa57148f87d6cd03977e71379655e32e27116826040516119039190612384565b60405180910390a25050565b600080fd5b6000819050919050565b61192781611914565b811461193257600080fd5b50565b6000813590506119448161191e565b92915050565b600080604083850312156119615761196061190f565b5b600061196f85828601611935565b925050602061198085828601611935565b9150509250929050565b61199381611914565b82525050565b60006020820190506119ae600083018461198a565b92915050565b600073ffffffffffffffffffffffffffffffffffffffff82169050919050565b6000819050919050565b60006119f96119f46119ef846119b4565b6119d4565b6119b4565b9050919050565b6000611a0b826119de565b9050919050565b6000611a1d82611a00565b9050919050565b611a2d81611a12565b82525050565b6000602082019050611a486000830184611a24565b92915050565b600060208284031215611a6457611a6361190f565b5b6000611a7284828501611935565b91505092915050565b60008115159050919050565b611a9081611a7b565b82525050565b6000602082019050611aab6000830184611a87565b92915050565b6000611abc82611a00565b9050919050565b611acc81611ab1565b82525050565b6000602082019050611ae76000830184611ac3565b92915050565b6000611af8826119b4565b9050919050565b611b0881611aed565b8114611b1357600080fd5b50565b600081359050611b2581611aff565b92915050565b60008060408385031215611b4257611b4161190f565b5b6000611b5085828601611b16565b9250506020611b6185828601611935565b9150509250929050565b611b7481611aed565b82525050565b7f4e487b7100000000000000000000000000000000000000000000000000000000600052602160045260246000fd5b60058110611bba57611bb9611b7a565b5b50565b6000819050611bcb82611ba9565b919050565b6000611bdb82611bbd565b9050919050565b611beb81611bd0565b82525050565b600061018082019050611c07600083018f61198a565b611c14602083018e61198a565b611c21604083018d61198a565b611c2e606083018c61198a565b611c3b608083018b61198a565b611c4860a083018a61198a565b611c5560c083018961198a565b611c6260e0830188611b6b565b611c7061010083018761198a565b611c7e61012083018661198a565b611c8c61014083018561198a565b611c9a610160830184611be2565b9d9c50505050505050505050505050565b600080600060608486031215611cc457611cc361190f565b5b6000611cd286828701611935565b9350506020611ce386828701611935565b9250506040611cf486828701611935565b9150509250925092565b600082825260208201905092915050565b7f4f6666657220646f6573206e6f74206578697374000000000000000000000000600082015250565b6000611d45601483611cfe565b9150611d5082611d0f565b602082019050919050565b60006020820190508181036000830152611d7481611d38565b9050919050565b7f4f666665722069736e2774206f70656e00000000000000000000000000000000600082015250565b6000611db1601083611cfe565b9150611dbc82611d7b565b602082019050919050565b60006020820190508181036000830152611de081611da4565b9050919050565b7f4f66666572206861732065787069726564000000000000000000000000000000600082015250565b6000611e1d601183611cfe565b9150611e2882611de7565b602082019050919050565b60006020820190508181036000830152611e4c81611e10565b9050919050565b7f53656c6c65722063616e6e6f7420627579207468656972206f776e20656e657260008201527f6779000000000000000000000000000000000000000000000000000000000000602082015250565b6000611eaf602283611cfe565b9150611eba82611e53565b604082019050919050565b60006020820190508181036000830152611ede81611ea2565b9050919050565b7f416d6f756e74206d7573742062652067726561746572207468616e2030000000600082015250565b6000611f1b601d83611cfe565b9150611f2682611ee5565b602082019050919050565b60006020820190508181036000830152611f4a81611f0e565b9050919050565b7f4e6f7420656e6f75676820656e6572677920617661696c61626c6520696e207460008201527f6865206f66666572000000000000000000000000000000000000000000000000602082015250565b6000611fad602883611cfe565b9150611fb882611f51565b604082019050919050565b60006020820190508181036000830152611fdc81611fa0565b9050919050565b611fec81611914565b82525050565b60006040820190506120076000830185611fe3565b6120146020830184611fe3565b9392505050565b60008151905061202a8161191e565b92915050565b6000602082840312156120465761204561190f565b5b60006120548482850161201b565b91505092915050565b60006020820190506120726000830184611b6b565b92915050565b7f496e73756666696369656e742045544b2062616c616e63650000000000000000600082015250565b60006120ae601883611cfe565b91506120b982612078565b602082019050919050565b600060208201905081810360008301526120dd816120a1565b9050919050565b60006040820190506120f96000830185611b6b565b6121066020830184611b6b565b9392505050565b7f417070726f7665204d61726b6574706c61636520746f207370656e6420796f7560008201527f722045544b206669727374000000000000000000000000000000000000000000602082015250565b6000612169602b83611cfe565b91506121748261210d565b604082019050919050565b600060208201905081810360008301526121988161215c565b9050919050565b60006060820190506121b46000830186611b6b565b6121c16020830185611b6b565b6121ce604083018461198a565b949350505050565b6121df81611a7b565b81146121ea57600080fd5b50565b6000815190506121fc816121d6565b92915050565b6000602082840312156122185761221761190f565b5b6000612226848285016121ed565b91505092915050565b7f5472616e73666572206661696c65640000000000000000000000000000000000600082015250565b6000612265600f83611cfe565b91506122708261222f565b602082019050919050565b6000602082019050818103600083015261229481612258565b9050919050565b7f4e487b7100000000000000000000000000000000000000000000000000000000600052601160045260246000fd5b60006122d582611914565b91506122e083611914565b92508282039050818111156122f8576122f761229b565b5b92915050565b600061230982611914565b915061231483611914565b925082820190508082111561232c5761232b61229b565b5b92915050565b6000604082019050612347600083018561198a565b612354602083018461198a565b9392505050565b600061236682611914565b9150600082036123795761237861229b565b5b600182039050919050565b60006020820190506123996000830184611be2565b92915050565b7f456e6572677920616d6f756e74206d757374206265206772656174657220746860008201527f616e203000000000000000000000000000000000000000000000000000000000602082015250565b60006123fb602483611cfe565b91506124068261239f565b604082019050919050565b6000602082019050818103600083015261242a816123ee565b9050919050565b7f50726963652070657220756e6974206d7573742062652067726561746572207460008201527f68616e2030000000000000000000000000000000000000000000000000000000602082015250565b600061248d602583611cfe565b915061249882612431565b604082019050919050565b600060208201905081810360008301526124bc81612480565b9050919050565b6000815190506124d281611aff565b92915050565b6000602082840312156124ee576124ed61190f565b5b60006124fc848285016124c3565b91505092915050565b7f4e6f7420746865206f776e6572206f662074686973206d6963726f6772696400600082015250565b600061253b601f83611cfe565b915061254682612505565b602082019050919050565b6000602082019050818103600083015261256a8161252e565b9050919050565b7f4d6963726f67726964206973206e6f7420616374697665000000000000000000600082015250565b60006125a7601783611cfe565b91506125b282612571565b602082019050919050565b600060208201905081810360008301526125d68161259a565b9050919050565b7f4e6f7420656e6f75676820617661696c61626c6520656e6572677920696e207460008201527f6865206d6963726f677269640000000000000000000000000000000000000000602082015250565b6000612639602c83611cfe565b9150612644826125dd565b604082019050919050565b600060208201905081810360008301526126688161262c565b9050919050565b600061267a82611914565b91507fffffffffffffffffffffffffffffffffffffffffffffffffffffffffffffffff82036126ac576126ab61229b565b5b600182019050919050565b600080600080600060a086880312156126d3576126d261190f565b5b60006126e18882890161201b565b95505060206126f28882890161201b565b94505060406127038882890161201b565b93505060606127148882890161201b565b92505060806127258882890161201b565b9150509295509295909350565b600060a0820190506127476000830188611fe3565b6127546020830187611fe3565b6127616040830186611fe3565b61276e6060830185611fe3565b61277b6080830184611fe3565b9695505050505050565b600061279082611914565b915061279b83611914565b92508282026127a981611914565b915082820484148315176127c0576127bf61229b565b5b5092915050565b7f4e487b7100000000000000000000000000000000000000000000000000000000600052601260045260246000fd5b600061280182611914565b915061280c83611914565b92508261281c5761281b6127c7565b5b828204905092915050565b7f5072696365206973206f7574206f66206d61726b65742072616e676500000000600082015250565b600061285d601c83611cfe565b915061286882612827565b602082019050919050565b6000602082019050818103600083015261288c81612850565b9050919050565b60006060820190506128a8600083018661198a565b6128b5602083018561198a565b6128c2604083018461198a565b949350505050565b7f4e6f74207468652073656c6c6572206f662074686973206f6666657200000000600082015250565b6000612900601c83611cfe565b915061290b826128ca565b602082019050919050565b6000602082019050818103600083015261292f816128f3565b9050919050565b7f4f6666657220686173206e6f7420657870697265642079657400000000000000600082015250565b600061296c601983611cfe565b915061297782612936565b602082019050919050565b6000602082019050818103600083015261299b8161295f565b9050919050565b7f4f6666657220616c726561647920636c6f736564000000000000000000000000600082015250565b60006129d8601483611cfe565b91506129e3826129a2565b602082019050919050565b60006020820190508181036000830152612a07816129cb565b905091905056fea2646970667358221220c0eb8b303f1f276b81ea6b86fcab75c7f456d9654c258a2fa3527e96abf22b1964736f6c634300081c0033",
  "linkReferences": {
    "contracts/PricingLibrary.sol": {
      "PricingLibrary": [
        {
          "length": 20,
          "start": 2074
        },
        {
          "length": 20,
          "start": 4667
        }
      ]
    }
  },
  "deployedLinkReferences": {
    "contracts/PricingLibrary.sol": {
      "PricingLibrary": [
        {
          "length": 20,
          "start": 1710
        },
        {
          "length": 20,
          "start": 4303
        }
      ]
    }
  }
}