{
  "_format": "hh-sol-artifact-1",
  "contractName": "Marketplace",
  "sourceName": "contracts/Marketplace.sol",
  "abi": [
    {
      "inputs": [
        {
          "internalType": "address",
          "name": "_energyTokenAddress",
          "type": "address"
        },
        {
          "internalType": "address",
          "name": "_registryAddress",
          "type": "address"
        }
      ],
      "stateMutability": "nonpayable",
      "type": "constructor"
    },
    {
      "anonymous": false,
      "inputs": [
        {
          "indexed": true,
          "internalType": "uint256",
          "name": "offerId",
          "type": "uint256"
        },
        {
          "indexed": false,
          "internalType": "uint256",
          "name": "energyBought",
          "type": "uint256"
        },
        {
          "indexed": true,
          "internalType": "address",
          "name": "buyer",
          "type": "address"
        },
        {
          "indexed": false,
          "internalType": "uint256",
          "name": "totalCost",
          "type": "uint256"
        }
      ],
      "name": "EnergyPurchased",
      "type": "event"
    },
    {
      "anonymous": false,
      "inputs": [
        {
          "indexed": true,
          "internalType": "uint256",
          "name": "offerId",
          "type": "uint256"
        },
        {
          "indexed": true,
          "internalType": "address",
          "name": "seller",
          "type": "address"
        }
      ],
      "name": "OfferCancelled",
      "type": "event"
    },
    {
      "anonymous": false,
      "inputs": [
        {
          "indexed": true,
          "internalType": "uint256",
          "name": "offerId",
          "type": "uint256"
        },
        {
          "indexed": true,
          "internalType": "uint256",
          "name": "microgridId",
          "type": "uint256"
        },
        {
          "indexed": false,
          "internalType": "uint256",
          "name": "totalEnergy",
          "type": "uint256"
        },
        {
          "indexed": false,
          "internalType": "uint256",
          "name": "suggestedPrice",
          "type": "uint256"
        },
        {
          "indexed": false,
          "internalType": "uint256",
          "name": "sellingPrice",
          "type": "uint256"
        },
        {
          "indexed": true,
          "internalType": "address",
          "name": "seller",
          "type": "address"
        }
      ],
      "name": "OfferCreated",
      "type": "event"
    },
    {
      "anonymous": false,
      "inputs": [
        {
          "indexed": true,
          "internalType": "uint256",
          "name": "offerId",
          "type": "uint256"
        },
        {
          "indexed": false,
          "internalType": "enum Marketplace.OfferStatus",
          "name": "newStatus",
          "type": "uint8"
        }
      ],
      "name": "OfferStatusUpdated",
      "type": "event"
    },
    {
      "inputs": [
        {
          "internalType": "uint256",
          "name": "",
          "type": "uint256"
        }
      ],
      "name": "activeOfferCount",
      "outputs": [
        {
          "internalType": "uint256",
          "name": "",
          "type": "uint256"
        }
      ],
      "stateMutability": "view",
      "type": "function"
    },
    {
      "inputs": [
        {
          "internalType": "uint256",
          "name": "_offerId",
          "type": "uint256"
        },
        {
          "internalType": "uint256",
          "name": "_amt",
          "type": "uint256"
        }
      ],
      "name": "buyEnergy",
      "outputs": [],
      "stateMutability": "nonpayable",
      "type": "function"
    },
    {
      "inputs": [
        {
          "internalType": "uint256",
          "name": "_offerId",
          "type": "uint256"
        }
      ],
      "name": "cancelOffer",
      "outputs": [],
      "stateMutability": "nonpayable",
      "type": "function"
    },
    {
      "inputs": [
        {
          "internalType": "uint256",
          "name": "_microgridId",
          "type": "uint256"
        },
        {
          "internalType": "uint256",
          "name": "_energyAmount",
          "type": "uint256"
        },
        {
          "internalType": "uint256",
          "name": "_pricePerUnit",
          "type": "uint256"
        }
      ],
      "name": "createOffer",
      "outputs": [],
      "stateMutability": "nonpayable",
      "type": "function"
    },
    {
      "inputs": [],
      "name": "energyToken",
      "outputs": [
        {
          "internalType": "contract IEnergyToken",
          "name": "",
          "type": "address"
        }
      ],
      "stateMutability": "view",
      "type": "function"
    },
    {
      "inputs": [
        {
          "internalType": "uint256",
          "name": "_offerId",
          "type": "uint256"
        }
      ],
      "name": "expireOffer",
      "outputs": [],
      "stateMutability": "nonpayable",
      "type": "function"
    },
    {
      "inputs": [
        {
          "internalType": "uint256",
          "name": "_offerId",
          "type": "uint256"
        }
      ],
      "name": "isOfferOpen",
      "outputs": [
        {
          "internalType": "bool",
          "name": "",
          "type": "bool"
        }
      ],
      "stateMutability": "view",
      "type": "function"
    },
    {
      "inputs": [
        {
          "internalType": "uint256",
          "name": "",
          "type": "uint256"
        },
        {
          "internalType": "uint256",
          "name": "",
          "type": "uint256"
        }
      ],
      "name": "microgridOffers",
      "outputs": [
        {
          "internalType": "uint256",
          "name": "",
          "type": "uint256"
        }
      ],
      "stateMutability": "view",
      "type": "function"
    },
    {
      "inputs": [],
      "name": "nextOfferId",
      "outputs": [
        {
          "internalType": "uint256",
          "name": "",
          "type": "uint256"
        }
      ],
      "stateMutability": "view",
      "type": "function"
    },
    {
      "inputs": [
        {
          "internalType": "uint256",
          "name": "",
          "type": "uint256"
        }
      ],
      "name": "offers",
      "outputs": [
        {
          "internalType": "uint256",
          "name": "offerId",
          "type": "uint256"
        },
        {
          "internalType": "uint256",
          "name": "microgridId",
          "type": "uint256"
        },
        {
          "internalType": "uint256",
          "name": "totalEnergy",
          "type": "uint256"
        },
        {
          "internalType": "uint256",
          "name": "remainingEnergy",
          "type": "uint256"
        },
        {
          "internalType": "uint256",
          "name": "soldEnergy",
          "type": "uint256"
        },
        {
          "internalType": "uint256",
          "name": "suggestedPrice",
          "type": "uint256"
        },
        {
          "internalType": "uint256",
          "name": "sellingPrice",
          "type": "uint256"
        },
        {
          "internalType": "address",
          "name": "seller",
          "type": "address"
        },
        {
          "internalType": "uint256",
          "name": "createdAt",
          "type": "uint256"
        },
        {
          "internalType": "uint256",
          "name": "updatedAt",
          "type": "uint256"
        },
        {
          "internalType": "uint256",
          "name": "expiresAt",
          "type": "uint256"
        },
        {
          "internalType": "enum Marketplace.OfferStatus",
          "name": "status",
          "type": "uint8"
        }
      ],
      "stateMutability": "view",
      "type": "function"
    },
    {
      "inputs": [],
      "name": "registry",
      "outputs": [
        {
          "internalType": "contract IMicrogridRegistry",
          "name": "",
          "type": "address"
        }
      ],
      "stateMutability": "view",
      "type": "function"
    },
    {
      "inputs": [
        {
          "internalType": "address",
          "name": "",
          "type": "address"
        },
        {
          "internalType": "uint256",
          "name": "",
          "type": "uint256"
        }
      ],
      "name": "sellerOffers",
      "outputs": [
        {
          "internalType": "uint256",
          "name": "",
          "type": "uint256"
        }
      ],
      "stateMutability": "view",
      "type": "function"
    }
  ],
  "bytecode": "0x608060405234801561001057600080fd5b50604051612d04380380612d048339818101604052810190610032919061011d565b816000806101000a81548173ffffffffffffffffffffffffffffffffffffffff021916908373ffffffffffffffffffffffffffffffffffffffff16021790555080600160006101000a81548173ffffffffffffffffffffffffffffffffffffffff021916908373ffffffffffffffffffffffffffffffffffffffff160217905550505061015d565b600080fd5b600073ffffffffffffffffffffffffffffffffffffffff82169050919050565b60006100ea826100bf565b9050919050565b6100fa816100df565b811461010557600080fd5b50565b600081519050610117816100f1565b92915050565b60008060408385031215610134576101336100ba565b5b600061014285828601610108565b925050602061015385828601610108565b9150509250929050565b612b988061016c6000396000f3fe608060405234801561001057600080fd5b50600436106100b45760003560e01c80637e930a5c116100715780637e930a5c146101a35780638a72ea6a146101d3578063cdb6d52d1461020e578063dc35a9001461022a578063ef706adf14610246578063f10b160614610262576100b4565b80630f20337d146100b95780634ec7fb81146100e95780635f5d065514610107578063716588531461012557806373868d73146101555780637b10399914610185575b600080fd5b6100d360048036038101906100ce91906119fa565b61027e565b6040516100e09190611a49565b60405180910390f35b6100f16102af565b6040516100fe9190611ae3565b60405180910390f35b61010f6102d3565b60405161011c9190611a49565b60405180910390f35b61013f600480360381019061013a9190611afe565b6102d9565b60405161014c9190611a49565b60405180910390f35b61016f600480360381019061016a9190611afe565b6102f1565b60405161017c9190611b46565b60405180910390f35b61018d610396565b60405161019a9190611b82565b60405180910390f35b6101bd60048036038101906101b89190611bdb565b6103bc565b6040516101ca9190611a49565b60405180910390f35b6101ed60048036038101906101e89190611afe565b6103ed565b6040516102059c9b9a99989796959493929190611ca1565b60405180910390f35b610228600480360381019061022391906119fa565b61047a565b005b610244600480360381019061023f9190611d5b565b610c4a565b005b610260600480360381019061025b9190611afe565b61142e565b005b61027c60048036038101906102779190611afe565b61156c565b005b6004602052816000526040600020818154811061029a57600080fd5b90600052602060002001600091509150505481565b60008054906101000a900473ffffffffffffffffffffffffffffffffffffffff1681565b60025481565b60066020528060005260406000206000915090505481565b600080600481111561030657610305611c2a565b5b60036000848152602001908152602001600020600b0160009054906101000a900460ff16600481111561033c5761033b611c2a565b5b148061038f57506001600481111561035757610356611c2a565b5b60036000848152602001908152602001600020600b0160009054906101000a900460ff16600481111561038d5761038c611c2a565b5b145b9050919050565b600160009054906101000a900473ffffffffffffffffffffffffffffffffffffffff1681565b600560205281600052604060002081815481106103d857600080fd5b90600052602060002001600091509150505481565b60036020528060005260406000206000915090508060000154908060010154908060020154908060030154908060040154908060050154908060060154908060070160009054906101000a900473ffffffffffffffffffffffffffffffffffffffff169080600801549080600901549080600a01549080600b0160009054906101000a900460ff1690508c565b8160025481106104bf576040517f08c379a00000000000000000000000000000000000000000000000000000000081526004016104b690611e0b565b60405180910390fd5b6104c8836102f1565b610507576040517f08c379a00000000000000000000000000000000000000000000000000000000081526004016104fe90611e77565b60405180910390fd5b60036000848152602001908152602001600020600a0154421061056a5761052f836004611619565b6040517f08c379a000000000000000000000000000000000000000000000000000000000815260040161056190611ee3565b60405180910390fd5b6003600084815260200190815260200160002060070160009054906101000a900473ffffffffffffffffffffffffffffffffffffffff1673ffffffffffffffffffffffffffffffffffffffff163373ffffffffffffffffffffffffffffffffffffffff160361060e576040517f08c379a000000000000000000000000000000000000000000000000000000000815260040161060590611f75565b60405180910390fd5b60008211610651576040517f08c379a000000000000000000000000000000000000000000000000000000000815260040161064890611fe1565b60405180910390fd5b81600360008581526020019081526020016000206003015410156106aa576040517f08c379a00000000000000000000000000000000000000000000000000000000081526004016106a190612073565b60405180910390fd5b60006106cc60036000868152602001908152602001600020600601548461182c565b90508060008054906101000a900473ffffffffffffffffffffffffffffffffffffffff1673ffffffffffffffffffffffffffffffffffffffff166370a08231336040518263ffffffff1660e01b81526004016107289190612093565b602060405180830381865afa158015610745573d6000803e3d6000fd5b505050506040513d601f19601f8201168201806040525081019061076991906120c3565b10156107aa576040517f08c379a00000000000000000000000000000000000000000000000000000000081526004016107a19061213c565b60405180910390fd5b8060008054906101000a900473ffffffffffffffffffffffffffffffffffffffff1673ffffffffffffffffffffffffffffffffffffffff1663dd62ed3e33306040518363ffffffff1660e01b815260040161080692919061215c565b602060405180830381865afa158015610823573d6000803e3d6000fd5b505050506040513d601f19601f8201168201806040525081019061084791906120c3565b1015610888576040517f08c379a000000000000000000000000000000000000000000000000000000000815260040161087f906121f7565b60405180910390fd5b60008054906101000a900473ffffffffffffffffffffffffffffffffffffffff1673ffffffffffffffffffffffffffffffffffffffff166323b872dd336003600088815260200190815260200160002060070160009054906101000a900473ffffffffffffffffffffffffffffffffffffffff16846040518463ffffffff1660e01b815260040161091b93929190612217565b6020604051808303816000875af115801561093a573d6000803e3d6000fd5b505050506040513d601f19601f8201168201806040525081019061095e919061227a565b61099d576040517f08c379a0000000000000000000000000000000000000000000000000000000008152600401610994906122f3565b60405180910390fd5b826003600086815260200190815260200160002060030160008282546109c39190612342565b92505081905550826003600086815260200190815260200160002060040160008282546109f09190612376565b92505081905550600160009054906101000a900473ffffffffffffffffffffffffffffffffffffffff1673ffffffffffffffffffffffffffffffffffffffff166361f2d09f6003600087815260200190815260200160002060010154856040518363ffffffff1660e01b8152600401610a6a9291906123aa565b600060405180830381600087803b158015610a8457600080fd5b505af1158015610a98573d6000803e3d6000fd5b505050504260036000868152602001908152602001600020600901819055506000600360008681526020019081526020016000206003015403610b585760066000600360008781526020019081526020016000206001015481526020019081526020016000206000815480929190610b0f906123d3565b9190505550600260036000868152602001908152602001600020600b0160006101000a81548160ff02191690836004811115610b4e57610b4d611c2a565b5b0217905550610b98565b600160036000868152602001908152602001600020600b0160006101000a81548160ff02191690836004811115610b9257610b91611c2a565b5b02179055505b837f2e74881a6c74723c41779bc20d0aa57148f87d6cd03977e71379655e32e2711660036000878152602001908152602001600020600b0160009054906101000a900460ff16604051610beb91906123fc565b60405180910390a23373ffffffffffffffffffffffffffffffffffffffff16847f76e4b739eb0c5c67926a4c7392010f3efe3bcf51d1c06b947264bb78b785630f8584604051610c3c9291906123aa565b60405180910390a350505050565b60008211610c8d576040517f08c379a0000000000000000000000000000000000000000000000000000000008152600401610c8490612489565b60405180910390fd5b60008111610cd0576040517f08c379a0000000000000000000000000000000000000000000000000000000008152600401610cc79061251b565b60405180910390fd5b3373ffffffffffffffffffffffffffffffffffffffff16600160009054906101000a900473ffffffffffffffffffffffffffffffffffffffff1673ffffffffffffffffffffffffffffffffffffffff1663c41a360a856040518263ffffffff1660e01b8152600401610d429190611a49565b602060405180830381865afa158015610d5f573d6000803e3d6000fd5b505050506040513d601f19601f82011682018060405250810190610d839190612550565b73ffffffffffffffffffffffffffffffffffffffff1614610dd9576040517f08c379a0000000000000000000000000000000000000000000000000000000008152600401610dd0906125c9565b60405180910390fd5b600160009054906101000a900473ffffffffffffffffffffffffffffffffffffffff1673ffffffffffffffffffffffffffffffffffffffff16631c334a7e846040518263ffffffff1660e01b8152600401610e349190611a49565b602060405180830381865afa158015610e51573d6000803e3d6000fd5b505050506040513d601f19601f82011682018060405250810190610e75919061227a565b610eb4576040517f08c379a0000000000000000000000000000000000000000000000000000000008152600401610eab90612635565b60405180910390fd5b81600160009054906101000a900473ffffffffffffffffffffffffffffffffffffffff1673ffffffffffffffffffffffffffffffffffffffff166347846fd9856040518263ffffffff1660e01b8152600401610f109190611a49565b602060405180830381865afa158015610f2d573d6000803e3d6000fd5b505050506040513d601f19601f82011682018060405250810190610f5191906120c3565b1015610f92576040517f08c379a0000000000000000000000000000000000000000000000000000000008152600401610f89906126c7565b60405180910390fd5b600060026000815480929190610fa7906126e7565b9190505590506000806000806000600160009054906101000a900473ffffffffffffffffffffffffffffffffffffffff1673ffffffffffffffffffffffffffffffffffffffff16634fa4c02d8a6040518263ffffffff1660e01b81526004016110109190611a49565b60a060405180830381865afa15801561102d573d6000803e3d6000fd5b505050506040513d601f19601f82011682018060405250810190611051919061272f565b94509450945094509450600061106a8686868686611884565b90506000606460508361107d91906127aa565b611087919061281b565b90506000606460788461109a91906127aa565b6110a4919061281b565b9050818a101580156110b65750808a11155b6110f5576040517f08c379a00000000000000000000000000000000000000000000000000000000081526004016110ec90612898565b60405180910390fd5b600160009054906101000a900473ffffffffffffffffffffffffffffffffffffffff1673ffffffffffffffffffffffffffffffffffffffff1663d3e0bada8d8d6040518363ffffffff1660e01b81526004016111529291906123aa565b600060405180830381600087803b15801561116c57600080fd5b505af1158015611180573d6000803e3d6000fd5b505050506040518061018001604052808a81526020018d81526020018c81526020018c8152602001600081526020018481526020018b81526020013373ffffffffffffffffffffffffffffffffffffffff16815260200142815260200142815260200162015180426111f29190612376565b81526020016000600481111561120b5761120a611c2a565b5b815250600360008b8152602001908152602001600020600082015181600001556020820151816001015560408201518160020155606082015181600301556080820151816004015560a0820151816005015560c0820151816006015560e08201518160070160006101000a81548173ffffffffffffffffffffffffffffffffffffffff021916908373ffffffffffffffffffffffffffffffffffffffff1602179055506101008201518160080155610120820151816009015561014082015181600a015561016082015181600b0160006101000a81548160ff021916908360048111156112fb576112fa611c2a565b5b0217905550905050600460008d8152602001908152602001600020899080600181540180825580915050600190039060005260206000200160009091909190915055600560003373ffffffffffffffffffffffffffffffffffffffff1673ffffffffffffffffffffffffffffffffffffffff168152602001908152602001600020899080600181540180825580915050600190039060005260206000200160009091909190915055600660008d815260200190815260200160002060008154809291906113c7906126e7565b91905055503373ffffffffffffffffffffffffffffffffffffffff168c8a7f55b8d19e468503ecc8f7d6a2611f03f249440d3d2401ff1ff15a474ee7cbee748e878f604051611418939291906128b8565b60405180910390a4505050505050505050505050565b806002548110611473576040517f08c379a000000000000000000000000000000000000000000000000000000000815260040161146a90611e0b565b60405180910390fd5b813373ffffffffffffffffffffffffffffffffffffffff166003600083815260200190815260200160002060070160009054906101000a900473ffffffffffffffffffffffffffffffffffffffff1673ffffffffffffffffffffffffffffffffffffffff1614611518576040517f08c379a000000000000000000000000000000000000000000000000000000000815260040161150f9061293b565b60405180910390fd5b611523836003611619565b3373ffffffffffffffffffffffffffffffffffffffff16837f1f51377b3e685a0e2419f9bb4ba7c07ec54936353ba3d0fb3c6538dab676622260405160405180910390a3505050565b8060025481106115b1576040517f08c379a00000000000000000000000000000000000000000000000000000000081526004016115a890611e0b565b60405180910390fd5b4260036000848152602001908152602001600020600a0154111561160a576040517f08c379a0000000000000000000000000000000000000000000000000000000008152600401611601906129a7565b60405180910390fd5b611615826004611619565b5050565b611622826102f1565b611661576040517f08c379a000000000000000000000000000000000000000000000000000000000815260040161165890612a13565b60405180910390fd5b60006003600084815260200190815260200160002060030154111561173c57600160009054906101000a900473ffffffffffffffffffffffffffffffffffffffff1673ffffffffffffffffffffffffffffffffffffffff166361f2d09f600360008581526020019081526020016000206001015460036000868152602001908152602001600020600301546040518363ffffffff1660e01b81526004016117099291906123aa565b600060405180830381600087803b15801561172357600080fd5b505af1158015611737573d6000803e3d6000fd5b505050505b600060036000848152602001908152602001600020600301819055508060036000848152602001908152602001600020600b0160006101000a81548160ff0219169083600481111561179157611790611c2a565b5b0217905550426003600084815260200190815260200160002060090181905550600660006003600085815260200190815260200160002060010154815260200190815260200160002060008154809291906117eb906123d3565b9190505550817f2e74881a6c74723c41779bc20d0aa57148f87d6cd03977e71379655e32e271168260405161182091906123fc565b60405180910390a25050565b6000808211611870576040517f08c379a000000000000000000000000000000000000000000000000000000000815260040161186790611fe1565b60405180910390fd5b828261187c91906127aa565b905092915050565b600080600a9050600083878961189a9190612a3d565b6118a49190612a3d565b90506000856064836118b69190612a80565b6118c09190612af8565b9050604681126118de576002836118d79190612342565b9250611932565b602881126118fa576001836118f39190612342565b9250611931565b6014811215611930576000811261191f576002836119189190612376565b925061192f565b60048361192c9190612376565b92505b5b5b5b6050871061194e576002836119479190612342565b92506119a2565b603c871061196a576001836119639190612342565b92506119a1565b60288710156119a0576014871061198f576002836119889190612376565b925061199f565b60048361199c9190612376565b92505b5b5b5b60018310156119b057600192505b82935050505095945050505050565b600080fd5b6000819050919050565b6119d7816119c4565b81146119e257600080fd5b50565b6000813590506119f4816119ce565b92915050565b60008060408385031215611a1157611a106119bf565b5b6000611a1f858286016119e5565b9250506020611a30858286016119e5565b9150509250929050565b611a43816119c4565b82525050565b6000602082019050611a5e6000830184611a3a565b92915050565b600073ffffffffffffffffffffffffffffffffffffffff82169050919050565b6000819050919050565b6000611aa9611aa4611a9f84611a64565b611a84565b611a64565b9050919050565b6000611abb82611a8e565b9050919050565b6000611acd82611ab0565b9050919050565b611add81611ac2565b82525050565b6000602082019050611af86000830184611ad4565b92915050565b600060208284031215611b1457611b136119bf565b5b6000611b22848285016119e5565b91505092915050565b60008115159050919050565b611b4081611b2b565b82525050565b6000602082019050611b5b6000830184611b37565b92915050565b6000611b6c82611ab0565b9050919050565b611b7c81611b61565b82525050565b6000602082019050611b976000830184611b73565b92915050565b6000611ba882611a64565b9050919050565b611bb881611b9d565b8114611bc357600080fd5b50565b600081359050611bd581611baf565b92915050565b60008060408385031215611bf257611bf16119bf565b5b6000611c0085828601611bc6565b9250506020611c11858286016119e5565b9150509250929050565b611c2481611b9d565b82525050565b7f4e487b7100000000000000000000000000000000000000000000000000000000600052602160045260246000fd5b60058110611c6a57611c69611c2a565b5b50565b6000819050611c7b82611c59565b919050565b6000611c8b82611c6d565b9050919050565b611c9b81611c80565b82525050565b600061018082019050611cb7600083018f611a3a565b611cc4602083018e611a3a565b611cd1604083018d611a3a565b611cde606083018c611a3a565b611ceb608083018b611a3a565b611cf860a083018a611a3a565b611d0560c0830189611a3a565b611d1260e0830188611c1b565b611d20610100830187611a3a565b611d2e610120830186611a3a565b611d3c610140830185611a3a565b611d4a610160830184611c92565b9d9c50505050505050505050505050565b600080600060608486031215611d7457611d736119bf565b5b6000611d82868287016119e5565b9350506020611d93868287016119e5565b9250506040611da4868287016119e5565b9150509250925092565b600082825260208201905092915050565b7f4f6666657220646f6573206e6f74206578697374000000000000000000000000600082015250565b6000611df5601483611dae565b9150611e0082611dbf565b602082019050919050565b60006020820190508181036000830152611e2481611de8565b9050919050565b7f4f666665722069736e2774206f70656e00000000000000000000000000000000600082015250565b6000611e61601083611dae565b9150611e6c82611e2b565b602082019050919050565b60006020820190508181036000830152611e9081611e54565b9050919050565b7f4f66666572206861732065787069726564000000000000000000000000000000600082015250565b6000611ecd601183611dae565b9150611ed882611e97565b602082019050919050565b60006020820190508181036000830152611efc81611ec0565b9050919050565b7f53656c6c65722063616e6e6f7420627579207468656972206f776e20656e657260008201527f6779000000000000000000000000000000000000000000000000000000000000602082015250565b6000611f5f602283611dae565b9150611f6a82611f03565b604082019050919050565b60006020820190508181036000830152611f8e81611f52565b9050919050565b7f416d6f756e74206d7573742062652067726561746572207468616e2030000000600082015250565b6000611fcb601d83611dae565b9150611fd682611f95565b602082019050919050565b60006020820190508181036000830152611ffa81611fbe565b9050919050565b7f4e6f7420656e6f75676820656e6572677920617661696c61626c6520696e207460008201527f6865206f66666572000000000000000000000000000000000000000000000000602082015250565b600061205d602883611dae565b915061206882612001565b604082019050919050565b6000602082019050818103600083015261208c81612050565b9050919050565b60006020820190506120a86000830184611c1b565b92915050565b6000815190506120bd816119ce565b92915050565b6000602082840312156120d9576120d86119bf565b5b60006120e7848285016120ae565b91505092915050565b7f496e73756666696369656e742045544b2062616c616e63650000000000000000600082015250565b6000612126601883611dae565b9150612131826120f0565b602082019050919050565b6000602082019050818103600083015261215581612119565b9050919050565b60006040820190506121716000830185611c1b565b61217e6020830184611c1b565b9392505050565b7f417070726f7665204d61726b6574706c61636520746f207370656e6420796f7560008201527f722045544b206669727374000000000000000000000000000000000000000000602082015250565b60006121e1602b83611dae565b91506121ec82612185565b604082019050919050565b60006020820190508181036000830152612210816121d4565b9050919050565b600060608201905061222c6000830186611c1b565b6122396020830185611c1b565b6122466040830184611a3a565b949350505050565b61225781611b2b565b811461226257600080fd5b50565b6000815190506122748161224e565b92915050565b6000602082840312156122905761228f6119bf565b5b600061229e84828501612265565b91505092915050565b7f5472616e73666572206661696c65640000000000000000000000000000000000600082015250565b60006122dd600f83611dae565b91506122e8826122a7565b602082019050919050565b6000602082019050818103600083015261230c816122d0565b9050919050565b7f4e487b7100000000000000000000000000000000000000000000000000000000600052601160045260246000fd5b600061234d826119c4565b9150612358836119c4565b92508282039050818111156123705761236f612313565b5b92915050565b6000612381826119c4565b915061238c836119c4565b92508282019050808211156123a4576123a3612313565b5b92915050565b60006040820190506123bf6000830185611a3a565b6123cc6020830184611a3a565b9392505050565b60006123de826119c4565b9150600082036123f1576123f0612313565b5b600182039050919050565b60006020820190506124116000830184611c92565b92915050565b7f456e6572677920616d6f756e74206d757374206265206772656174657220746860008201527f616e203000000000000000000000000000000000000000000000000000000000602082015250565b6000612473602483611dae565b915061247e82612417565b604082019050919050565b600060208201905081810360008301526124a281612466565b9050919050565b7f50726963652070657220756e6974206d7573742062652067726561746572207460008201527f68616e2030000000000000000000000000000000000000000000000000000000602082015250565b6000612505602583611dae565b9150612510826124a9565b604082019050919050565b60006020820190508181036000830152612534816124f8565b9050919050565b60008151905061254a81611baf565b92915050565b600060208284031215612566576125656119bf565b5b60006125748482850161253b565b91505092915050565b7f4e6f7420746865206f776e6572206f662074686973206d6963726f6772696400600082015250565b60006125b3601f83611dae565b91506125be8261257d565b602082019050919050565b600060208201905081810360008301526125e2816125a6565b9050919050565b7f4d6963726f67726964206973206e6f7420616374697665000000000000000000600082015250565b600061261f601783611dae565b915061262a826125e9565b602082019050919050565b6000602082019050818103600083015261264e81612612565b9050919050565b7f4e6f7420656e6f75676820617661696c61626c6520656e6572677920696e207460008201527f6865206d6963726f677269640000000000000000000000000000000000000000602082015250565b60006126b1602c83611dae565b91506126bc82612655565b604082019050919050565b600060208201905081810360008301526126e0816126a4565b9050919050565b60006126f2826119c4565b91507fffffffffffffffffffffffffffffffffffffffffffffffffffffffffffffffff820361272457612723612313565b5b600182019050919050565b600080600080600060a0868803121561274b5761274a6119bf565b5b6000612759888289016120ae565b955050602061276a888289016120ae565b945050604061277b888289016120ae565b935050606061278c888289016120ae565b925050608061279d888289016120ae565b9150509295509295909350565b60006127b5826119c4565b91506127c0836119c4565b92508282026127ce816119c4565b915082820484148315176127e5576127e4612313565b5b5092915050565b7f4e487b7100000000000000000000000000000000000000000000000000000000600052601260045260246000fd5b6000612826826119c4565b9150612831836119c4565b925082612841576128406127ec565b5b828204905092915050565b7f5072696365206973206f7574206f66206d61726b65742072616e676500000000600082015250565b6000612882601c83611dae565b915061288d8261284c565b602082019050919050565b600060208201905081810360008301526128b181612875565b9050919050565b60006060820190506128cd6000830186611a3a565b6128da6020830185611a3a565b6128e76040830184611a3a565b949350505050565b7f4e6f74207468652073656c6c6572206f662074686973206f6666657200000000600082015250565b6000612925601c83611dae565b9150612930826128ef565b602082019050919050565b6000602082019050818103600083015261295481612918565b9050919050565b7f4f6666657220686173206e6f7420657870697265642079657400000000000000600082015250565b6000612991601983611dae565b915061299c8261295b565b602082019050919050565b600060208201905081810360008301526129c081612984565b9050919050565b7f4f6666657220616c726561647920636c6f736564000000000000000000000000600082015250565b60006129fd601483611dae565b9150612a08826129c7565b602082019050919050565b60006020820190508181036000830152612a2c816129f0565b9050919050565b6000819050919050565b6000612a4882612a33565b9150612a5383612a33565b9250828203905081811260008412168282136000851215161715612a7a57612a79612313565b5b92915050565b6000612a8b82612a33565b9150612a9683612a33565b9250828202612aa481612a33565b91507f80000000000000000000000000000000000000000000000000000000000000008414600084121615612adc57612adb612313565b5b8282058414831517612af157612af0612313565b5b5092915050565b6000612b0382612a33565b9150612b0e83612a33565b925082612b1e57612b1d6127ec565b5b600160000383147f800000000000000000000000000000000000000000000000000000000000000083141615612b5757612b56612313565b5b82820590509291505056fea2646970667358221220dea530f16a2f3f7010d8962f0bcd612b0f2968755a4f543ca10029e46d5d14e264736f6c634300081c0033",
  "linkReferences": {},
  "deployedLinkReferences": {}
}