{
  "_format": "hh-sol-artifact-1",
  "contractName": "MicrogridRegistry",
  "sourceName": "contracts/MicrogridRegistry.sol",
  "abi": [
    {
      "inputs": [
        {
          "internalType": "address",
          "name": "_owner",
          "type": "address"
        }
      ],
      "stateMutability": "nonpayable",
      "type": "constructor"
    },
    {
      "inputs": [
        {
          "internalType": "address",
          "name": "owner",
          "type": "address"
        }
      ],
      "name": "OwnableInvalidOwner",
      "type": "error"
    },
    {
      "inputs": [
        {
          "internalType": "address",
          "name": "account",
          "type": "address"
        }
      ],
      "name": "OwnableUnauthorizedAccount",
      "type": "error"
    },
    {
      "anonymous": false,
      "inputs": [
        {
          "indexed": true,
          "internalType": "uint256",
          "name": "id",
          "type": "uint256"
        },
        {
          "indexed": true,
          "internalType": "address",
          "name": "owner",
          "type": "address"
        },
        {
          "indexed": false,
          "internalType": "string",
          "name": "name",
          "type": "string"
        },
        {
          "indexed": false,
          "internalType": "uint256",
          "name": "latitude",
          "type": "uint256"
        },
        {
          "indexed": false,
          "internalType": "uint256",
          "name": "longitude",
          "type": "uint256"
        }
      ],
      "name": "MicrogridRegistered",
      "type": "event"
    },
    {
      "anonymous": false,
      "inputs": [
        {
          "indexed": true,
          "internalType": "address",
          "name": "previousOwner",
          "type": "address"
        },
        {
          "indexed": true,
          "internalType": "address",
          "name": "newOwner",
          "type": "address"
        }
      ],
      "name": "OwnershipTransferred",
      "type": "event"
    },
    {
      "anonymous": false,
      "inputs": [
        {
          "indexed": true,
          "internalType": "uint256",
          "name": "id",
          "type": "uint256"
        },
        {
          "indexed": false,
          "internalType": "uint256",
          "name": "reservedEnergy",
          "type": "uint256"
        }
      ],
      "name": "ReservedEnergyUpdated",
      "type": "event"
    },
    {
      "anonymous": false,
      "inputs": [
        {
          "indexed": true,
          "internalType": "uint256",
          "name": "id",
          "type": "uint256"
        },
        {
          "indexed": false,
          "internalType": "uint256",
          "name": "energyGenerated",
          "type": "uint256"
        },
        {
          "indexed": false,
          "internalType": "uint256",
          "name": "energyDemand",
          "type": "uint256"
        },
        {
          "indexed": false,
          "internalType": "uint256",
          "name": "batteryLevel",
          "type": "uint256"
        },
        {
          "indexed": false,
          "internalType": "uint256",
          "name": "lastUpdated",
          "type": "uint256"
        }
      ],
      "name": "StatusUpdated",
      "type": "event"
    },
    {
      "inputs": [
        {
          "internalType": "uint256",
          "name": "_id",
          "type": "uint256"
        },
        {
          "internalType": "uint256",
          "name": "_amount",
          "type": "uint256"
        }
      ],
      "name": "decreaseReservedEnergy",
      "outputs": [],
      "stateMutability": "nonpayable",
      "type": "function"
    },
    {
      "inputs": [
        {
          "internalType": "uint256",
          "name": "_id",
          "type": "uint256"
        }
      ],
      "name": "getAvailableEnergy",
      "outputs": [
        {
          "internalType": "uint256",
          "name": "",
          "type": "uint256"
        }
      ],
      "stateMutability": "view",
      "type": "function"
    },
    {
      "inputs": [
        {
          "internalType": "uint256",
          "name": "_id",
          "type": "uint256"
        }
      ],
      "name": "getMicrogrid",
      "outputs": [
        {
          "components": [
            {
              "internalType": "uint256",
              "name": "id",
              "type": "uint256"
            },
            {
              "internalType": "string",
              "name": "name",
              "type": "string"
            },
            {
              "internalType": "address",
              "name": "owner",
              "type": "address"
            },
            {
              "internalType": "uint256",
              "name": "latitude",
              "type": "uint256"
            },
            {
              "internalType": "uint256",
              "name": "longitude",
              "type": "uint256"
            },
            {
              "internalType": "uint256",
              "name": "energyGenerated",
              "type": "uint256"
            },
            {
              "internalType": "uint256",
              "name": "energyDemand",
              "type": "uint256"
            },
            {
              "internalType": "uint256",
              "name": "batteryLevel",
              "type": "uint256"
            },
            {
              "internalType": "uint256",
              "name": "maxCapacity",
              "type": "uint256"
            },
            {
              "internalType": "uint256",
              "name": "reservedEnergy",
              "type": "uint256"
            },
            {
              "internalType": "bool",
              "name": "isActive",
              "type": "bool"
            },
            {
              "internalType": "uint256",
              "name": "lastUpdated",
              "type": "uint256"
            }
          ],
          "internalType": "struct MicrogridRegistry.Microgrid",
          "name": "",
          "type": "tuple"
        }
      ],
      "stateMutability": "view",
      "type": "function"
    },
    {
      "inputs": [],
      "name": "getMyMicrogrid",
      "outputs": [
        {
          "components": [
            {
              "internalType": "uint256",
              "name": "id",
              "type": "uint256"
            },
            {
              "internalType": "string",
              "name": "name",
              "type": "string"
            },
            {
              "internalType": "address",
              "name": "owner",
              "type": "address"
            },
            {
              "internalType": "uint256",
              "name": "latitude",
              "type": "uint256"
            },
            {
              "internalType": "uint256",
              "name": "longitude",
              "type": "uint256"
            },
            {
              "internalType": "uint256",
              "name": "energyGenerated",
              "type": "uint256"
            },
            {
              "internalType": "uint256",
              "name": "energyDemand",
              "type": "uint256"
            },
            {
              "internalType": "uint256",
              "name": "batteryLevel",
              "type": "uint256"
            },
            {
              "internalType": "uint256",
              "name": "maxCapacity",
              "type": "uint256"
            },
            {
              "internalType": "uint256",
              "name": "reservedEnergy",
              "type": "uint256"
            },
            {
              "internalType": "bool",
              "name": "isActive",
              "type": "bool"
            },
            {
              "internalType": "uint256",
              "name": "lastUpdated",
              "type": "uint256"
            }
          ],
          "internalType": "struct MicrogridRegistry.Microgrid",
          "name": "",
          "type": "tuple"
        }
      ],
      "stateMutability": "view",
      "type": "function"
    },
    {
      "inputs": [
        {
          "internalType": "uint256",
          "name": "_id",
          "type": "uint256"
        }
      ],
      "name": "getOwner",
      "outputs": [
        {
          "internalType": "address",
          "name": "",
          "type": "address"
        }
      ],
      "stateMutability": "view",
      "type": "function"
    },
    {
      "inputs": [
        {
          "internalType": "uint256",
          "name": "_id",
          "type": "uint256"
        }
      ],
      "name": "getPricingData",
      "outputs": [
        {
          "internalType": "uint256",
          "name": "generation",
          "type": "uint256"
        },
        {
          "internalType": "uint256",
          "name": "demand",
          "type": "uint256"
        },
        {
          "internalType": "uint256",
          "name": "batteryLevel",
          "type": "uint256"
        },
        {
          "internalType": "uint256",
          "name": "maxCapacity",
          "type": "uint256"
        },
        {
          "internalType": "uint256",
          "name": "reservedEnergy",
          "type": "uint256"
        }
      ],
      "stateMutability": "view",
      "type": "function"
    },
    {
      "inputs": [
        {
          "internalType": "uint256",
          "name": "_id",
          "type": "uint256"
        }
      ],
      "name": "getSurplus",
      "outputs": [
        {
          "internalType": "int256",
          "name": "",
          "type": "int256"
        }
      ],
      "stateMutability": "view",
      "type": "function"
    },
    {
      "inputs": [
        {
          "internalType": "uint256",
          "name": "_id",
          "type": "uint256"
        },
        {
          "internalType": "uint256",
          "name": "_amount",
          "type": "uint256"
        }
      ],
      "name": "increaseReservedEnergy",
      "outputs": [],
      "stateMutability": "nonpayable",
      "type": "function"
    },
    {
      "inputs": [
        {
          "internalType": "uint256",
          "name": "_id",
          "type": "uint256"
        }
      ],
      "name": "isMicrogridActive",
      "outputs": [
        {
          "internalType": "bool",
          "name": "",
          "type": "bool"
        }
      ],
      "stateMutability": "view",
      "type": "function"
    },
    {
      "inputs": [
        {
          "internalType": "address",
          "name": "",
          "type": "address"
        }
      ],
      "name": "isRegistered",
      "outputs": [
        {
          "internalType": "bool",
          "name": "",
          "type": "bool"
        }
      ],
      "stateMutability": "view",
      "type": "function"
    },
    {
      "inputs": [],
      "name": "marketplaceAddress",
      "outputs": [
        {
          "internalType": "address",
          "name": "",
          "type": "address"
        }
      ],
      "stateMutability": "view",
      "type": "function"
    },
    {
      "inputs": [
        {
          "internalType": "uint256",
          "name": "",
          "type": "uint256"
        }
      ],
      "name": "microgrids",
      "outputs": [
        {
          "internalType": "uint256",
          "name": "id",
          "type": "uint256"
        },
        {
          "internalType": "string",
          "name": "name",
          "type": "string"
        },
        {
          "internalType": "address",
          "name": "owner",
          "type": "address"
        },
        {
          "internalType": "uint256",
          "name": "latitude",
          "type": "uint256"
        },
        {
          "internalType": "uint256",
          "name": "longitude",
          "type": "uint256"
        },
        {
          "internalType": "uint256",
          "name": "energyGenerated",
          "type": "uint256"
        },
        {
          "internalType": "uint256",
          "name": "energyDemand",
          "type": "uint256"
        },
        {
          "internalType": "uint256",
          "name": "batteryLevel",
          "type": "uint256"
        },
        {
          "internalType": "uint256",
          "name": "maxCapacity",
          "type": "uint256"
        },
        {
          "internalType": "uint256",
          "name": "reservedEnergy",
          "type": "uint256"
        },
        {
          "internalType": "bool",
          "name": "isActive",
          "type": "bool"
        },
        {
          "internalType": "uint256",
          "name": "lastUpdated",
          "type": "uint256"
        }
      ],
      "stateMutability": "view",
      "type": "function"
    },
    {
      "inputs": [],
      "name": "nextId",
      "outputs": [
        {
          "internalType": "uint256",
          "name": "",
          "type": "uint256"
        }
      ],
      "stateMutability": "view",
      "type": "function"
    },
    {
      "inputs": [],
      "name": "owner",
      "outputs": [
        {
          "internalType": "address",
          "name": "",
          "type": "address"
        }
      ],
      "stateMutability": "view",
      "type": "function"
    },
    {
      "inputs": [
        {
          "internalType": "address",
          "name": "",
          "type": "address"
        }
      ],
      "name": "ownerToMicrogridId",
      "outputs": [
        {
          "internalType": "uint256",
          "name": "",
          "type": "uint256"
        }
      ],
      "stateMutability": "view",
      "type": "function"
    },
    {
      "inputs": [
        {
          "internalType": "string",
          "name": "_name",
          "type": "string"
        },
        {
          "internalType": "uint256",
          "name": "_latitude",
          "type": "uint256"
        },
        {
          "internalType": "uint256",
          "name": "_longitude",
          "type": "uint256"
        },
        {
          "internalType": "uint256",
          "name": "_maxCapacity",
          "type": "uint256"
        }
      ],
      "name": "registerMicrogrid",
      "outputs": [],
      "stateMutability": "nonpayable",
      "type": "function"
    },
    {
      "inputs": [],
      "name": "renounceOwnership",
      "outputs": [],
      "stateMutability": "nonpayable",
      "type": "function"
    },
    {
      "inputs": [
        {
          "internalType": "address",
          "name": "_marketplaceAddress",
          "type": "address"
        }
      ],
      "name": "setMarketplaceAddress",
      "outputs": [],
      "stateMutability": "nonpayable",
      "type": "function"
    },
    {
      "inputs": [
        {
          "internalType": "bool",
          "name": "_status",
          "type": "bool"
        }
      ],
      "name": "setMicrogridStatus",
      "outputs": [],
      "stateMutability": "nonpayable",
      "type": "function"
    },
    {
      "inputs": [
        {
          "internalType": "uint256",
          "name": "_sellerId",
          "type": "uint256"
        },
        {
          "internalType": "address",
          "name": "_buyer",
          "type": "address"
        },
        {
          "internalType": "uint256",
          "name": "_amount",
          "type": "uint256"
        }
      ],
      "name": "transferEnergy",
      "outputs": [],
      "stateMutability": "nonpayable",
      "type": "function"
    },
    {
      "inputs": [
        {
          "internalType": "address",
          "name": "newOwner",
          "type": "address"
        }
      ],
      "name": "transferOwnership",
      "outputs": [],
      "stateMutability": "nonpayable",
      "type": "function"
    },
    {
      "inputs": [
        {
          "internalType": "uint256",
          "name": "_energyGenerated",
          "type": "uint256"
        },
        {
          "internalType": "uint256",
          "name": "_energyDemand",
          "type": "uint256"
        },
        {
          "internalType": "uint256",
          "name": "_batteryLevel",
          "type": "uint256"
        }
      ],
      "name": "updateStatus",
      "outputs": [],
      "stateMutability": "nonpayable",
      "type": "function"
    }
  ],
  "bytecode": "0x608060405234801561001057600080fd5b50604051613552380380613552833981810160405281019061003291906101e2565b80600073ffffffffffffffffffffffffffffffffffffffff168173ffffffffffffffffffffffffffffffffffffffff16036100a55760006040517f1e4fbdf700000000000000000000000000000000000000000000000000000000815260040161009c919061021e565b60405180910390fd5b6100b4816100bb60201b60201c565b5050610239565b60008060009054906101000a900473ffffffffffffffffffffffffffffffffffffffff169050816000806101000a81548173ffffffffffffffffffffffffffffffffffffffff021916908373ffffffffffffffffffffffffffffffffffffffff1602179055508173ffffffffffffffffffffffffffffffffffffffff168173ffffffffffffffffffffffffffffffffffffffff167f8be0079c531659141344cd1fd0a4f28419497f9722a3daafe3b4186f6b6457e060405160405180910390a35050565b600080fd5b600073ffffffffffffffffffffffffffffffffffffffff82169050919050565b60006101af82610184565b9050919050565b6101bf816101a4565b81146101ca57600080fd5b50565b6000815190506101dc816101b6565b92915050565b6000602082840312156101f8576101f761017f565b5b6000610206848285016101cd565b91505092915050565b610218816101a4565b82525050565b6000602082019050610233600083018461020f565b92915050565b61330a806102486000396000f3fe608060405234801561001057600080fd5b50600436106101425760003560e01c8063955464ef116100b8578063c41a360a1161007c578063c41a360a14610396578063d0531897146103c6578063d3e0bada146103f6578063daa17f4914610412578063f2fde38b14610430578063fae0c6f61461044c57610142565b8063955464ef146102e2578063aa392765146102fe578063ad26a07c1461032e578063b47cc5561461034a578063c3c5a5471461036657610142565b806361f2d09f1161010a57806361f2d09f14610229578063715018a6146102455780637c198ac11461024f5780638da5cb5b1461026d578063926728281461028b57806393e64b48146102a757610142565b80631c334a7e146101475780634504b83a1461017757806347846fd9146101a75780634fa4c02d146101d757806361b8ce8c1461020b575b600080fd5b610161600480360381019061015c9190611ed9565b610468565b60405161016e9190611f21565b60405180910390f35b610191600480360381019061018c9190611ed9565b6104d9565b60405161019e919061212f565b60405180910390f35b6101c160048036038101906101bc9190611ed9565b6106a8565b6040516101ce9190612160565b60405180910390f35b6101f160048036038101906101ec9190611ed9565b6107c7565b60405161020295949392919061217b565b60405180910390f35b610213610857565b6040516102209190612160565b60405180910390f35b610243600480360381019061023e91906121ce565b61085d565b005b61024d610a09565b005b610257610a1d565b604051610264919061212f565b60405180910390f35b610275610c77565b604051610282919061221d565b60405180910390f35b6102a560048036038101906102a09190612264565b610ca0565b005b6102c160048036038101906102bc9190611ed9565b610fad565b6040516102d99c9b9a99989796959493929190612301565b60405180910390f35b6102fc60048036038101906102f791906124f7565b6110c2565b005b6103186004803603810190610313919061257a565b611403565b6040516103259190612160565b60405180910390f35b610348600480360381019061034391906125a7565b61141b565b005b610364600480360381019061035f919061257a565b611738565b005b610380600480360381019061037b919061257a565b611815565b60405161038d9190611f21565b60405180910390f35b6103b060048036038101906103ab9190611ed9565b611835565b6040516103bd919061221d565b60405180910390f35b6103e060048036038101906103db9190611ed9565b6118b9565b6040516103ed9190612613565b60405180910390f35b610410600480360381019061040b91906121ce565b6119c2565b005b61041a611b15565b604051610427919061221d565b60405180910390f35b61044a6004803603810190610445919061257a565b611b3b565b005b6104666004803603810190610461919061265a565b611bc1565b005b600060015482106104ae576040517f08c379a00000000000000000000000000000000000000000000000000000000081526004016104a5906126d3565b60405180910390fd5b60026000838152602001908152602001600020600a0160009054906101000a900460ff169050919050565b6104e1611e16565b6001548210610525576040517f08c379a000000000000000000000000000000000000000000000000000000000815260040161051c906126d3565b60405180910390fd5b60026000838152602001908152602001600020604051806101800160405290816000820154815260200160018201805461055e90612722565b80601f016020809104026020016040519081016040528092919081815260200182805461058a90612722565b80156105d75780601f106105ac576101008083540402835291602001916105d7565b820191906000526020600020905b8154815290600101906020018083116105ba57829003601f168201915b505050505081526020016002820160009054906101000a900473ffffffffffffffffffffffffffffffffffffffff1673ffffffffffffffffffffffffffffffffffffffff1673ffffffffffffffffffffffffffffffffffffffff16815260200160038201548152602001600482015481526020016005820154815260200160068201548152602001600782015481526020016008820154815260200160098201548152602001600a820160009054906101000a900460ff16151515158152602001600b820154815250509050919050565b600060015482106106ee576040517f08c379a00000000000000000000000000000000000000000000000000000000081526004016106e5906126d3565b60405180910390fd5b60026000838152602001908152602001600020600a0160009054906101000a900460ff16610751576040517f08c379a00000000000000000000000000000000000000000000000000000000081526004016107489061279f565b60405180910390fd5b60006002600084815260200190815260200160002060090154600260008581526020019081526020016000206006015460026000868152602001908152602001600020600501546107a291906127ee565b6107ac91906127ee565b9050600081136107bd5760006107bf565b805b915050919050565b60008060008060006001548610610813576040517f08c379a000000000000000000000000000000000000000000000000000000000815260040161080a9061287d565b60405180910390fd5b600060026000888152602001908152602001600020905080600501548160060154826007015483600801548460090154955095509550955095505091939590929450565b60015481565b600560009054906101000a900473ffffffffffffffffffffffffffffffffffffffff1673ffffffffffffffffffffffffffffffffffffffff163373ffffffffffffffffffffffffffffffffffffffff16146108ed576040517f08c379a00000000000000000000000000000000000000000000000000000000081526004016108e49061290f565b60405180910390fd5b6001548210610931576040517f08c379a0000000000000000000000000000000000000000000000000000000008152600401610928906126d3565b60405180910390fd5b806002600084815260200190815260200160002060090154101561098a576040517f08c379a00000000000000000000000000000000000000000000000000000000081526004016109819061297b565b60405180910390fd5b806002600084815260200190815260200160002060090160008282546109b0919061299b565b92505081905550817fb289bc0a077dda72409091ecfd7217e89eec2e6c01bbb815eecf3599ccf31fcc60026000858152602001908152602001600020600901546040516109fd9190612160565b60405180910390a25050565b610a11611cc3565b610a1b6000611d4a565b565b610a25611e16565b600360003373ffffffffffffffffffffffffffffffffffffffff1673ffffffffffffffffffffffffffffffffffffffff16815260200190815260200160002060009054906101000a900460ff16610ab1576040517f08c379a0000000000000000000000000000000000000000000000000000000008152600401610aa890612a1b565b60405180910390fd5b6000600460003373ffffffffffffffffffffffffffffffffffffffff1673ffffffffffffffffffffffffffffffffffffffff168152602001908152602001600020549050600260008281526020019081526020016000206040518061018001604052908160008201548152602001600182018054610b2e90612722565b80601f0160208091040260200160405190810160405280929190818152602001828054610b5a90612722565b8015610ba75780601f10610b7c57610100808354040283529160200191610ba7565b820191906000526020600020905b815481529060010190602001808311610b8a57829003601f168201915b505050505081526020016002820160009054906101000a900473ffffffffffffffffffffffffffffffffffffffff1673ffffffffffffffffffffffffffffffffffffffff1673ffffffffffffffffffffffffffffffffffffffff16815260200160038201548152602001600482015481526020016005820154815260200160068201548152602001600782015481526020016008820154815260200160098201548152602001600a820160009054906101000a900460ff16151515158152602001600b8201548152505091505090565b60008060009054906101000a900473ffffffffffffffffffffffffffffffffffffffff16905090565b600560009054906101000a900473ffffffffffffffffffffffffffffffffffffffff1673ffffffffffffffffffffffffffffffffffffffff163373ffffffffffffffffffffffffffffffffffffffff1614610d30576040517f08c379a0000000000000000000000000000000000000000000000000000000008152600401610d279061290f565b60405180910390fd5b6001548310610d74576040517f08c379a0000000000000000000000000000000000000000000000000000000008152600401610d6b90612a87565b60405180910390fd5b600360008373ffffffffffffffffffffffffffffffffffffffff1673ffffffffffffffffffffffffffffffffffffffff16815260200190815260200160002060009054906101000a900460ff16610e00576040517f08c379a0000000000000000000000000000000000000000000000000000000008152600401610df790612af3565b60405180910390fd5b6000600460008473ffffffffffffffffffffffffffffffffffffffff1673ffffffffffffffffffffffffffffffffffffffff1681526020019081526020016000205490508160026000868152602001908152602001600020600501541015610e9d576040517f08c379a0000000000000000000000000000000000000000000000000000000008152600401610e9490612b85565b60405180910390fd5b6002600082815260200190815260200160002060080154826002600084815260200190815260200160002060050154610ed69190612ba5565b1115610f17576040517f08c379a0000000000000000000000000000000000000000000000000000000008152600401610f0e90612c25565b60405180910390fd5b81600260008681526020019081526020016000206005016000828254610f3d919061299b565b9250508190555081600260008381526020019081526020016000206005016000828254610f6a9190612ba5565b925050819055504260026000868152602001908152602001600020600b01819055504260026000838152602001908152602001600020600b018190555050505050565b6002602052806000526040600020600091509050806000015490806001018054610fd690612722565b80601f016020809104026020016040519081016040528092919081815260200182805461100290612722565b801561104f5780601f106110245761010080835404028352916020019161104f565b820191906000526020600020905b81548152906001019060200180831161103257829003601f168201915b5050505050908060020160009054906101000a900473ffffffffffffffffffffffffffffffffffffffff169080600301549080600401549080600501549080600601549080600701549080600801549080600901549080600a0160009054906101000a900460ff169080600b015490508c565b60008111611105576040517f08c379a00000000000000000000000000000000000000000000000000000000081526004016110fc90612cb7565b60405180910390fd5b600360003373ffffffffffffffffffffffffffffffffffffffff1673ffffffffffffffffffffffffffffffffffffffff16815260200190815260200160002060009054906101000a900460ff1615611192576040517f08c379a000000000000000000000000000000000000000000000000000000000815260040161118990612d49565b60405180910390fd5b6000600160008154809291906111a790612d69565b9190505590506040518061018001604052808281526020018681526020013373ffffffffffffffffffffffffffffffffffffffff16815260200185815260200184815260200160008152602001600081526020016064815260200183815260200160008152602001600115158152602001428152506002600083815260200190815260200160002060008201518160000155602082015181600101908161124e9190612f5d565b5060408201518160020160006101000a81548173ffffffffffffffffffffffffffffffffffffffff021916908373ffffffffffffffffffffffffffffffffffffffff160217905550606082015181600301556080820151816004015560a0820151816005015560c0820151816006015560e082015181600701556101008201518160080155610120820151816009015561014082015181600a0160006101000a81548160ff02191690831515021790555061016082015181600b015590505080600460003373ffffffffffffffffffffffffffffffffffffffff1673ffffffffffffffffffffffffffffffffffffffff168152602001908152602001600020819055506001600360003373ffffffffffffffffffffffffffffffffffffffff1673ffffffffffffffffffffffffffffffffffffffff16815260200190815260200160002060006101000a81548160ff0219169083151502179055503373ffffffffffffffffffffffffffffffffffffffff16817f7b2068605e8ed71972e65749aa4b5d44adfa00427b5bde64876aeba6a4411a868787876040516113f49392919061302f565b60405180910390a35050505050565b60046020528060005260406000206000915090505481565b6000600460003373ffffffffffffffffffffffffffffffffffffffff1673ffffffffffffffffffffffffffffffffffffffff168152602001908152602001600020549050600360003373ffffffffffffffffffffffffffffffffffffffff1673ffffffffffffffffffffffffffffffffffffffff16815260200190815260200160002060009054906101000a900460ff166114eb576040517f08c379a00000000000000000000000000000000000000000000000000000000081526004016114e290612a1b565b60405180910390fd5b600154811061152f576040517f08c379a0000000000000000000000000000000000000000000000000000000008152600401611526906126d3565b60405180910390fd5b60026000828152602001908152602001600020600a0160009054906101000a900460ff16611592576040517f08c379a00000000000000000000000000000000000000000000000000000000081526004016115899061279f565b60405180910390fd5b60648211156115d6576040517f08c379a00000000000000000000000000000000000000000000000000000000081526004016115cd906130df565b60405180910390fd5b600260008281526020019081526020016000206008015484111561162f576040517f08c379a000000000000000000000000000000000000000000000000000000000815260040161162690613171565b60405180910390fd5b6002600082815260200190815260200160002060080154831115611688576040517f08c379a000000000000000000000000000000000000000000000000000000000815260040161167f90613203565b60405180910390fd5b8360026000838152602001908152602001600020600501819055508260026000838152602001908152602001600020600601819055508160026000838152602001908152602001600020600701819055504260026000838152602001908152602001600020600b0181905550807f51dffc56f3ebef9bab005c12273259d1c794ecdac4bdb23f96c2d9553ab941018585854260405161172a9493929190613223565b60405180910390a250505050565b611740611cc3565b600073ffffffffffffffffffffffffffffffffffffffff16600560009054906101000a900473ffffffffffffffffffffffffffffffffffffffff1673ffffffffffffffffffffffffffffffffffffffff16146117d1576040517f08c379a00000000000000000000000000000000000000000000000000000000081526004016117c8906132b4565b60405180910390fd5b80600560006101000a81548173ffffffffffffffffffffffffffffffffffffffff021916908373ffffffffffffffffffffffffffffffffffffffff16021790555050565b60036020528060005260406000206000915054906101000a900460ff1681565b6000600154821061187b576040517f08c379a0000000000000000000000000000000000000000000000000000000008152600401611872906126d3565b60405180910390fd5b6002600083815260200190815260200160002060020160009054906101000a900473ffffffffffffffffffffffffffffffffffffffff169050919050565b600060015482106118ff576040517f08c379a00000000000000000000000000000000000000000000000000000000081526004016118f6906126d3565b60405180910390fd5b60026000838152602001908152602001600020600a0160009054906101000a900460ff16611962576040517f08c379a00000000000000000000000000000000000000000000000000000000081526004016119599061279f565b60405180910390fd5b6002600083815260200190815260200160002060090154600260008481526020019081526020016000206006015460026000858152602001908152602001600020600501546119b191906127ee565b6119bb91906127ee565b9050919050565b600560009054906101000a900473ffffffffffffffffffffffffffffffffffffffff1673ffffffffffffffffffffffffffffffffffffffff163373ffffffffffffffffffffffffffffffffffffffff1614611a52576040517f08c379a0000000000000000000000000000000000000000000000000000000008152600401611a499061290f565b60405180910390fd5b6001548210611a96576040517f08c379a0000000000000000000000000000000000000000000000000000000008152600401611a8d906126d3565b60405180910390fd5b80600260008481526020019081526020016000206009016000828254611abc9190612ba5565b92505081905550817fb289bc0a077dda72409091ecfd7217e89eec2e6c01bbb815eecf3599ccf31fcc6002600085815260200190815260200160002060090154604051611b099190612160565b60405180910390a25050565b600560009054906101000a900473ffffffffffffffffffffffffffffffffffffffff1681565b611b43611cc3565b600073ffffffffffffffffffffffffffffffffffffffff168173ffffffffffffffffffffffffffffffffffffffff1603611bb55760006040517f1e4fbdf7000000000000000000000000000000000000000000000000000000008152600401611bac919061221d565b60405180910390fd5b611bbe81611d4a565b50565b600360003373ffffffffffffffffffffffffffffffffffffffff1673ffffffffffffffffffffffffffffffffffffffff16815260200190815260200160002060009054906101000a900460ff16611c4d576040517f08c379a0000000000000000000000000000000000000000000000000000000008152600401611c4490612a1b565b60405180910390fd5b6000600460003373ffffffffffffffffffffffffffffffffffffffff1673ffffffffffffffffffffffffffffffffffffffff1681526020019081526020016000205490508160026000838152602001908152602001600020600a0160006101000a81548160ff0219169083151502179055505050565b611ccb611e0e565b73ffffffffffffffffffffffffffffffffffffffff16611ce9610c77565b73ffffffffffffffffffffffffffffffffffffffff1614611d4857611d0c611e0e565b6040517f118cdaa7000000000000000000000000000000000000000000000000000000008152600401611d3f919061221d565b60405180910390fd5b565b60008060009054906101000a900473ffffffffffffffffffffffffffffffffffffffff169050816000806101000a81548173ffffffffffffffffffffffffffffffffffffffff021916908373ffffffffffffffffffffffffffffffffffffffff1602179055508173ffffffffffffffffffffffffffffffffffffffff168173ffffffffffffffffffffffffffffffffffffffff167f8be0079c531659141344cd1fd0a4f28419497f9722a3daafe3b4186f6b6457e060405160405180910390a35050565b600033905090565b6040518061018001604052806000815260200160608152602001600073ffffffffffffffffffffffffffffffffffffffff16815260200160008152602001600081526020016000815260200160008152602001600081526020016000815260200160008152602001600015158152602001600081525090565b6000604051905090565b600080fd5b600080fd5b6000819050919050565b611eb681611ea3565b8114611ec157600080fd5b50565b600081359050611ed381611ead565b92915050565b600060208284031215611eef57611eee611e99565b5b6000611efd84828501611ec4565b91505092915050565b60008115159050919050565b611f1b81611f06565b82525050565b6000602082019050611f366000830184611f12565b92915050565b611f4581611ea3565b82525050565b600081519050919050565b600082825260208201905092915050565b60005b83811015611f85578082015181840152602081019050611f6a565b60008484015250505050565b6000601f19601f8301169050919050565b6000611fad82611f4b565b611fb78185611f56565b9350611fc7818560208601611f67565b611fd081611f91565b840191505092915050565b600073ffffffffffffffffffffffffffffffffffffffff82169050919050565b600061200682611fdb565b9050919050565b61201681611ffb565b82525050565b61202581611f06565b82525050565b6000610180830160008301516120446000860182611f3c565b506020830151848203602086015261205c8282611fa2565b9150506040830151612071604086018261200d565b5060608301516120846060860182611f3c565b5060808301516120976080860182611f3c565b5060a08301516120aa60a0860182611f3c565b5060c08301516120bd60c0860182611f3c565b5060e08301516120d060e0860182611f3c565b506101008301516120e5610100860182611f3c565b506101208301516120fa610120860182611f3c565b5061014083015161210f61014086018261201c565b50610160830151612124610160860182611f3c565b508091505092915050565b60006020820190508181036000830152612149818461202b565b905092915050565b61215a81611ea3565b82525050565b60006020820190506121756000830184612151565b92915050565b600060a0820190506121906000830188612151565b61219d6020830187612151565b6121aa6040830186612151565b6121b76060830185612151565b6121c46080830184612151565b9695505050505050565b600080604083850312156121e5576121e4611e99565b5b60006121f385828601611ec4565b925050602061220485828601611ec4565b9150509250929050565b61221781611ffb565b82525050565b6000602082019050612232600083018461220e565b92915050565b61224181611ffb565b811461224c57600080fd5b50565b60008135905061225e81612238565b92915050565b60008060006060848603121561227d5761227c611e99565b5b600061228b86828701611ec4565b935050602061229c8682870161224f565b92505060406122ad86828701611ec4565b9150509250925092565b600082825260208201905092915050565b60006122d382611f4b565b6122dd81856122b7565b93506122ed818560208601611f67565b6122f681611f91565b840191505092915050565b600061018082019050612317600083018f612151565b8181036020830152612329818e6122c8565b9050612338604083018d61220e565b612345606083018c612151565b612352608083018b612151565b61235f60a083018a612151565b61236c60c0830189612151565b61237960e0830188612151565b612387610100830187612151565b612395610120830186612151565b6123a3610140830185611f12565b6123b1610160830184612151565b9d9c50505050505050505050505050565b600080fd5b600080fd5b7f4e487b7100000000000000000000000000000000000000000000000000000000600052604160045260246000fd5b61240482611f91565b810181811067ffffffffffffffff82111715612423576124226123cc565b5b80604052505050565b6000612436611e8f565b905061244282826123fb565b919050565b600067ffffffffffffffff821115612462576124616123cc565b5b61246b82611f91565b9050602081019050919050565b82818337600083830152505050565b600061249a61249584612447565b61242c565b9050828152602081018484840111156124b6576124b56123c7565b5b6124c1848285612478565b509392505050565b600082601f8301126124de576124dd6123c2565b5b81356124ee848260208601612487565b91505092915050565b6000806000806080858703121561251157612510611e99565b5b600085013567ffffffffffffffff81111561252f5761252e611e9e565b5b61253b878288016124c9565b945050602061254c87828801611ec4565b935050604061255d87828801611ec4565b925050606061256e87828801611ec4565b91505092959194509250565b6000602082840312156125905761258f611e99565b5b600061259e8482850161224f565b91505092915050565b6000806000606084860312156125c0576125bf611e99565b5b60006125ce86828701611ec4565b93505060206125df86828701611ec4565b92505060406125f086828701611ec4565b9150509250925092565b6000819050919050565b61260d816125fa565b82525050565b60006020820190506126286000830184612604565b92915050565b61263781611f06565b811461264257600080fd5b50565b6000813590506126548161262e565b92915050565b6000602082840312156126705761266f611e99565b5b600061267e84828501612645565b91505092915050565b7f4d6963726f6772696420646f6573206e6f742065786973740000000000000000600082015250565b60006126bd6018836122b7565b91506126c882612687565b602082019050919050565b600060208201905081810360008301526126ec816126b0565b9050919050565b7f4e487b7100000000000000000000000000000000000000000000000000000000600052602260045260246000fd5b6000600282049050600182168061273a57607f821691505b60208210810361274d5761274c6126f3565b5b50919050565b7f4d6963726f67726964206973206e6f7420616374697665000000000000000000600082015250565b60006127896017836122b7565b915061279482612753565b602082019050919050565b600060208201905081810360008301526127b88161277c565b9050919050565b7f4e487b7100000000000000000000000000000000000000000000000000000000600052601160045260246000fd5b60006127f9826125fa565b9150612804836125fa565b925082820390508181126000841216828213600085121516171561282b5761282a6127bf565b5b92915050565b7f4d6963726f6772696420646f65736e2774206578697374000000000000000000600082015250565b60006128676017836122b7565b915061287282612831565b602082019050919050565b600060208201905081810360008301526128968161285a565b9050919050565b7f4f6e6c7920746865206d61726b6574706c6163652063616e2063616c6c20746860008201527f69732066756e6374696f6e000000000000000000000000000000000000000000602082015250565b60006128f9602b836122b7565b91506129048261289d565b604082019050919050565b60006020820190508181036000830152612928816128ec565b9050919050565b7f496e73756666696369656e7420726573657276656420656e6572677900000000600082015250565b6000612965601c836122b7565b91506129708261292f565b602082019050919050565b6000602082019050818103600083015261299481612958565b9050919050565b60006129a682611ea3565b91506129b183611ea3565b92508282039050818111156129c9576129c86127bf565b5b92915050565b7f4d6963726f67726964206e6f7420726567697374657265640000000000000000600082015250565b6000612a056018836122b7565b9150612a10826129cf565b602082019050919050565b60006020820190508181036000830152612a34816129f8565b9050919050565b7f53656c6c6572206d6963726f6772696420646f6573206e6f7420657869737400600082015250565b6000612a71601f836122b7565b9150612a7c82612a3b565b602082019050919050565b60006020820190508181036000830152612aa081612a64565b9050919050565b7f4275796572206973206e6f742072656769737465726564000000000000000000600082015250565b6000612add6017836122b7565b9150612ae882612aa7565b602082019050919050565b60006020820190508181036000830152612b0c81612ad0565b9050919050565b7f53656c6c657220646f65736e2774206861766520656e6f75676820656e65726760008201527f7900000000000000000000000000000000000000000000000000000000000000602082015250565b6000612b6f6021836122b7565b9150612b7a82612b13565b604082019050919050565b60006020820190508181036000830152612b9e81612b62565b9050919050565b6000612bb082611ea3565b9150612bbb83611ea3565b9250828201905080821115612bd357612bd26127bf565b5b92915050565b7f4275796572206361706163697479206578636565646564000000000000000000600082015250565b6000612c0f6017836122b7565b9150612c1a82612bd9565b602082019050919050565b60006020820190508181036000830152612c3e81612c02565b9050919050565b7f4d6178206361706163697479206d75737420626520677265617465722074686160008201527f6e207a65726f0000000000000000000000000000000000000000000000000000602082015250565b6000612ca16026836122b7565b9150612cac82612c45565b604082019050919050565b60006020820190508181036000830152612cd081612c94565b9050919050565b7f4d6963726f6772696420616c7265616479207265676973746572656420666f7260008201527f2074686973206f776e6572000000000000000000000000000000000000000000602082015250565b6000612d33602b836122b7565b9150612d3e82612cd7565b604082019050919050565b60006020820190508181036000830152612d6281612d26565b9050919050565b6000612d7482611ea3565b91507fffffffffffffffffffffffffffffffffffffffffffffffffffffffffffffffff8203612da657612da56127bf565b5b600182019050919050565b60008190508160005260206000209050919050565b60006020601f8301049050919050565b600082821b905092915050565b600060088302612e137fffffffffffffffffffffffffffffffffffffffffffffffffffffffffffffffff82612dd6565b612e1d8683612dd6565b95508019841693508086168417925050509392505050565b6000819050919050565b6000612e5a612e55612e5084611ea3565b612e35565b611ea3565b9050919050565b6000819050919050565b612e7483612e3f565b612e88612e8082612e61565b848454612de3565b825550505050565b600090565b612e9d612e90565b612ea8818484612e6b565b505050565b5b81811015612ecc57612ec1600082612e95565b600181019050612eae565b5050565b601f821115612f1157612ee281612db1565b612eeb84612dc6565b81016020851015612efa578190505b612f0e612f0685612dc6565b830182612ead565b50505b505050565b600082821c905092915050565b6000612f3460001984600802612f16565b1980831691505092915050565b6000612f4d8383612f23565b9150826002028217905092915050565b612f6682611f4b565b67ffffffffffffffff811115612f7f57612f7e6123cc565b5b612f898254612722565b612f94828285612ed0565b600060209050601f831160018114612fc75760008415612fb5578287015190505b612fbf8582612f41565b865550613027565b601f198416612fd586612db1565b60005b82811015612ffd57848901518255600182019150602085019450602081019050612fd8565b8683101561301a5784890151613016601f891682612f23565b8355505b6001600288020188555050505b505050505050565b6000606082019050818103600083015261304981866122c8565b90506130586020830185612151565b6130656040830184612151565b949350505050565b7f42617474657279206c6576656c206d757374206265206265747765656e20302060008201527f616e642031303000000000000000000000000000000000000000000000000000602082015250565b60006130c96027836122b7565b91506130d48261306d565b604082019050919050565b600060208201905081810360008301526130f8816130bc565b9050919050565b7f456e657267792067656e6572617465642065786365656473206d61782063617060008201527f6163697479000000000000000000000000000000000000000000000000000000602082015250565b600061315b6025836122b7565b9150613166826130ff565b604082019050919050565b6000602082019050818103600083015261318a8161314e565b9050919050565b7f456e657267792064656d616e642065786365656473206d61782063617061636960008201527f7479000000000000000000000000000000000000000000000000000000000000602082015250565b60006131ed6022836122b7565b91506131f882613191565b604082019050919050565b6000602082019050818103600083015261321c816131e0565b9050919050565b60006080820190506132386000830187612151565b6132456020830186612151565b6132526040830185612151565b61325f6060830184612151565b95945050505050565b7f4d61726b6574706c616365206164647265737320616c72656164792073657400600082015250565b600061329e601f836122b7565b91506132a982613268565b602082019050919050565b600060208201905081810360008301526132cd81613291565b905091905056fea264697066735822122045d9e7e43e4f24841b4d6729eeb0181d3d5b73c11e9816107d112f4ebe451af364736f6c634300081c0033",
  "linkReferences": {},
  "deployedLinkReferences": {}
}