{
  "_format": "hh-sol-artifact-1",
  "contractName": "MicrogridRegistry",
  "sourceName": "contracts/MicrogridRegistry.sol",
  "abi": [
    {
      "inputs": [
        {
          "internalType": "address",
          "name": "_owner",
          "type": "address"
        }
      ],
      "stateMutability": "nonpayable",
      "type": "constructor"
    },
    {
      "inputs": [
        {
          "internalType": "address",
          "name": "owner",
          "type": "address"
        }
      ],
      "name": "OwnableInvalidOwner",
      "type": "error"
    },
    {
      "inputs": [
        {
          "internalType": "address",
          "name": "account",
          "type": "address"
        }
      ],
      "name": "OwnableUnauthorizedAccount",
      "type": "error"
    },
    {
      "anonymous": false,
      "inputs": [
        {
          "indexed": true,
          "internalType": "uint256",
          "name": "id",
          "type": "uint256"
        },
        {
          "indexed": true,
          "internalType": "address",
          "name": "owner",
          "type": "address"
        },
        {
          "indexed": false,
          "internalType": "string",
          "name": "name",
          "type": "string"
        },
        {
          "indexed": false,
          "internalType": "uint256",
          "name": "latitude",
          "type": "uint256"
        },
        {
          "indexed": false,
          "internalType": "uint256",
          "name": "longitude",
          "type": "uint256"
        }
      ],
      "name": "MicrogridRegistered",
      "type": "event"
    },
    {
      "anonymous": false,
      "inputs": [
        {
          "indexed": true,
          "internalType": "address",
          "name": "previousOwner",
          "type": "address"
        },
        {
          "indexed": true,
          "internalType": "address",
          "name": "newOwner",
          "type": "address"
        }
      ],
      "name": "OwnershipTransferred",
      "type": "event"
    },
    {
      "anonymous": false,
      "inputs": [
        {
          "indexed": true,
          "internalType": "uint256",
          "name": "id",
          "type": "uint256"
        },
        {
          "indexed": false,
          "internalType": "uint256",
          "name": "reservedEnergy",
          "type": "uint256"
        }
      ],
      "name": "ReservedEnergyUpdated",
      "type": "event"
    },
    {
      "anonymous": false,
      "inputs": [
        {
          "indexed": true,
          "internalType": "uint256",
          "name": "id",
          "type": "uint256"
        },
        {
          "indexed": false,
          "internalType": "uint256",
          "name": "energyGenerated",
          "type": "uint256"
        },
        {
          "indexed": false,
          "internalType": "uint256",
          "name": "energyDemand",
          "type": "uint256"
        },
        {
          "indexed": false,
          "internalType": "uint256",
          "name": "batteryLevel",
          "type": "uint256"
        },
        {
          "indexed": false,
          "internalType": "uint256",
          "name": "lastUpdated",
          "type": "uint256"
        }
      ],
      "name": "StatusUpdated",
      "type": "event"
    },
    {
      "inputs": [
        {
          "internalType": "uint256",
          "name": "_id",
          "type": "uint256"
        },
        {
          "internalType": "uint256",
          "name": "_amount",
          "type": "uint256"
        }
      ],
      "name": "decreaseReservedEnergy",
      "outputs": [],
      "stateMutability": "nonpayable",
      "type": "function"
    },
    {
      "inputs": [
        {
          "internalType": "uint256",
          "name": "_id",
          "type": "uint256"
        }
      ],
      "name": "getAvailableEnergy",
      "outputs": [
        {
          "internalType": "uint256",
          "name": "",
          "type": "uint256"
        }
      ],
      "stateMutability": "view",
      "type": "function"
    },
    {
      "inputs": [
        {
          "internalType": "uint256",
          "name": "_id",
          "type": "uint256"
        }
      ],
      "name": "getMicrogrid",
      "outputs": [
        {
          "components": [
            {
              "internalType": "uint256",
              "name": "id",
              "type": "uint256"
            },
            {
              "internalType": "string",
              "name": "name",
              "type": "string"
            },
            {
              "internalType": "address",
              "name": "owner",
              "type": "address"
            },
            {
              "internalType": "uint256",
              "name": "latitude",
              "type": "uint256"
            },
            {
              "internalType": "uint256",
              "name": "longitude",
              "type": "uint256"
            },
            {
              "internalType": "uint256",
              "name": "energyGenerated",
              "type": "uint256"
            },
            {
              "internalType": "uint256",
              "name": "energyDemand",
              "type": "uint256"
            },
            {
              "internalType": "uint256",
              "name": "batteryLevel",
              "type": "uint256"
            },
            {
              "internalType": "uint256",
              "name": "maxCapacity",
              "type": "uint256"
            },
            {
              "internalType": "uint256",
              "name": "reservedEnergy",
              "type": "uint256"
            },
            {
              "internalType": "bool",
              "name": "isActive",
              "type": "bool"
            },
            {
              "internalType": "uint256",
              "name": "lastUpdated",
              "type": "uint256"
            }
          ],
          "internalType": "struct MicrogridRegistry.Microgrid",
          "name": "",
          "type": "tuple"
        }
      ],
      "stateMutability": "view",
      "type": "function"
    },
    {
      "inputs": [
        {
          "internalType": "uint256",
          "name": "_id",
          "type": "uint256"
        }
      ],
      "name": "getOwner",
      "outputs": [
        {
          "internalType": "address",
          "name": "",
          "type": "address"
        }
      ],
      "stateMutability": "view",
      "type": "function"
    },
    {
      "inputs": [
        {
          "internalType": "uint256",
          "name": "_id",
          "type": "uint256"
        }
      ],
      "name": "getPricingData",
      "outputs": [
        {
          "internalType": "uint256",
          "name": "generation",
          "type": "uint256"
        },
        {
          "internalType": "uint256",
          "name": "demand",
          "type": "uint256"
        },
        {
          "internalType": "uint256",
          "name": "batteryLevel",
          "type": "uint256"
        },
        {
          "internalType": "uint256",
          "name": "maxCapacity",
          "type": "uint256"
        },
        {
          "internalType": "uint256",
          "name": "reservedEnergy",
          "type": "uint256"
        }
      ],
      "stateMutability": "view",
      "type": "function"
    },
    {
      "inputs": [
        {
          "internalType": "uint256",
          "name": "_id",
          "type": "uint256"
        }
      ],
      "name": "getSurplus",
      "outputs": [
        {
          "internalType": "int256",
          "name": "",
          "type": "int256"
        }
      ],
      "stateMutability": "view",
      "type": "function"
    },
    {
      "inputs": [
        {
          "internalType": "uint256",
          "name": "_id",
          "type": "uint256"
        },
        {
          "internalType": "uint256",
          "name": "_amount",
          "type": "uint256"
        }
      ],
      "name": "increaseReservedEnergy",
      "outputs": [],
      "stateMutability": "nonpayable",
      "type": "function"
    },
    {
      "inputs": [
        {
          "internalType": "uint256",
          "name": "_id",
          "type": "uint256"
        }
      ],
      "name": "isMicrogridActive",
      "outputs": [
        {
          "internalType": "bool",
          "name": "",
          "type": "bool"
        }
      ],
      "stateMutability": "view",
      "type": "function"
    },
    {
      "inputs": [
        {
          "internalType": "address",
          "name": "",
          "type": "address"
        }
      ],
      "name": "isRegistered",
      "outputs": [
        {
          "internalType": "bool",
          "name": "",
          "type": "bool"
        }
      ],
      "stateMutability": "view",
      "type": "function"
    },
    {
      "inputs": [],
      "name": "marketplaceAddress",
      "outputs": [
        {
          "internalType": "address",
          "name": "",
          "type": "address"
        }
      ],
      "stateMutability": "view",
      "type": "function"
    },
    {
      "inputs": [
        {
          "internalType": "uint256",
          "name": "",
          "type": "uint256"
        }
      ],
      "name": "microgrids",
      "outputs": [
        {
          "internalType": "uint256",
          "name": "id",
          "type": "uint256"
        },
        {
          "internalType": "string",
          "name": "name",
          "type": "string"
        },
        {
          "internalType": "address",
          "name": "owner",
          "type": "address"
        },
        {
          "internalType": "uint256",
          "name": "latitude",
          "type": "uint256"
        },
        {
          "internalType": "uint256",
          "name": "longitude",
          "type": "uint256"
        },
        {
          "internalType": "uint256",
          "name": "energyGenerated",
          "type": "uint256"
        },
        {
          "internalType": "uint256",
          "name": "energyDemand",
          "type": "uint256"
        },
        {
          "internalType": "uint256",
          "name": "batteryLevel",
          "type": "uint256"
        },
        {
          "internalType": "uint256",
          "name": "maxCapacity",
          "type": "uint256"
        },
        {
          "internalType": "uint256",
          "name": "reservedEnergy",
          "type": "uint256"
        },
        {
          "internalType": "bool",
          "name": "isActive",
          "type": "bool"
        },
        {
          "internalType": "uint256",
          "name": "lastUpdated",
          "type": "uint256"
        }
      ],
      "stateMutability": "view",
      "type": "function"
    },
    {
      "inputs": [],
      "name": "nextId",
      "outputs": [
        {
          "internalType": "uint256",
          "name": "",
          "type": "uint256"
        }
      ],
      "stateMutability": "view",
      "type": "function"
    },
    {
      "inputs": [],
      "name": "owner",
      "outputs": [
        {
          "internalType": "address",
          "name": "",
          "type": "address"
        }
      ],
      "stateMutability": "view",
      "type": "function"
    },
    {
      "inputs": [
        {
          "internalType": "string",
          "name": "_name",
          "type": "string"
        },
        {
          "internalType": "uint256",
          "name": "_latitude",
          "type": "uint256"
        },
        {
          "internalType": "uint256",
          "name": "_longitude",
          "type": "uint256"
        },
        {
          "internalType": "uint256",
          "name": "_maxCapacity",
          "type": "uint256"
        }
      ],
      "name": "registerMicrogrid",
      "outputs": [],
      "stateMutability": "nonpayable",
      "type": "function"
    },
    {
      "inputs": [],
      "name": "renounceOwnership",
      "outputs": [],
      "stateMutability": "nonpayable",
      "type": "function"
    },
    {
      "inputs": [
        {
          "internalType": "address",
          "name": "_marketplaceAddress",
          "type": "address"
        }
      ],
      "name": "setMarketplaceAddress",
      "outputs": [],
      "stateMutability": "nonpayable",
      "type": "function"
    },
    {
      "inputs": [
        {
          "internalType": "uint256",
          "name": "_id",
          "type": "uint256"
        },
        {
          "internalType": "bool",
          "name": "_status",
          "type": "bool"
        }
      ],
      "name": "setMicrogridStatus",
      "outputs": [],
      "stateMutability": "nonpayable",
      "type": "function"
    },
    {
      "inputs": [
        {
          "internalType": "address",
          "name": "newOwner",
          "type": "address"
        }
      ],
      "name": "transferOwnership",
      "outputs": [],
      "stateMutability": "nonpayable",
      "type": "function"
    },
    {
      "inputs": [
        {
          "internalType": "uint256",
          "name": "_id",
          "type": "uint256"
        },
        {
          "internalType": "uint256",
          "name": "_energyGenerated",
          "type": "uint256"
        },
        {
          "internalType": "uint256",
          "name": "_energyDemand",
          "type": "uint256"
        },
        {
          "internalType": "uint256",
          "name": "_batteryLevel",
          "type": "uint256"
        }
      ],
      "name": "updateStatus",
      "outputs": [],
      "stateMutability": "nonpayable",
      "type": "function"
    }
  ],
  "bytecode": "0x608060405234801561001057600080fd5b50604051612cf2380380612cf2833981810160405281019061003291906101e2565b80600073ffffffffffffffffffffffffffffffffffffffff168173ffffffffffffffffffffffffffffffffffffffff16036100a55760006040517f1e4fbdf700000000000000000000000000000000000000000000000000000000815260040161009c919061021e565b60405180910390fd5b6100b4816100bb60201b60201c565b5050610239565b60008060009054906101000a900473ffffffffffffffffffffffffffffffffffffffff169050816000806101000a81548173ffffffffffffffffffffffffffffffffffffffff021916908373ffffffffffffffffffffffffffffffffffffffff1602179055508173ffffffffffffffffffffffffffffffffffffffff168173ffffffffffffffffffffffffffffffffffffffff167f8be0079c531659141344cd1fd0a4f28419497f9722a3daafe3b4186f6b6457e060405160405180910390a35050565b600080fd5b600073ffffffffffffffffffffffffffffffffffffffff82169050919050565b60006101af82610184565b9050919050565b6101bf816101a4565b81146101ca57600080fd5b50565b6000815190506101dc816101b6565b92915050565b6000602082840312156101f8576101f761017f565b5b6000610206848285016101cd565b91505092915050565b610218816101a4565b82525050565b6000602082019050610233600083018461020f565b92915050565b612aaa806102486000396000f3fe608060405234801561001057600080fd5b50600436106101215760003560e01c80638da5cb5b116100ad578063c41a360a11610071578063c41a360a14610327578063d053189714610357578063d3e0bada14610387578063daa17f49146103a3578063f2fde38b146103c157610121565b80638da5cb5b1461026657806393e64b4814610284578063955464ef146102bf578063b47cc556146102db578063c3c5a547146102f757610121565b80634fa4c02d116100f45780634fa4c02d146101d257806361b8ce8c1461020657806361f2d09f14610224578063715018a61461024057806387d532311461024a57610121565b80631b4ffccb146101265780631c334a7e146101425780634504b83a1461017257806347846fd9146101a2575b600080fd5b610140600480360381019061013b91906118b3565b6103dd565b005b61015c600480360381019061015791906118f3565b6104f9565b604051610169919061192f565b60405180910390f35b61018c600480360381019061018791906118f3565b61056a565b6040516101999190611b3d565b60405180910390f35b6101bc60048036038101906101b791906118f3565b610739565b6040516101c99190611b6e565b60405180910390f35b6101ec60048036038101906101e791906118f3565b610858565b6040516101fd959493929190611b89565b60405180910390f35b61020e6108e8565b60405161021b9190611b6e565b60405180910390f35b61023e60048036038101906102399190611bdc565b6108ee565b005b610248610a9a565b005b610264600480360381019061025f9190611c1c565b610aae565b005b61026e610da1565b60405161027b9190611c92565b60405180910390f35b61029e600480360381019061029991906118f3565b610dca565b6040516102b69c9b9a99989796959493929190611cf7565b60405180910390f35b6102d960048036038101906102d49190611eed565b610edf565b005b6102f560048036038101906102f09190611f9c565b6111dc565b005b610311600480360381019061030c9190611f9c565b6112b9565b60405161031e919061192f565b60405180910390f35b610341600480360381019061033c91906118f3565b6112d9565b60405161034e9190611c92565b60405180910390f35b610371600480360381019061036c91906118f3565b61135d565b60405161037e9190611fe2565b60405180910390f35b6103a1600480360381019061039c9190611bdc565b611466565b005b6103ab6115b9565b6040516103b89190611c92565b60405180910390f35b6103db60048036038101906103d69190611f9c565b6115df565b005b813373ffffffffffffffffffffffffffffffffffffffff166002600083815260200190815260200160002060020160009054906101000a900473ffffffffffffffffffffffffffffffffffffffff1673ffffffffffffffffffffffffffffffffffffffff1614610482576040517f08c379a000000000000000000000000000000000000000000000000000000000815260040161047990612049565b60405180910390fd5b60015483106104c6576040517f08c379a00000000000000000000000000000000000000000000000000000000081526004016104bd906120b5565b60405180910390fd5b8160026000858152602001908152602001600020600a0160006101000a81548160ff021916908315150217905550505050565b6000600154821061053f576040517f08c379a0000000000000000000000000000000000000000000000000000000008152600401610536906120b5565b60405180910390fd5b60026000838152602001908152602001600020600a0160009054906101000a900460ff169050919050565b6105726117b8565b60015482106105b6576040517f08c379a00000000000000000000000000000000000000000000000000000000081526004016105ad906120b5565b60405180910390fd5b6002600083815260200190815260200160002060405180610180016040529081600082015481526020016001820180546105ef90612104565b80601f016020809104026020016040519081016040528092919081815260200182805461061b90612104565b80156106685780601f1061063d57610100808354040283529160200191610668565b820191906000526020600020905b81548152906001019060200180831161064b57829003601f168201915b505050505081526020016002820160009054906101000a900473ffffffffffffffffffffffffffffffffffffffff1673ffffffffffffffffffffffffffffffffffffffff1673ffffffffffffffffffffffffffffffffffffffff16815260200160038201548152602001600482015481526020016005820154815260200160068201548152602001600782015481526020016008820154815260200160098201548152602001600a820160009054906101000a900460ff16151515158152602001600b820154815250509050919050565b6000600154821061077f576040517f08c379a0000000000000000000000000000000000000000000000000000000008152600401610776906120b5565b60405180910390fd5b60026000838152602001908152602001600020600a0160009054906101000a900460ff166107e2576040517f08c379a00000000000000000000000000000000000000000000000000000000081526004016107d990612181565b60405180910390fd5b600060026000848152602001908152602001600020600901546002600085815260200190815260200160002060060154600260008681526020019081526020016000206005015461083391906121d0565b61083d91906121d0565b90506000811361084e576000610850565b805b915050919050565b600080600080600060015486106108a4576040517f08c379a000000000000000000000000000000000000000000000000000000000815260040161089b9061225f565b60405180910390fd5b600060026000888152602001908152602001600020905080600501548160060154826007015483600801548460090154955095509550955095505091939590929450565b60015481565b600460009054906101000a900473ffffffffffffffffffffffffffffffffffffffff1673ffffffffffffffffffffffffffffffffffffffff163373ffffffffffffffffffffffffffffffffffffffff161461097e576040517f08c379a0000000000000000000000000000000000000000000000000000000008152600401610975906122f1565b60405180910390fd5b60015482106109c2576040517f08c379a00000000000000000000000000000000000000000000000000000000081526004016109b9906120b5565b60405180910390fd5b8060026000848152602001908152602001600020600901541015610a1b576040517f08c379a0000000000000000000000000000000000000000000000000000000008152600401610a129061235d565b60405180910390fd5b80600260008481526020019081526020016000206009016000828254610a41919061237d565b92505081905550817fb289bc0a077dda72409091ecfd7217e89eec2e6c01bbb815eecf3599ccf31fcc6002600085815260200190815260200160002060090154604051610a8e9190611b6e565b60405180910390a25050565b610aa2611665565b610aac60006116ec565b565b833373ffffffffffffffffffffffffffffffffffffffff166002600083815260200190815260200160002060020160009054906101000a900473ffffffffffffffffffffffffffffffffffffffff1673ffffffffffffffffffffffffffffffffffffffff1614610b53576040517f08c379a0000000000000000000000000000000000000000000000000000000008152600401610b4a90612049565b60405180910390fd5b6001548510610b97576040517f08c379a0000000000000000000000000000000000000000000000000000000008152600401610b8e906120b5565b60405180910390fd5b60026000868152602001908152602001600020600a0160009054906101000a900460ff16610bfa576040517f08c379a0000000000000000000000000000000000000000000000000000000008152600401610bf190612181565b60405180910390fd5b6064821115610c3e576040517f08c379a0000000000000000000000000000000000000000000000000000000008152600401610c3590612423565b60405180910390fd5b6002600086815260200190815260200160002060080154841115610c97576040517f08c379a0000000000000000000000000000000000000000000000000000000008152600401610c8e906124b5565b60405180910390fd5b6002600086815260200190815260200160002060080154831115610cf0576040517f08c379a0000000000000000000000000000000000000000000000000000000008152600401610ce790612547565b60405180910390fd5b8360026000878152602001908152602001600020600501819055508260026000878152602001908152602001600020600601819055508160026000878152602001908152602001600020600701819055504260026000878152602001908152602001600020600b0181905550847f51dffc56f3ebef9bab005c12273259d1c794ecdac4bdb23f96c2d9553ab9410185858542604051610d929493929190612567565b60405180910390a25050505050565b60008060009054906101000a900473ffffffffffffffffffffffffffffffffffffffff16905090565b6002602052806000526040600020600091509050806000015490806001018054610df390612104565b80601f0160208091040260200160405190810160405280929190818152602001828054610e1f90612104565b8015610e6c5780601f10610e4157610100808354040283529160200191610e6c565b820191906000526020600020905b815481529060010190602001808311610e4f57829003601f168201915b5050505050908060020160009054906101000a900473ffffffffffffffffffffffffffffffffffffffff169080600301549080600401549080600501549080600601549080600701549080600801549080600901549080600a0160009054906101000a900460ff169080600b015490508c565b60008111610f22576040517f08c379a0000000000000000000000000000000000000000000000000000000008152600401610f199061261e565b60405180910390fd5b600360003373ffffffffffffffffffffffffffffffffffffffff1673ffffffffffffffffffffffffffffffffffffffff16815260200190815260200160002060009054906101000a900460ff1615610faf576040517f08c379a0000000000000000000000000000000000000000000000000000000008152600401610fa6906126b0565b60405180910390fd5b600060016000815480929190610fc4906126d0565b9190505590506040518061018001604052808281526020018681526020013373ffffffffffffffffffffffffffffffffffffffff16815260200185815260200184815260200160008152602001600081526020016064815260200183815260200160008152602001600115158152602001428152506002600083815260200190815260200160002060008201518160000155602082015181600101908161106b91906128c4565b5060408201518160020160006101000a81548173ffffffffffffffffffffffffffffffffffffffff021916908373ffffffffffffffffffffffffffffffffffffffff160217905550606082015181600301556080820151816004015560a0820151816005015560c0820151816006015560e082015181600701556101008201518160080155610120820151816009015561014082015181600a0160006101000a81548160ff02191690831515021790555061016082015181600b01559050506001600360003373ffffffffffffffffffffffffffffffffffffffff1673ffffffffffffffffffffffffffffffffffffffff16815260200190815260200160002060006101000a81548160ff0219169083151502179055503373ffffffffffffffffffffffffffffffffffffffff16817f7b2068605e8ed71972e65749aa4b5d44adfa00427b5bde64876aeba6a4411a868787876040516111cd93929190612996565b60405180910390a35050505050565b6111e4611665565b600073ffffffffffffffffffffffffffffffffffffffff16600460009054906101000a900473ffffffffffffffffffffffffffffffffffffffff1673ffffffffffffffffffffffffffffffffffffffff1614611275576040517f08c379a000000000000000000000000000000000000000000000000000000000815260040161126c90612a20565b60405180910390fd5b80600460006101000a81548173ffffffffffffffffffffffffffffffffffffffff021916908373ffffffffffffffffffffffffffffffffffffffff16021790555050565b60036020528060005260406000206000915054906101000a900460ff1681565b6000600154821061131f576040517f08c379a0000000000000000000000000000000000000000000000000000000008152600401611316906120b5565b60405180910390fd5b6002600083815260200190815260200160002060020160009054906101000a900473ffffffffffffffffffffffffffffffffffffffff169050919050565b600060015482106113a3576040517f08c379a000000000000000000000000000000000000000000000000000000000815260040161139a906120b5565b60405180910390fd5b60026000838152602001908152602001600020600a0160009054906101000a900460ff16611406576040517f08c379a00000000000000000000000000000000000000000000000000000000081526004016113fd90612181565b60405180910390fd5b60026000838152602001908152602001600020600901546002600084815260200190815260200160002060060154600260008581526020019081526020016000206005015461145591906121d0565b61145f91906121d0565b9050919050565b600460009054906101000a900473ffffffffffffffffffffffffffffffffffffffff1673ffffffffffffffffffffffffffffffffffffffff163373ffffffffffffffffffffffffffffffffffffffff16146114f6576040517f08c379a00000000000000000000000000000000000000000000000000000000081526004016114ed906122f1565b60405180910390fd5b600154821061153a576040517f08c379a0000000000000000000000000000000000000000000000000000000008152600401611531906120b5565b60405180910390fd5b806002600084815260200190815260200160002060090160008282546115609190612a40565b92505081905550817fb289bc0a077dda72409091ecfd7217e89eec2e6c01bbb815eecf3599ccf31fcc60026000858152602001908152602001600020600901546040516115ad9190611b6e565b60405180910390a25050565b600460009054906101000a900473ffffffffffffffffffffffffffffffffffffffff1681565b6115e7611665565b600073ffffffffffffffffffffffffffffffffffffffff168173ffffffffffffffffffffffffffffffffffffffff16036116595760006040517f1e4fbdf70000000000000000000000000000000000000000000000000000000081526004016116509190611c92565b60405180910390fd5b611662816116ec565b50565b61166d6117b0565b73ffffffffffffffffffffffffffffffffffffffff1661168b610da1565b73ffffffffffffffffffffffffffffffffffffffff16146116ea576116ae6117b0565b6040517f118cdaa70000000000000000000000000000000000000000000000000000000081526004016116e19190611c92565b60405180910390fd5b565b60008060009054906101000a900473ffffffffffffffffffffffffffffffffffffffff169050816000806101000a81548173ffffffffffffffffffffffffffffffffffffffff021916908373ffffffffffffffffffffffffffffffffffffffff1602179055508173ffffffffffffffffffffffffffffffffffffffff168173ffffffffffffffffffffffffffffffffffffffff167f8be0079c531659141344cd1fd0a4f28419497f9722a3daafe3b4186f6b6457e060405160405180910390a35050565b600033905090565b6040518061018001604052806000815260200160608152602001600073ffffffffffffffffffffffffffffffffffffffff16815260200160008152602001600081526020016000815260200160008152602001600081526020016000815260200160008152602001600015158152602001600081525090565b6000604051905090565b600080fd5b600080fd5b6000819050919050565b61185881611845565b811461186357600080fd5b50565b6000813590506118758161184f565b92915050565b60008115159050919050565b6118908161187b565b811461189b57600080fd5b50565b6000813590506118ad81611887565b92915050565b600080604083850312156118ca576118c961183b565b5b60006118d885828601611866565b92505060206118e98582860161189e565b9150509250929050565b6000602082840312156119095761190861183b565b5b600061191784828501611866565b91505092915050565b6119298161187b565b82525050565b60006020820190506119446000830184611920565b92915050565b61195381611845565b82525050565b600081519050919050565b600082825260208201905092915050565b60005b83811015611993578082015181840152602081019050611978565b60008484015250505050565b6000601f19601f8301169050919050565b60006119bb82611959565b6119c58185611964565b93506119d5818560208601611975565b6119de8161199f565b840191505092915050565b600073ffffffffffffffffffffffffffffffffffffffff82169050919050565b6000611a14826119e9565b9050919050565b611a2481611a09565b82525050565b611a338161187b565b82525050565b600061018083016000830151611a52600086018261194a565b5060208301518482036020860152611a6a82826119b0565b9150506040830151611a7f6040860182611a1b565b506060830151611a92606086018261194a565b506080830151611aa5608086018261194a565b5060a0830151611ab860a086018261194a565b5060c0830151611acb60c086018261194a565b5060e0830151611ade60e086018261194a565b50610100830151611af361010086018261194a565b50610120830151611b0861012086018261194a565b50610140830151611b1d610140860182611a2a565b50610160830151611b3261016086018261194a565b508091505092915050565b60006020820190508181036000830152611b578184611a39565b905092915050565b611b6881611845565b82525050565b6000602082019050611b836000830184611b5f565b92915050565b600060a082019050611b9e6000830188611b5f565b611bab6020830187611b5f565b611bb86040830186611b5f565b611bc56060830185611b5f565b611bd26080830184611b5f565b9695505050505050565b60008060408385031215611bf357611bf261183b565b5b6000611c0185828601611866565b9250506020611c1285828601611866565b9150509250929050565b60008060008060808587031215611c3657611c3561183b565b5b6000611c4487828801611866565b9450506020611c5587828801611866565b9350506040611c6687828801611866565b9250506060611c7787828801611866565b91505092959194509250565b611c8c81611a09565b82525050565b6000602082019050611ca76000830184611c83565b92915050565b600082825260208201905092915050565b6000611cc982611959565b611cd38185611cad565b9350611ce3818560208601611975565b611cec8161199f565b840191505092915050565b600061018082019050611d0d600083018f611b5f565b8181036020830152611d1f818e611cbe565b9050611d2e604083018d611c83565b611d3b606083018c611b5f565b611d48608083018b611b5f565b611d5560a083018a611b5f565b611d6260c0830189611b5f565b611d6f60e0830188611b5f565b611d7d610100830187611b5f565b611d8b610120830186611b5f565b611d99610140830185611920565b611da7610160830184611b5f565b9d9c50505050505050505050505050565b600080fd5b600080fd5b7f4e487b7100000000000000000000000000000000000000000000000000000000600052604160045260246000fd5b611dfa8261199f565b810181811067ffffffffffffffff82111715611e1957611e18611dc2565b5b80604052505050565b6000611e2c611831565b9050611e388282611df1565b919050565b600067ffffffffffffffff821115611e5857611e57611dc2565b5b611e618261199f565b9050602081019050919050565b82818337600083830152505050565b6000611e90611e8b84611e3d565b611e22565b905082815260208101848484011115611eac57611eab611dbd565b5b611eb7848285611e6e565b509392505050565b600082601f830112611ed457611ed3611db8565b5b8135611ee4848260208601611e7d565b91505092915050565b60008060008060808587031215611f0757611f0661183b565b5b600085013567ffffffffffffffff811115611f2557611f24611840565b5b611f3187828801611ebf565b9450506020611f4287828801611866565b9350506040611f5387828801611866565b9250506060611f6487828801611866565b91505092959194509250565b611f7981611a09565b8114611f8457600080fd5b50565b600081359050611f9681611f70565b92915050565b600060208284031215611fb257611fb161183b565b5b6000611fc084828501611f87565b91505092915050565b6000819050919050565b611fdc81611fc9565b82525050565b6000602082019050611ff76000830184611fd3565b92915050565b7f4e6f7420746865206f776e6572206f662074686973206d6963726f6772696400600082015250565b6000612033601f83611cad565b915061203e82611ffd565b602082019050919050565b6000602082019050818103600083015261206281612026565b9050919050565b7f4d6963726f6772696420646f6573206e6f742065786973740000000000000000600082015250565b600061209f601883611cad565b91506120aa82612069565b602082019050919050565b600060208201905081810360008301526120ce81612092565b9050919050565b7f4e487b7100000000000000000000000000000000000000000000000000000000600052602260045260246000fd5b6000600282049050600182168061211c57607f821691505b60208210810361212f5761212e6120d5565b5b50919050565b7f4d6963726f67726964206973206e6f7420616374697665000000000000000000600082015250565b600061216b601783611cad565b915061217682612135565b602082019050919050565b6000602082019050818103600083015261219a8161215e565b9050919050565b7f4e487b7100000000000000000000000000000000000000000000000000000000600052601160045260246000fd5b60006121db82611fc9565b91506121e683611fc9565b925082820390508181126000841216828213600085121516171561220d5761220c6121a1565b5b92915050565b7f4d6963726f6772696420646f65736e2774206578697374000000000000000000600082015250565b6000612249601783611cad565b915061225482612213565b602082019050919050565b600060208201905081810360008301526122788161223c565b9050919050565b7f4f6e6c7920746865206d61726b6574706c6163652063616e2063616c6c20746860008201527f69732066756e6374696f6e000000000000000000000000000000000000000000602082015250565b60006122db602b83611cad565b91506122e68261227f565b604082019050919050565b6000602082019050818103600083015261230a816122ce565b9050919050565b7f496e73756666696369656e7420726573657276656420656e6572677900000000600082015250565b6000612347601c83611cad565b915061235282612311565b602082019050919050565b600060208201905081810360008301526123768161233a565b9050919050565b600061238882611845565b915061239383611845565b92508282039050818111156123ab576123aa6121a1565b5b92915050565b7f42617474657279206c6576656c206d757374206265206265747765656e20302060008201527f616e642031303000000000000000000000000000000000000000000000000000602082015250565b600061240d602783611cad565b9150612418826123b1565b604082019050919050565b6000602082019050818103600083015261243c81612400565b9050919050565b7f456e657267792067656e6572617465642065786365656473206d61782063617060008201527f6163697479000000000000000000000000000000000000000000000000000000602082015250565b600061249f602583611cad565b91506124aa82612443565b604082019050919050565b600060208201905081810360008301526124ce81612492565b9050919050565b7f456e657267792064656d616e642065786365656473206d61782063617061636960008201527f7479000000000000000000000000000000000000000000000000000000000000602082015250565b6000612531602283611cad565b915061253c826124d5565b604082019050919050565b6000602082019050818103600083015261256081612524565b9050919050565b600060808201905061257c6000830187611b5f565b6125896020830186611b5f565b6125966040830185611b5f565b6125a36060830184611b5f565b95945050505050565b7f4d6178206361706163697479206d75737420626520677265617465722074686160008201527f6e207a65726f0000000000000000000000000000000000000000000000000000602082015250565b6000612608602683611cad565b9150612613826125ac565b604082019050919050565b60006020820190508181036000830152612637816125fb565b9050919050565b7f4d6963726f6772696420616c7265616479207265676973746572656420666f7260008201527f2074686973206f776e6572000000000000000000000000000000000000000000602082015250565b600061269a602b83611cad565b91506126a58261263e565b604082019050919050565b600060208201905081810360008301526126c98161268d565b9050919050565b60006126db82611845565b91507fffffffffffffffffffffffffffffffffffffffffffffffffffffffffffffffff820361270d5761270c6121a1565b5b600182019050919050565b60008190508160005260206000209050919050565b60006020601f8301049050919050565b600082821b905092915050565b60006008830261277a7fffffffffffffffffffffffffffffffffffffffffffffffffffffffffffffffff8261273d565b612784868361273d565b95508019841693508086168417925050509392505050565b6000819050919050565b60006127c16127bc6127b784611845565b61279c565b611845565b9050919050565b6000819050919050565b6127db836127a6565b6127ef6127e7826127c8565b84845461274a565b825550505050565b600090565b6128046127f7565b61280f8184846127d2565b505050565b5b81811015612833576128286000826127fc565b600181019050612815565b5050565b601f8211156128785761284981612718565b6128528461272d565b81016020851015612861578190505b61287561286d8561272d565b830182612814565b50505b505050565b600082821c905092915050565b600061289b6000198460080261287d565b1980831691505092915050565b60006128b4838361288a565b9150826002028217905092915050565b6128cd82611959565b67ffffffffffffffff8111156128e6576128e5611dc2565b5b6128f08254612104565b6128fb828285612837565b600060209050601f83116001811461292e576000841561291c578287015190505b61292685826128a8565b86555061298e565b601f19841661293c86612718565b60005b828110156129645784890151825560018201915060208501945060208101905061293f565b86831015612981578489015161297d601f89168261288a565b8355505b6001600288020188555050505b505050505050565b600060608201905081810360008301526129b08186611cbe565b90506129bf6020830185611b5f565b6129cc6040830184611b5f565b949350505050565b7f4d61726b6574706c616365206164647265737320616c72656164792073657400600082015250565b6000612a0a601f83611cad565b9150612a15826129d4565b602082019050919050565b60006020820190508181036000830152612a39816129fd565b9050919050565b6000612a4b82611845565b9150612a5683611845565b9250828201905080821115612a6e57612a6d6121a1565b5b9291505056fea26469706673582212203c3639ed2aef2dc4dae9b223c4fc79246a36d246a92591cf237b0b2807e47f8564736f6c634300081c0033",
  "linkReferences": {},
  "deployedLinkReferences": {}
}